{"contracts/GalacticCollectibles.sol":{"GalacticCollectibles":{"abi":[{"inputs":[{"internalType":"address","name":"sender","type":"address"},{"internalType":"uint256","name":"tokenId","type":"uint256"},{"internalType":"address","name":"owner","type":"address"}],"name":"ERC721IncorrectOwner","type":"error"},{"inputs":[{"internalType":"address","name":"operator","type":"address"},{"internalType":"uint256","name":"tokenId","type":"uint256"}],"name":"ERC721InsufficientApproval","type":"error"},{"inputs":[{"internalType":"address","name":"approver","type":"address"}],"name":"ERC721InvalidApprover","type":"error"},{"inputs":[{"internalType":"address","name":"operator","type":"address"}],"name":"ERC721InvalidOperator","type":"error"},{"inputs":[{"internalType":"address","name":"owner","type":"address"}],"name":"ERC721InvalidOwner","type":"error"},{"inputs":[{"internalType":"address","name":"receiver","type":"address"}],"name":"ERC721InvalidReceiver","type":"error"},{"inputs":[{"internalType":"address","name":"sender","type":"address"}],"name":"ERC721InvalidSender","type":"error"},{"inputs":[{"internalType":"uint256","name":"tokenId","type":"uint256"}],"name":"ERC721NonexistentToken","type":"error"},{"inputs":[{"internalType":"address","name":"owner","type":"address"}],"name":"OwnableInvalidOwner","type":"error"},{"inputs":[{"internalType":"address","name":"account","type":"address"}],"name":"OwnableUnauthorizedAccount","type":"error"},{"anonymous":false,"inputs":[{"indexed":true,"internalType":"address","name":"owner","type":"address"},{"indexed":true,"internalType":"address","name":"approved","type":"address"},{"indexed":true,"internalType":"uint256","name":"tokenId","type":"uint256"}],"name":"Approval","type":"event"},{"anonymous":false,"inputs":[{"indexed":true,"internalType":"address","name":"owner","type":"address"},{"indexed":true,"internalType":"address","name":"operator","type":"address"},{"indexed":false,"internalType":"bool","name":"approved","type":"bool"}],"name":"ApprovalForAll","type":"event"},{"anonymous":false,"inputs":[{"indexed":false,"internalType":"uint256","name":"_tokenId","type":"uint256"}],"name":"Burned","type":"event"},{"anonymous":false,"inputs":[{"indexed":false,"internalType":"uint256","name":"_tokenId","type":"uint256"}],"name":"Created","type":"event"},{"anonymous":false,"inputs":[{"indexed":false,"internalType":"uint256","name":"_tokenId1","type":"uint256"},{"indexed":false,"internalType":"uint256","name":"_tokenId2","type":"uint256"}],"name":"Exchanged","type":"event"},{"anonymous":false,"inputs":[{"indexed":true,"internalType":"address","name":"previousOwner","type":"address"},{"indexed":true,"internalType":"address","name":"newOwner","type":"address"}],"name":"OwnershipTransferred","type":"event"},{"anonymous":false,"inputs":[{"indexed":false,"internalType":"uint256","name":"_tokenId","type":"uint256"}],"name":"Sold","type":"event"},{"anonymous":false,"inputs":[{"indexed":true,"internalType":"address","name":"from","type":"address"},{"indexed":true,"internalType":"address","name":"to","type":"address"},{"indexed":true,"internalType":"uint256","name":"tokenId","type":"uint256"}],"name":"Transfer","type":"event"},{"anonymous":false,"inputs":[{"indexed":false,"internalType":"uint256","name":"_tokenId","type":"uint256"}],"name":"Transfered","type":"event"},{"anonymous":false,"inputs":[{"indexed":false,"internalType":"uint256","name":"_tokenId","type":"uint256"}],"name":"UpforSale","type":"event"},{"inputs":[],"name":"_name","outputs":[{"internalType":"string","name":"","type":"string"}],"stateMutability":"view","type":"function"},{"inputs":[],"name":"_symbol","outputs":[{"internalType":"string","name":"","type":"string"}],"stateMutability":"view","type":"function"},{"inputs":[{"internalType":"address","name":"to","type":"address"},{"internalType":"uint256","name":"tokenId","type":"uint256"}],"name":"approve","outputs":[],"stateMutability":"nonpayable","type":"function"},{"inputs":[{"internalType":"address","name":"owner","type":"address"}],"name":"balanceOf","outputs":[{"internalType":"uint256","name":"","type":"uint256"}],"stateMutability":"view","type":"function"},{"inputs":[{"internalType":"uint256","name":"_tokenId","type":"uint256"}],"name":"burn","outputs":[],"stateMutability":"nonpayable","type":"function"},{"inputs":[{"internalType":"uint256","name":"_tokenId","type":"uint256"}],"name":"buyPlanet","outputs":[],"stateMutability":"payable","type":"function"},{"inputs":[{"internalType":"string","name":"_planetName","type":"string"},{"internalType":"string","name":"_terrain","type":"string"},{"internalType":"uint256","name":"_rarityLevel","type":"uint256"},{"internalType":"uint256","name":"_tokenId","type":"uint256"}],"name":"createPlanet","outputs":[],"stateMutability":"nonpayable","type":"function"},{"inputs":[{"internalType":"uint256","name":"_tokenId1","type":"uint256"},{"internalType":"uint256","name":"_tokenId2","type":"uint256"}],"name":"exchangePlanets","outputs":[],"stateMutability":"nonpayable","type":"function"},{"inputs":[],"name":"getAllPlanets","outputs":[{"components":[{"internalType":"string","name":"name","type":"string"},{"internalType":"string","name":"terrain","type":"string"},{"internalType":"uint256","name":"rarityLevel","type":"uint256"},{"internalType":"address","name":"owner","type":"address"},{"internalType":"enum BaseContract.Status","name":"status","type":"uint8"},{"internalType":"uint256","name":"price","type":"uint256"}],"internalType":"struct BaseContract.Planet[]","name":"","type":"tuple[]"}],"stateMutability":"view","type":"function"},{"inputs":[{"internalType":"uint256","name":"tokenId","type":"uint256"}],"name":"getApproved","outputs":[{"internalType":"address","name":"","type":"address"}],"stateMutability":"view","type":"function"},{"inputs":[{"internalType":"address","name":"owner","type":"address"},{"internalType":"address","name":"operator","type":"address"}],"name":"isApprovedForAll","outputs":[{"internalType":"bool","name":"","type":"bool"}],"stateMutability":"view","type":"function"},{"inputs":[{"internalType":"uint256","name":"_tokenId","type":"uint256"}],"name":"lookUpTokenIdToPlanetInfo","outputs":[{"internalType":"string","name":"","type":"string"},{"internalType":"string","name":"","type":"string"},{"internalType":"uint256","name":"","type":"uint256"}],"stateMutability":"view","type":"function"},{"inputs":[],"name":"name","outputs":[{"internalType":"string","name":"","type":"string"}],"stateMutability":"view","type":"function"},{"inputs":[],"name":"owner","outputs":[{"internalType":"address","name":"","type":"address"}],"stateMutability":"view","type":"function"},{"inputs":[{"internalType":"uint256","name":"tokenId","type":"uint256"}],"name":"ownerOf","outputs":[{"internalType":"address","name":"","type":"address"}],"stateMutability":"view","type":"function"},{"inputs":[{"internalType":"uint256","name":"_tokenId","type":"uint256"},{"internalType":"uint256","name":"_price","type":"uint256"}],"name":"putPlanetUpForSale","outputs":[],"stateMutability":"nonpayable","type":"function"},{"inputs":[],"name":"renounceOwnership","outputs":[],"stateMutability":"nonpayable","type":"function"},{"inputs":[{"internalType":"address","name":"from","type":"address"},{"internalType":"address","name":"to","type":"address"},{"internalType":"uint256","name":"tokenId","type":"uint256"}],"name":"safeTransferFrom","outputs":[],"stateMutability":"nonpayable","type":"function"},{"inputs":[{"internalType":"address","name":"from","type":"address"},{"internalType":"address","name":"to","type":"address"},{"internalType":"uint256","name":"tokenId","type":"uint256"},{"internalType":"bytes","name":"data","type":"bytes"}],"name":"safeTransferFrom","outputs":[],"stateMutability":"nonpayable","type":"function"},{"inputs":[],"name":"selfDestroy","outputs":[],"stateMutability":"nonpayable","type":"function"},{"inputs":[{"internalType":"address","name":"operator","type":"address"},{"internalType":"bool","name":"approved","type":"bool"}],"name":"setApprovalForAll","outputs":[],"stateMutability":"nonpayable","type":"function"},{"inputs":[{"internalType":"bytes4","name":"interfaceId","type":"bytes4"}],"name":"supportsInterface","outputs":[{"internalType":"bool","name":"","type":"bool"}],"stateMutability":"view","type":"function"},{"inputs":[],"name":"symbol","outputs":[{"internalType":"string","name":"","type":"string"}],"stateMutability":"view","type":"function"},{"inputs":[{"internalType":"uint256","name":"","type":"uint256"}],"name":"tokenIdToPlanetInfo","outputs":[{"internalType":"string","name":"name","type":"string"},{"internalType":"string","name":"terrain","type":"string"},{"internalType":"uint256","name":"rarityLevel","type":"uint256"},{"internalType":"address","name":"owner","type":"address"},{"internalType":"enum BaseContract.Status","name":"status","type":"uint8"},{"internalType":"uint256","name":"price","type":"uint256"}],"stateMutability":"view","type":"function"},{"inputs":[{"internalType":"uint256","name":"tokenId","type":"uint256"}],"name":"tokenURI","outputs":[{"internalType":"string","name":"","type":"string"}],"stateMutability":"view","type":"function"},{"inputs":[{"internalType":"address","name":"from","type":"address"},{"internalType":"address","name":"to","type":"address"},{"internalType":"uint256","name":"tokenId","type":"uint256"}],"name":"transferFrom","outputs":[],"stateMutability":"nonpayable","type":"function"},{"inputs":[{"internalType":"address","name":"newOwner","type":"address"}],"name":"transferOwnership","outputs":[],"stateMutability":"nonpayable","type":"function"},{"inputs":[{"internalType":"address","name":"_to","type":"address"},{"internalType":"uint256","name":"_tokenId","type":"uint256"}],"name":"transferPlanet","outputs":[],"stateMutability":"nonpayable","type":"function"}],"evm":{"bytecode":{"linkReferences":{},"object":"60c0604052601460809081527f47616c6163746963436f6c6c65637469626c657300000000000000000000000060a0526007906200003e9082620002f9565b5060408051808201909152600381526211d05360ea1b6020820152600890620000689082620002f9565b503480156200007657600080fd5b50336007805462000087906200026a565b80601f0160208091040260200160405190810160405280929190818152602001828054620000b5906200026a565b8015620001065780601f10620000da5761010080835404028352916020019162000106565b820191906000526020600020905b815481529060010190602001808311620000e857829003601f168201915b5050505050600880546200011a906200026a565b80601f016020809104026020016040519081016040528092919081815260200182805462000148906200026a565b8015620001995780601f106200016d5761010080835404028352916020019162000199565b820191906000526020600020905b8154815290600101906020018083116200017b57829003601f168201915b50505050508160009081620001af9190620002f9565b506001620001be8282620002f9565b5050506001600160a01b038116620001f057604051631e4fbdf760e01b81526000600482015260240160405180910390fd5b620001fb8162000202565b50620003c5565b600680546001600160a01b038381166001600160a01b0319831681179093556040519116919082907f8be0079c531659141344cd1fd0a4f28419497f9722a3daafe3b4186f6b6457e090600090a35050565b634e487b7160e01b600052604160045260246000fd5b600181811c908216806200027f57607f821691505b602082108103620002a057634e487b7160e01b600052602260045260246000fd5b50919050565b601f821115620002f457600081815260208120601f850160051c81016020861015620002cf5750805b601f850160051c820191505b81811015620002f057828155600101620002db565b5050505b505050565b81516001600160401b0381111562000315576200031562000254565b6200032d816200032684546200026a565b84620002a6565b602080601f8311600181146200036557600084156200034c5750858301515b600019600386901b1c1916600185901b178555620002f0565b600085815260208120601f198616915b82811015620003965788860151825594840194600190910190840162000375565b5085821015620003b55787850151600019600388901b60f8161c191681555b5050505050600190811b01905550565b61264180620003d56000396000f3fe6080604052600436106101b75760003560e01c8063715018a6116100ec578063b9750acf1161008a578063d28d885211610064578063d28d8852146104f0578063db45a30f14610505578063e985e9c514610518578063f2fde38b1461053857600080fd5b8063b9750acf1461049b578063c87b56dd146104b0578063cefa13a0146104d057600080fd5b80639a7936df116100c65780639a7936df14610417578063a22cb46514610446578063b09f126614610466578063b88d4fde1461047b57600080fd5b8063715018a6146103cf5780638da5cb5b146103e457806395d89b411461040257600080fd5b806342842e0e1161015957806358d467701161013357806358d467701461033f5780636352211e1461035f5780636a23befb1461037f57806370a08231146103a157600080fd5b806342842e0e146102cd57806342966c68146102ed5780635426a7711461030d57600080fd5b8063095ea7b311610195578063095ea7b31461024b5780630febfc8d1461026d57806323b872dd1461028d578063311125f7146102ad57600080fd5b806301ffc9a7146101bc57806306fdde03146101f1578063081812fc14610213575b600080fd5b3480156101c857600080fd5b506101dc6101d7366004611e82565b610558565b60405190151581526020015b60405180910390f35b3480156101fd57600080fd5b506102066105aa565b6040516101e89190611eef565b34801561021f57600080fd5b5061023361022e366004611f02565b61063c565b6040516001600160a01b0390911681526020016101e8565b34801561025757600080fd5b5061026b610266366004611f37565b610665565b005b34801561027957600080fd5b5061026b610288366004611f61565b610674565b34801561029957600080fd5b5061026b6102a8366004611f83565b610745565b3480156102b957600080fd5b5061026b6102c8366004611f37565b6107d0565b3480156102d957600080fd5b5061026b6102e8366004611f83565b61086c565b3480156102f957600080fd5b5061026b610308366004611f02565b61088c565b34801561031957600080fd5b5061032d610328366004611f02565b610946565b6040516101e896959493929190611ff7565b34801561034b57600080fd5b5061026b61035a366004611f61565b610a9b565b34801561036b57600080fd5b5061023361037a366004611f02565b610bd5565b34801561038b57600080fd5b50610394610be0565b6040516101e89190612054565b3480156103ad57600080fd5b506103c16103bc366004612119565b610e41565b6040519081526020016101e8565b3480156103db57600080fd5b5061026b610e89565b3480156103f057600080fd5b506006546001600160a01b0316610233565b34801561040e57600080fd5b50610206610e9d565b34801561042357600080fd5b50610437610432366004611f02565b610eac565b6040516101e893929190612134565b34801561045257600080fd5b5061026b61046136600461216a565b61106b565b34801561047257600080fd5b50610206611076565b34801561048757600080fd5b5061026b610496366004612232565b611104565b3480156104a757600080fd5b5061026b61111b565b3480156104bc57600080fd5b506102066104cb366004611f02565b611131565b3480156104dc57600080fd5b5061026b6104eb3660046122ce565b6111a6565b3480156104fc57600080fd5b50610206611328565b61026b610513366004611f02565b611335565b34801561052457600080fd5b506101dc610533366004612342565b61154c565b34801561054457600080fd5b5061026b610553366004612119565b61157a565b60006001600160e01b031982166380ac58cd60e01b148061058957506001600160e01b03198216635b5e139f60e01b145b806105a457506301ffc9a760e01b6001600160e01b03198316145b92915050565b6060600080546105b990612375565b80601f01602080910402602001604051908101604052809291908181526020018280546105e590612375565b80156106325780601f1061060757610100808354040283529160200191610632565b820191906000526020600020905b81548152906001019060200180831161061557829003601f168201915b5050505050905090565b6000610647826115b8565b506000828152600460205260409020546001600160a01b03166105a4565b6106708282336115f1565b5050565b60095460ff16156106a05760405162461bcd60e51b8152600401610697906123af565b60405180910390fd5b6009805460ff1916600117905581336106b882610bd5565b6001600160a01b0316146106de5760405162461bcd60e51b8152600401610697906123d7565b6000838152600a602090815260409182902060048101859055600301805460ff60a01b1916905590518481527f198e4900853b3136832e016119981faabf00d41df3f94ee11c89e0a476df6dbc91015b60405180910390a150506009805460ff1916905550565b6001600160a01b03821661076f57604051633250574960e11b815260006004820152602401610697565b600061077c8383336115fe565b9050836001600160a01b0316816001600160a01b0316146107ca576040516364283d7b60e01b81526001600160a01b0380861660048301526024820184905282166044820152606401610697565b50505050565b60095460ff16156107f35760405162461bcd60e51b8152600401610697906123af565b6009805460ff19166001179055803361080b82610bd5565b6001600160a01b0316146108315760405162461bcd60e51b8152600401610697906123d7565b61083c3384846116f7565b6040518281527fc3ff61e701dcb234c097bc55310aa4c22eba93eabcf10d07007f5673e58a5a679060200161072e565b61088783838360405180602001604052806000815250611104565b505050565b803361089782610bd5565b6001600160a01b0316146108bd5760405162461bcd60e51b8152600401610697906123d7565b6108c6826117a7565b6000828152600a60205260408120906108df8282611dc9565b6108ed600183016000611dc9565b506000600282018190556003820180546001600160a81b03191690556004909101556040518281527fd83c63197e8e676d80ab0122beba9a9d20f3828839e9a1d6fe81d242e9cd7e6e9060200160405180910390a15050565b600a6020526000908152604090208054819061096190612375565b80601f016020809104026020016040519081016040528092919081815260200182805461098d90612375565b80156109da5780601f106109af576101008083540402835291602001916109da565b820191906000526020600020905b8154815290600101906020018083116109bd57829003601f168201915b5050505050908060010180546109ef90612375565b80601f0160208091040260200160405190810160405280929190818152602001828054610a1b90612375565b8015610a685780601f10610a3d57610100808354040283529160200191610a68565b820191906000526020600020905b815481529060010190602001808311610a4b57829003601f168201915b5050505060028301546003840154600490940154929390926001600160a01b0382169250600160a01b90910460ff169086565b60095460ff1615610abe5760405162461bcd60e51b8152600401610697906123af565b6009805460ff19166001179055610ad482610bd5565b610add82610bd5565b336001600160a01b0383161480610afc5750336001600160a01b038216145b610b595760405162461bcd60e51b815260206004820152602860248201527f53656e646572206973206e6f7420746865206f776e6572206f662065697468656044820152671c881c1b185b995d60c21b6064820152608401610697565b6000610b6485610bd5565b90506000610b7185610bd5565b9050610b7e8282886116f7565b610b898183876116f7565b60408051878152602081018790527fc1ed4cfa438d7a1029245050dd6fafd7955a34dbbe4dd540098b9a69ccdeb45591015b60405180910390a150506009805460ff1916905550505050565b60006105a4826115b8565b600b5460609060008167ffffffffffffffff811115610c0157610c016121a6565b604051908082528060200260200182016040528015610c3a57816020015b610c27611e03565b815260200190600190039081610c1f5790505b50905060005b82811015610e3a576000600b8281548110610c5d57610c5d61241c565b90600052602060002001549050600a60008281526020019081526020016000206040518060c0016040529081600082018054610c9890612375565b80601f0160208091040260200160405190810160405280929190818152602001828054610cc490612375565b8015610d115780601f10610ce657610100808354040283529160200191610d11565b820191906000526020600020905b815481529060010190602001808311610cf457829003601f168201915b50505050508152602001600182018054610d2a90612375565b80601f0160208091040260200160405190810160405280929190818152602001828054610d5690612375565b8015610da35780601f10610d7857610100808354040283529160200191610da3565b820191906000526020600020905b815481529060010190602001808311610d8657829003601f168201915b50505091835250506002820154602082015260038201546001600160a01b0381166040830152606090910190600160a01b900460ff166001811115610dea57610dea611fbf565b6001811115610dfb57610dfb611fbf565b8152602001600482015481525050838381518110610e1b57610e1b61241c565b6020026020010181905250508080610e3290612448565b915050610c40565b5092915050565b60006001600160a01b038216610e6d576040516322718ad960e21b815260006004820152602401610697565b506001600160a01b031660009081526003602052604090205490565b610e916117e2565b610e9b600061180f565b565b6060600180546105b990612375565b606080600080600a60008681526020019081526020016000206040518060c0016040529081600082018054610ee090612375565b80601f0160208091040260200160405190810160405280929190818152602001828054610f0c90612375565b8015610f595780601f10610f2e57610100808354040283529160200191610f59565b820191906000526020600020905b815481529060010190602001808311610f3c57829003601f168201915b50505050508152602001600182018054610f7290612375565b80601f0160208091040260200160405190810160405280929190818152602001828054610f9e90612375565b8015610feb5780601f10610fc057610100808354040283529160200191610feb565b820191906000526020600020905b815481529060010190602001808311610fce57829003601f168201915b50505091835250506002820154602082015260038201546001600160a01b0381166040830152606090910190600160a01b900460ff16600181111561103257611032611fbf565b600181111561104357611043611fbf565b8152600491909101546020918201528151908201516040909201519097919650945092505050565b610670338383611861565b6008805461108390612375565b80601f01602080910402602001604051908101604052809291908181526020018280546110af90612375565b80156110fc5780601f106110d1576101008083540402835291602001916110fc565b820191906000526020600020905b8154815290600101906020018083116110df57829003601f168201915b505050505081565b61110f848484610745565b6107ca84848484611900565b6111236117e2565b6006546001600160a01b0316ff5b606061113c826115b8565b50600061115460408051602081019091526000815290565b90506000815111611174576040518060200160405280600081525061119f565b8061117e84611a29565b60405160200161118f929190612461565b6040516020818303038152906040525b9392505050565b60095460ff16156111c95760405162461bcd60e51b8152600401610697906123af565b6009805460ff191660019081179091556040805160c08101825286815260208082018790528183018690523360608301526080820193909352600060a08201819052848152600a90935291208151829190819061122690826124de565b506020820151600182019061123b90826124de565b506040820151600282015560608201516003820180546001600160a01b039092166001600160a01b03198316811782556080850151926001600160a81b03191617600160a01b83600181111561129357611293611fbf565b021790555060a09190910151600490910155600b80546001810182556000919091527f0175b7a638427703f0dbe7bb9bbf987a2551717b34e79f33b5b1008d1fa01db9018290556112e43383611abc565b6040518281527f06acbfb32bcf8383f3b0a768b70ac9ec234ea0f2d3b9c77fa6a2de69b919aad19060200160405180910390a150506009805460ff19169055505050565b6007805461108390612375565b60095460ff16156113585760405162461bcd60e51b8152600401610697906123af565b6009805460ff1916600117905580600080828152600a6020526040902060030154600160a01b900460ff16600181111561139457611394611fbf565b146113e15760405162461bcd60e51b815260206004820181905260248201527f54686520706c616e65742073686f756c6420626520757020666f722073616c656044820152606401610697565b6000828152600a602052604090206004015482903410156114445760405162461bcd60e51b815260206004820152601d60248201527f596f75206e65656420746f2073656e6420656e6f7567682045746865720000006044820152606401610697565b6000838152600a60205260408120600401549061146085610bd5565b905061146d8133876116f7565b60405181906001600160a01b0382169084156108fc029085906000818181858888f193505050501580156114a5573d6000803e3d6000fd5b50823411156114e657336108fc6114bc853461259e565b6040518115909202916000818181858888f193505050501580156114e4573d6000803e3d6000fd5b505b6000868152600a602090815260408083206003810180546001600160a81b0319163360ff60a01b191617600160a01b1790556004019290925590518781527f92f64ca637d023f354075a4be751b169c1a8a9ccb6d33cdd0cb35205439957279101610bbb565b6001600160a01b03918216600090815260056020908152604080832093909416825291909152205460ff1690565b6115826117e2565b6001600160a01b0381166115ac57604051631e4fbdf760e01b815260006004820152602401610697565b6115b58161180f565b50565b6000818152600260205260408120546001600160a01b0316806105a457604051637e27328960e01b815260048101849052602401610697565b6108878383836001611b21565b6000828152600260205260408120546001600160a01b039081169083161561162b5761162b818486611c27565b6001600160a01b0381161561166957611648600085600080611b21565b6001600160a01b038116600090815260036020526040902080546000190190555b6001600160a01b03851615611698576001600160a01b0385166000908152600360205260409020805460010190555b60008481526002602052604080822080546001600160a01b0319166001600160a01b0389811691821790925591518793918516917fddf252ad1be2c89b69c2b068fc378daa952ba7f163c4a11628f55a4df523b3ef91a4949350505050565b6001600160a01b03821661172157604051633250574960e11b815260006004820152602401610697565b600061172f838360006115fe565b90506001600160a01b03811661175b57604051637e27328960e01b815260048101839052602401610697565b836001600160a01b0316816001600160a01b0316146107ca576040516364283d7b60e01b81526001600160a01b0380861660048301526024820184905282166044820152606401610697565b60006117b660008360006115fe565b90506001600160a01b03811661067057604051637e27328960e01b815260048101839052602401610697565b6006546001600160a01b03163314610e9b5760405163118cdaa760e01b8152336004820152602401610697565b600680546001600160a01b038381166001600160a01b0319831681179093556040519116919082907f8be0079c531659141344cd1fd0a4f28419497f9722a3daafe3b4186f6b6457e090600090a35050565b6001600160a01b03821661189357604051630b61174360e31b81526001600160a01b0383166004820152602401610697565b6001600160a01b03838116600081815260056020908152604080832094871680845294825291829020805460ff191686151590811790915591519182527f17307eab39ab6107e8899845ad3d59bd9653f200f220920489ca2b5937696c31910160405180910390a3505050565b6001600160a01b0383163b156107ca57604051630a85bd0160e11b81526001600160a01b0384169063150b7a02906119429033908890879087906004016125b1565b6020604051808303816000875af192505050801561197d575060408051601f3d908101601f1916820190925261197a918101906125ee565b60015b6119e6573d8080156119ab576040519150601f19603f3d011682016040523d82523d6000602084013e6119b0565b606091505b5080516000036119de57604051633250574960e11b81526001600160a01b0385166004820152602401610697565b805181602001fd5b6001600160e01b03198116630a85bd0160e11b14611a2257604051633250574960e11b81526001600160a01b0385166004820152602401610697565b5050505050565b60606000611a3683611c8b565b600101905060008167ffffffffffffffff811115611a5657611a566121a6565b6040519080825280601f01601f191660200182016040528015611a80576020820181803683370190505b5090508181016020015b600019016f181899199a1a9b1b9c1cb0b131b232b360811b600a86061a8153600a8504945084611a8a57509392505050565b6001600160a01b038216611ae657604051633250574960e11b815260006004820152602401610697565b6000611af4838360006115fe565b90506001600160a01b03811615610887576040516339e3563760e11b815260006004820152602401610697565b8080611b3557506001600160a01b03821615155b15611bf7576000611b45846115b8565b90506001600160a01b03831615801590611b715750826001600160a01b0316816001600160a01b031614155b8015611b845750611b82818461154c565b155b15611bad5760405163a9fbf51f60e01b81526001600160a01b0384166004820152602401610697565b8115611bf55783856001600160a01b0316826001600160a01b03167f8c5be1e5ebec7d5bd14f71427d1e84f3dd0314c0f7b2291e5b200ac8c7c3b92560405160405180910390a45b505b5050600090815260046020526040902080546001600160a01b0319166001600160a01b0392909216919091179055565b611c32838383611d63565b610887576001600160a01b038316611c6057604051637e27328960e01b815260048101829052602401610697565b60405163177e802f60e01b81526001600160a01b038316600482015260248101829052604401610697565b60008072184f03e93ff9f4daa797ed6e38ed64bf6a1f0160401b8310611cca5772184f03e93ff9f4daa797ed6e38ed64bf6a1f0160401b830492506040015b6d04ee2d6d415b85acef81000000008310611cf6576d04ee2d6d415b85acef8100000000830492506020015b662386f26fc100008310611d1457662386f26fc10000830492506010015b6305f5e1008310611d2c576305f5e100830492506008015b6127108310611d4057612710830492506004015b60648310611d52576064830492506002015b600a83106105a45760010192915050565b60006001600160a01b03831615801590611dc15750826001600160a01b0316846001600160a01b03161480611d9d5750611d9d848461154c565b80611dc157506000828152600460205260409020546001600160a01b038481169116145b949350505050565b508054611dd590612375565b6000825580601f10611de5575050565b601f0160209004906000526020600020908101906115b59190611e53565b6040518060c0016040528060608152602001606081526020016000815260200160006001600160a01b0316815260200160006001811115611e4657611e46611fbf565b8152602001600081525090565b5b80821115611e685760008155600101611e54565b5090565b6001600160e01b0319811681146115b557600080fd5b600060208284031215611e9457600080fd5b813561119f81611e6c565b60005b83811015611eba578181015183820152602001611ea2565b50506000910152565b60008151808452611edb816020860160208601611e9f565b601f01601f19169290920160200192915050565b60208152600061119f6020830184611ec3565b600060208284031215611f1457600080fd5b5035919050565b80356001600160a01b0381168114611f3257600080fd5b919050565b60008060408385031215611f4a57600080fd5b611f5383611f1b565b946020939093013593505050565b60008060408385031215611f7457600080fd5b50508035926020909101359150565b600080600060608486031215611f9857600080fd5b611fa184611f1b565b9250611faf60208501611f1b565b9150604084013590509250925092565b634e487b7160e01b600052602160045260246000fd5b60028110611ff357634e487b7160e01b600052602160045260246000fd5b9052565b60c08152600061200a60c0830189611ec3565b828103602084015261201c8189611ec3565b604084018890526001600160a01b0387166060850152915061204390506080830185611fd5565b8260a0830152979650505050505050565b60006020808301818452808551808352604092508286019150828160051b87010184880160005b8381101561210b57603f19898403018552815160c081518186526120a182870182611ec3565b915050888201518582038a8701526120b98282611ec3565b838a0151878b01526060808501516001600160a01b03169088015260808085015191935091506120eb82880182611fd5565b505060a0918201519490910193909352938601939086019060010161207b565b509098975050505050505050565b60006020828403121561212b57600080fd5b61119f82611f1b565b6060815260006121476060830186611ec3565b82810360208401526121598186611ec3565b915050826040830152949350505050565b6000806040838503121561217d57600080fd5b61218683611f1b565b91506020830135801515811461219b57600080fd5b809150509250929050565b634e487b7160e01b600052604160045260246000fd5b600067ffffffffffffffff808411156121d7576121d76121a6565b604051601f8501601f19908116603f011681019082821181831017156121ff576121ff6121a6565b8160405280935085815286868601111561221857600080fd5b858560208301376000602087830101525050509392505050565b6000806000806080858703121561224857600080fd5b61225185611f1b565b935061225f60208601611f1b565b925060408501359150606085013567ffffffffffffffff81111561228257600080fd5b8501601f8101871361229357600080fd5b6122a2878235602084016121bc565b91505092959194509250565b600082601f8301126122bf57600080fd5b61119f838335602085016121bc565b600080600080608085870312156122e457600080fd5b843567ffffffffffffffff808211156122fc57600080fd5b612308888389016122ae565b9550602087013591508082111561231e57600080fd5b5061232b878288016122ae565b949794965050505060408301359260600135919050565b6000806040838503121561235557600080fd5b61235e83611f1b565b915061236c60208401611f1b565b90509250929050565b600181811c9082168061238957607f821691505b6020821081036123a957634e487b7160e01b600052602260045260246000fd5b50919050565b6020808252600e908201526d1499595b9d1c985b9d0818d85b1b60921b604082015260600190565b60208082526025908201527f596f752063616e27742073656c6c206120706c616e657420796f7520646f6e276040820152643a1037bbb760d91b606082015260800190565b634e487b7160e01b600052603260045260246000fd5b634e487b7160e01b600052601160045260246000fd5b60006001820161245a5761245a612432565b5060010190565b60008351612473818460208801611e9f565b835190830190612487818360208801611e9f565b01949350505050565b601f82111561088757600081815260208120601f850160051c810160208610156124b75750805b601f850160051c820191505b818110156124d6578281556001016124c3565b505050505050565b815167ffffffffffffffff8111156124f8576124f86121a6565b61250c816125068454612375565b84612490565b602080601f83116001811461254157600084156125295750858301515b600019600386901b1c1916600185901b1785556124d6565b600085815260208120601f198616915b8281101561257057888601518255948401946001909101908401612551565b508582101561258e5787850151600019600388901b60f8161c191681555b5050505050600190811b01905550565b818103818111156105a4576105a4612432565b6001600160a01b03858116825284166020820152604081018390526080606082018190526000906125e490830184611ec3565b9695505050505050565b60006020828403121561260057600080fd5b815161119f81611e6c56fea2646970667358221220780c15ee740ce7577d84bc805dc10102901c42746387826d056f535bc768b8b464736f6c63430008140033","opcodes":"PUSH1 0xC0 PUSH1 0x40 MSTORE PUSH1 0x14 PUSH1 0x80 SWAP1 DUP2 MSTORE PUSH32 0x47616C6163746963436F6C6C65637469626C6573000000000000000000000000 PUSH1 0xA0 MSTORE PUSH1 0x7 SWAP1 PUSH3 0x3E SWAP1 DUP3 PUSH3 0x2F9 JUMP JUMPDEST POP PUSH1 0x40 DUP1 MLOAD DUP1 DUP3 ADD SWAP1 SWAP2 MSTORE PUSH1 0x3 DUP2 MSTORE PUSH3 0x11D053 PUSH1 0xEA SHL PUSH1 0x20 DUP3 ADD MSTORE PUSH1 0x8 SWAP1 PUSH3 0x68 SWAP1 DUP3 PUSH3 0x2F9 JUMP JUMPDEST POP CALLVALUE DUP1 ISZERO PUSH3 0x76 JUMPI PUSH1 0x0 DUP1 REVERT JUMPDEST POP CALLER PUSH1 0x7 DUP1 SLOAD PUSH3 0x87 SWAP1 PUSH3 0x26A JUMP JUMPDEST DUP1 PUSH1 0x1F ADD PUSH1 0x20 DUP1 SWAP2 DIV MUL PUSH1 0x20 ADD PUSH1 0x40 MLOAD SWAP1 DUP2 ADD PUSH1 0x40 MSTORE DUP1 SWAP3 SWAP2 SWAP1 DUP2 DUP2 MSTORE PUSH1 0x20 ADD DUP3 DUP1 SLOAD PUSH3 0xB5 SWAP1 PUSH3 0x26A JUMP JUMPDEST DUP1 ISZERO PUSH3 0x106 JUMPI DUP1 PUSH1 0x1F LT PUSH3 0xDA JUMPI PUSH2 0x100 DUP1 DUP4 SLOAD DIV MUL DUP4 MSTORE SWAP2 PUSH1 0x20 ADD SWAP2 PUSH3 0x106 JUMP JUMPDEST DUP3 ADD SWAP2 SWAP1 PUSH1 0x0 MSTORE PUSH1 0x20 PUSH1 0x0 KECCAK256 SWAP1 JUMPDEST DUP2 SLOAD DUP2 MSTORE SWAP1 PUSH1 0x1 ADD SWAP1 PUSH1 0x20 ADD DUP1 DUP4 GT PUSH3 0xE8 JUMPI DUP3 SWAP1 SUB PUSH1 0x1F AND DUP3 ADD SWAP2 JUMPDEST POP POP POP POP POP PUSH1 0x8 DUP1 SLOAD PUSH3 0x11A SWAP1 PUSH3 0x26A JUMP JUMPDEST DUP1 PUSH1 0x1F ADD PUSH1 0x20 DUP1 SWAP2 DIV MUL PUSH1 0x20 ADD PUSH1 0x40 MLOAD SWAP1 DUP2 ADD PUSH1 0x40 MSTORE DUP1 SWAP3 SWAP2 SWAP1 DUP2 DUP2 MSTORE PUSH1 0x20 ADD DUP3 DUP1 SLOAD PUSH3 0x148 SWAP1 PUSH3 0x26A JUMP JUMPDEST DUP1 ISZERO PUSH3 0x199 JUMPI DUP1 PUSH1 0x1F LT PUSH3 0x16D JUMPI PUSH2 0x100 DUP1 DUP4 SLOAD DIV MUL DUP4 MSTORE SWAP2 PUSH1 0x20 ADD SWAP2 PUSH3 0x199 JUMP JUMPDEST DUP3 ADD SWAP2 SWAP1 PUSH1 0x0 MSTORE PUSH1 0x20 PUSH1 0x0 KECCAK256 SWAP1 JUMPDEST DUP2 SLOAD DUP2 MSTORE SWAP1 PUSH1 0x1 ADD SWAP1 PUSH1 0x20 ADD DUP1 DUP4 GT PUSH3 0x17B JUMPI DUP3 SWAP1 SUB PUSH1 0x1F AND DUP3 ADD SWAP2 JUMPDEST POP POP POP POP POP DUP2 PUSH1 0x0 SWAP1 DUP2 PUSH3 0x1AF SWAP2 SWAP1 PUSH3 0x2F9 JUMP JUMPDEST POP PUSH1 0x1 PUSH3 0x1BE DUP3 DUP3 PUSH3 0x2F9 JUMP JUMPDEST POP POP POP PUSH1 0x1 PUSH1 0x1 PUSH1 0xA0 SHL SUB DUP2 AND PUSH3 0x1F0 JUMPI PUSH1 0x40 MLOAD PUSH4 0x1E4FBDF7 PUSH1 0xE0 SHL DUP2 MSTORE PUSH1 0x0 PUSH1 0x4 DUP3 ADD MSTORE PUSH1 0x24 ADD PUSH1 0x40 MLOAD DUP1 SWAP2 SUB SWAP1 REVERT JUMPDEST PUSH3 0x1FB DUP2 PUSH3 0x202 JUMP JUMPDEST POP PUSH3 0x3C5 JUMP JUMPDEST PUSH1 0x6 DUP1 SLOAD PUSH1 0x1 PUSH1 0x1 PUSH1 0xA0 SHL SUB DUP4 DUP2 AND PUSH1 0x1 PUSH1 0x1 PUSH1 0xA0 SHL SUB NOT DUP4 AND DUP2 OR SWAP1 SWAP4 SSTORE PUSH1 0x40 MLOAD SWAP2 AND SWAP2 SWAP1 DUP3 SWAP1 PUSH32 0x8BE0079C531659141344CD1FD0A4F28419497F9722A3DAAFE3B4186F6B6457E0 SWAP1 PUSH1 0x0 SWAP1 LOG3 POP POP JUMP JUMPDEST PUSH4 0x4E487B71 PUSH1 0xE0 SHL PUSH1 0x0 MSTORE PUSH1 0x41 PUSH1 0x4 MSTORE PUSH1 0x24 PUSH1 0x0 REVERT JUMPDEST PUSH1 0x1 DUP2 DUP2 SHR SWAP1 DUP3 AND DUP1 PUSH3 0x27F JUMPI PUSH1 0x7F DUP3 AND SWAP2 POP JUMPDEST PUSH1 0x20 DUP3 LT DUP2 SUB PUSH3 0x2A0 JUMPI PUSH4 0x4E487B71 PUSH1 0xE0 SHL PUSH1 0x0 MSTORE PUSH1 0x22 PUSH1 0x4 MSTORE PUSH1 0x24 PUSH1 0x0 REVERT JUMPDEST POP SWAP2 SWAP1 POP JUMP JUMPDEST PUSH1 0x1F DUP3 GT ISZERO PUSH3 0x2F4 JUMPI PUSH1 0x0 DUP2 DUP2 MSTORE PUSH1 0x20 DUP2 KECCAK256 PUSH1 0x1F DUP6 ADD PUSH1 0x5 SHR DUP2 ADD PUSH1 0x20 DUP7 LT ISZERO PUSH3 0x2CF JUMPI POP DUP1 JUMPDEST PUSH1 0x1F DUP6 ADD PUSH1 0x5 SHR DUP3 ADD SWAP2 POP JUMPDEST DUP2 DUP2 LT ISZERO PUSH3 0x2F0 JUMPI DUP3 DUP2 SSTORE PUSH1 0x1 ADD PUSH3 0x2DB JUMP JUMPDEST POP POP POP JUMPDEST POP POP POP JUMP JUMPDEST DUP2 MLOAD PUSH1 0x1 PUSH1 0x1 PUSH1 0x40 SHL SUB DUP2 GT ISZERO PUSH3 0x315 JUMPI PUSH3 0x315 PUSH3 0x254 JUMP JUMPDEST PUSH3 0x32D DUP2 PUSH3 0x326 DUP5 SLOAD PUSH3 0x26A JUMP JUMPDEST DUP5 PUSH3 0x2A6 JUMP JUMPDEST PUSH1 0x20 DUP1 PUSH1 0x1F DUP4 GT PUSH1 0x1 DUP2 EQ PUSH3 0x365 JUMPI PUSH1 0x0 DUP5 ISZERO PUSH3 0x34C JUMPI POP DUP6 DUP4 ADD MLOAD JUMPDEST PUSH1 0x0 NOT PUSH1 0x3 DUP7 SWAP1 SHL SHR NOT AND PUSH1 0x1 DUP6 SWAP1 SHL OR DUP6 SSTORE PUSH3 0x2F0 JUMP JUMPDEST PUSH1 0x0 DUP6 DUP2 MSTORE PUSH1 0x20 DUP2 KECCAK256 PUSH1 0x1F NOT DUP7 AND SWAP2 JUMPDEST DUP3 DUP2 LT ISZERO PUSH3 0x396 JUMPI DUP9 DUP7 ADD MLOAD DUP3 SSTORE SWAP5 DUP5 ADD SWAP5 PUSH1 0x1 SWAP1 SWAP2 ADD SWAP1 DUP5 ADD PUSH3 0x375 JUMP JUMPDEST POP DUP6 DUP3 LT ISZERO PUSH3 0x3B5 JUMPI DUP8 DUP6 ADD MLOAD PUSH1 0x0 NOT PUSH1 0x3 DUP9 SWAP1 SHL PUSH1 0xF8 AND SHR NOT AND DUP2 SSTORE JUMPDEST POP POP POP POP POP PUSH1 0x1 SWAP1 DUP2 SHL ADD SWAP1 SSTORE POP JUMP JUMPDEST PUSH2 0x2641 DUP1 PUSH3 0x3D5 PUSH1 0x0 CODECOPY PUSH1 0x0 RETURN INVALID PUSH1 0x80 PUSH1 0x40 MSTORE PUSH1 0x4 CALLDATASIZE LT PUSH2 0x1B7 JUMPI PUSH1 0x0 CALLDATALOAD PUSH1 0xE0 SHR DUP1 PUSH4 0x715018A6 GT PUSH2 0xEC JUMPI DUP1 PUSH4 0xB9750ACF GT PUSH2 0x8A JUMPI DUP1 PUSH4 0xD28D8852 GT PUSH2 0x64 JUMPI DUP1 PUSH4 0xD28D8852 EQ PUSH2 0x4F0 JUMPI DUP1 PUSH4 0xDB45A30F EQ PUSH2 0x505 JUMPI DUP1 PUSH4 0xE985E9C5 EQ PUSH2 0x518 JUMPI DUP1 PUSH4 0xF2FDE38B EQ PUSH2 0x538 JUMPI PUSH1 0x0 DUP1 REVERT JUMPDEST DUP1 PUSH4 0xB9750ACF EQ PUSH2 0x49B JUMPI DUP1 PUSH4 0xC87B56DD EQ PUSH2 0x4B0 JUMPI DUP1 PUSH4 0xCEFA13A0 EQ PUSH2 0x4D0 JUMPI PUSH1 0x0 DUP1 REVERT JUMPDEST DUP1 PUSH4 0x9A7936DF GT PUSH2 0xC6 JUMPI DUP1 PUSH4 0x9A7936DF EQ PUSH2 0x417 JUMPI DUP1 PUSH4 0xA22CB465 EQ PUSH2 0x446 JUMPI DUP1 PUSH4 0xB09F1266 EQ PUSH2 0x466 JUMPI DUP1 PUSH4 0xB88D4FDE EQ PUSH2 0x47B JUMPI PUSH1 0x0 DUP1 REVERT JUMPDEST DUP1 PUSH4 0x715018A6 EQ PUSH2 0x3CF JUMPI DUP1 PUSH4 0x8DA5CB5B EQ PUSH2 0x3E4 JUMPI DUP1 PUSH4 0x95D89B41 EQ PUSH2 0x402 JUMPI PUSH1 0x0 DUP1 REVERT JUMPDEST DUP1 PUSH4 0x42842E0E GT PUSH2 0x159 JUMPI DUP1 PUSH4 0x58D46770 GT PUSH2 0x133 JUMPI DUP1 PUSH4 0x58D46770 EQ PUSH2 0x33F JUMPI DUP1 PUSH4 0x6352211E EQ PUSH2 0x35F JUMPI DUP1 PUSH4 0x6A23BEFB EQ PUSH2 0x37F JUMPI DUP1 PUSH4 0x70A08231 EQ PUSH2 0x3A1 JUMPI PUSH1 0x0 DUP1 REVERT JUMPDEST DUP1 PUSH4 0x42842E0E EQ PUSH2 0x2CD JUMPI DUP1 PUSH4 0x42966C68 EQ PUSH2 0x2ED JUMPI DUP1 PUSH4 0x5426A771 EQ PUSH2 0x30D JUMPI PUSH1 0x0 DUP1 REVERT JUMPDEST DUP1 PUSH4 0x95EA7B3 GT PUSH2 0x195 JUMPI DUP1 PUSH4 0x95EA7B3 EQ PUSH2 0x24B JUMPI DUP1 PUSH4 0xFEBFC8D EQ PUSH2 0x26D JUMPI DUP1 PUSH4 0x23B872DD EQ PUSH2 0x28D JUMPI DUP1 PUSH4 0x311125F7 EQ PUSH2 0x2AD JUMPI PUSH1 0x0 DUP1 REVERT JUMPDEST DUP1 PUSH4 0x1FFC9A7 EQ PUSH2 0x1BC JUMPI DUP1 PUSH4 0x6FDDE03 EQ PUSH2 0x1F1 JUMPI DUP1 PUSH4 0x81812FC EQ PUSH2 0x213 JUMPI JUMPDEST PUSH1 0x0 DUP1 REVERT JUMPDEST CALLVALUE DUP1 ISZERO PUSH2 0x1C8 JUMPI PUSH1 0x0 DUP1 REVERT JUMPDEST POP PUSH2 0x1DC PUSH2 0x1D7 CALLDATASIZE PUSH1 0x4 PUSH2 0x1E82 JUMP JUMPDEST PUSH2 0x558 JUMP JUMPDEST PUSH1 0x40 MLOAD SWAP1 ISZERO ISZERO DUP2 MSTORE PUSH1 0x20 ADD JUMPDEST PUSH1 0x40 MLOAD DUP1 SWAP2 SUB SWAP1 RETURN JUMPDEST CALLVALUE DUP1 ISZERO PUSH2 0x1FD JUMPI PUSH1 0x0 DUP1 REVERT JUMPDEST POP PUSH2 0x206 PUSH2 0x5AA JUMP JUMPDEST PUSH1 0x40 MLOAD PUSH2 0x1E8 SWAP2 SWAP1 PUSH2 0x1EEF JUMP JUMPDEST CALLVALUE DUP1 ISZERO PUSH2 0x21F JUMPI PUSH1 0x0 DUP1 REVERT JUMPDEST POP PUSH2 0x233 PUSH2 0x22E CALLDATASIZE PUSH1 0x4 PUSH2 0x1F02 JUMP JUMPDEST PUSH2 0x63C JUMP JUMPDEST PUSH1 0x40 MLOAD PUSH1 0x1 PUSH1 0x1 PUSH1 0xA0 SHL SUB SWAP1 SWAP2 AND DUP2 MSTORE PUSH1 0x20 ADD PUSH2 0x1E8 JUMP JUMPDEST CALLVALUE DUP1 ISZERO PUSH2 0x257 JUMPI PUSH1 0x0 DUP1 REVERT JUMPDEST POP PUSH2 0x26B PUSH2 0x266 CALLDATASIZE PUSH1 0x4 PUSH2 0x1F37 JUMP JUMPDEST PUSH2 0x665 JUMP JUMPDEST STOP JUMPDEST CALLVALUE DUP1 ISZERO PUSH2 0x279 JUMPI PUSH1 0x0 DUP1 REVERT JUMPDEST POP PUSH2 0x26B PUSH2 0x288 CALLDATASIZE PUSH1 0x4 PUSH2 0x1F61 JUMP JUMPDEST PUSH2 0x674 JUMP JUMPDEST CALLVALUE DUP1 ISZERO PUSH2 0x299 JUMPI PUSH1 0x0 DUP1 REVERT JUMPDEST POP PUSH2 0x26B PUSH2 0x2A8 CALLDATASIZE PUSH1 0x4 PUSH2 0x1F83 JUMP JUMPDEST PUSH2 0x745 JUMP JUMPDEST CALLVALUE DUP1 ISZERO PUSH2 0x2B9 JUMPI PUSH1 0x0 DUP1 REVERT JUMPDEST POP PUSH2 0x26B PUSH2 0x2C8 CALLDATASIZE PUSH1 0x4 PUSH2 0x1F37 JUMP JUMPDEST PUSH2 0x7D0 JUMP JUMPDEST CALLVALUE DUP1 ISZERO PUSH2 0x2D9 JUMPI PUSH1 0x0 DUP1 REVERT JUMPDEST POP PUSH2 0x26B PUSH2 0x2E8 CALLDATASIZE PUSH1 0x4 PUSH2 0x1F83 JUMP JUMPDEST PUSH2 0x86C JUMP JUMPDEST CALLVALUE DUP1 ISZERO PUSH2 0x2F9 JUMPI PUSH1 0x0 DUP1 REVERT JUMPDEST POP PUSH2 0x26B PUSH2 0x308 CALLDATASIZE PUSH1 0x4 PUSH2 0x1F02 JUMP JUMPDEST PUSH2 0x88C JUMP JUMPDEST CALLVALUE DUP1 ISZERO PUSH2 0x319 JUMPI PUSH1 0x0 DUP1 REVERT JUMPDEST POP PUSH2 0x32D PUSH2 0x328 CALLDATASIZE PUSH1 0x4 PUSH2 0x1F02 JUMP JUMPDEST PUSH2 0x946 JUMP JUMPDEST PUSH1 0x40 MLOAD PUSH2 0x1E8 SWAP7 SWAP6 SWAP5 SWAP4 SWAP3 SWAP2 SWAP1 PUSH2 0x1FF7 JUMP JUMPDEST CALLVALUE DUP1 ISZERO PUSH2 0x34B JUMPI PUSH1 0x0 DUP1 REVERT JUMPDEST POP PUSH2 0x26B PUSH2 0x35A CALLDATASIZE PUSH1 0x4 PUSH2 0x1F61 JUMP JUMPDEST PUSH2 0xA9B JUMP JUMPDEST CALLVALUE DUP1 ISZERO PUSH2 0x36B JUMPI PUSH1 0x0 DUP1 REVERT JUMPDEST POP PUSH2 0x233 PUSH2 0x37A CALLDATASIZE PUSH1 0x4 PUSH2 0x1F02 JUMP JUMPDEST PUSH2 0xBD5 JUMP JUMPDEST CALLVALUE DUP1 ISZERO PUSH2 0x38B JUMPI PUSH1 0x0 DUP1 REVERT JUMPDEST POP PUSH2 0x394 PUSH2 0xBE0 JUMP JUMPDEST PUSH1 0x40 MLOAD PUSH2 0x1E8 SWAP2 SWAP1 PUSH2 0x2054 JUMP JUMPDEST CALLVALUE DUP1 ISZERO PUSH2 0x3AD JUMPI PUSH1 0x0 DUP1 REVERT JUMPDEST POP PUSH2 0x3C1 PUSH2 0x3BC CALLDATASIZE PUSH1 0x4 PUSH2 0x2119 JUMP JUMPDEST PUSH2 0xE41 JUMP JUMPDEST PUSH1 0x40 MLOAD SWAP1 DUP2 MSTORE PUSH1 0x20 ADD PUSH2 0x1E8 JUMP JUMPDEST CALLVALUE DUP1 ISZERO PUSH2 0x3DB JUMPI PUSH1 0x0 DUP1 REVERT JUMPDEST POP PUSH2 0x26B PUSH2 0xE89 JUMP JUMPDEST CALLVALUE DUP1 ISZERO PUSH2 0x3F0 JUMPI PUSH1 0x0 DUP1 REVERT JUMPDEST POP PUSH1 0x6 SLOAD PUSH1 0x1 PUSH1 0x1 PUSH1 0xA0 SHL SUB AND PUSH2 0x233 JUMP JUMPDEST CALLVALUE DUP1 ISZERO PUSH2 0x40E JUMPI PUSH1 0x0 DUP1 REVERT JUMPDEST POP PUSH2 0x206 PUSH2 0xE9D JUMP JUMPDEST CALLVALUE DUP1 ISZERO PUSH2 0x423 JUMPI PUSH1 0x0 DUP1 REVERT JUMPDEST POP PUSH2 0x437 PUSH2 0x432 CALLDATASIZE PUSH1 0x4 PUSH2 0x1F02 JUMP JUMPDEST PUSH2 0xEAC JUMP JUMPDEST PUSH1 0x40 MLOAD PUSH2 0x1E8 SWAP4 SWAP3 SWAP2 SWAP1 PUSH2 0x2134 JUMP JUMPDEST CALLVALUE DUP1 ISZERO PUSH2 0x452 JUMPI PUSH1 0x0 DUP1 REVERT JUMPDEST POP PUSH2 0x26B PUSH2 0x461 CALLDATASIZE PUSH1 0x4 PUSH2 0x216A JUMP JUMPDEST PUSH2 0x106B JUMP JUMPDEST CALLVALUE DUP1 ISZERO PUSH2 0x472 JUMPI PUSH1 0x0 DUP1 REVERT JUMPDEST POP PUSH2 0x206 PUSH2 0x1076 JUMP JUMPDEST CALLVALUE DUP1 ISZERO PUSH2 0x487 JUMPI PUSH1 0x0 DUP1 REVERT JUMPDEST POP PUSH2 0x26B PUSH2 0x496 CALLDATASIZE PUSH1 0x4 PUSH2 0x2232 JUMP JUMPDEST PUSH2 0x1104 JUMP JUMPDEST CALLVALUE DUP1 ISZERO PUSH2 0x4A7 JUMPI PUSH1 0x0 DUP1 REVERT JUMPDEST POP PUSH2 0x26B PUSH2 0x111B JUMP JUMPDEST CALLVALUE DUP1 ISZERO PUSH2 0x4BC JUMPI PUSH1 0x0 DUP1 REVERT JUMPDEST POP PUSH2 0x206 PUSH2 0x4CB CALLDATASIZE PUSH1 0x4 PUSH2 0x1F02 JUMP JUMPDEST PUSH2 0x1131 JUMP JUMPDEST CALLVALUE DUP1 ISZERO PUSH2 0x4DC JUMPI PUSH1 0x0 DUP1 REVERT JUMPDEST POP PUSH2 0x26B PUSH2 0x4EB CALLDATASIZE PUSH1 0x4 PUSH2 0x22CE JUMP JUMPDEST PUSH2 0x11A6 JUMP JUMPDEST CALLVALUE DUP1 ISZERO PUSH2 0x4FC JUMPI PUSH1 0x0 DUP1 REVERT JUMPDEST POP PUSH2 0x206 PUSH2 0x1328 JUMP JUMPDEST PUSH2 0x26B PUSH2 0x513 CALLDATASIZE PUSH1 0x4 PUSH2 0x1F02 JUMP JUMPDEST PUSH2 0x1335 JUMP JUMPDEST CALLVALUE DUP1 ISZERO PUSH2 0x524 JUMPI PUSH1 0x0 DUP1 REVERT JUMPDEST POP PUSH2 0x1DC PUSH2 0x533 CALLDATASIZE PUSH1 0x4 PUSH2 0x2342 JUMP JUMPDEST PUSH2 0x154C JUMP JUMPDEST CALLVALUE DUP1 ISZERO PUSH2 0x544 JUMPI PUSH1 0x0 DUP1 REVERT JUMPDEST POP PUSH2 0x26B PUSH2 0x553 CALLDATASIZE PUSH1 0x4 PUSH2 0x2119 JUMP JUMPDEST PUSH2 0x157A JUMP JUMPDEST PUSH1 0x0 PUSH1 0x1 PUSH1 0x1 PUSH1 0xE0 SHL SUB NOT DUP3 AND PUSH4 0x80AC58CD PUSH1 0xE0 SHL EQ DUP1 PUSH2 0x589 JUMPI POP PUSH1 0x1 PUSH1 0x1 PUSH1 0xE0 SHL SUB NOT DUP3 AND PUSH4 0x5B5E139F PUSH1 0xE0 SHL EQ JUMPDEST DUP1 PUSH2 0x5A4 JUMPI POP PUSH4 0x1FFC9A7 PUSH1 0xE0 SHL PUSH1 0x1 PUSH1 0x1 PUSH1 0xE0 SHL SUB NOT DUP4 AND EQ JUMPDEST SWAP3 SWAP2 POP POP JUMP JUMPDEST PUSH1 0x60 PUSH1 0x0 DUP1 SLOAD PUSH2 0x5B9 SWAP1 PUSH2 0x2375 JUMP JUMPDEST DUP1 PUSH1 0x1F ADD PUSH1 0x20 DUP1 SWAP2 DIV MUL PUSH1 0x20 ADD PUSH1 0x40 MLOAD SWAP1 DUP2 ADD PUSH1 0x40 MSTORE DUP1 SWAP3 SWAP2 SWAP1 DUP2 DUP2 MSTORE PUSH1 0x20 ADD DUP3 DUP1 SLOAD PUSH2 0x5E5 SWAP1 PUSH2 0x2375 JUMP JUMPDEST DUP1 ISZERO PUSH2 0x632 JUMPI DUP1 PUSH1 0x1F LT PUSH2 0x607 JUMPI PUSH2 0x100 DUP1 DUP4 SLOAD DIV MUL DUP4 MSTORE SWAP2 PUSH1 0x20 ADD SWAP2 PUSH2 0x632 JUMP JUMPDEST DUP3 ADD SWAP2 SWAP1 PUSH1 0x0 MSTORE PUSH1 0x20 PUSH1 0x0 KECCAK256 SWAP1 JUMPDEST DUP2 SLOAD DUP2 MSTORE SWAP1 PUSH1 0x1 ADD SWAP1 PUSH1 0x20 ADD DUP1 DUP4 GT PUSH2 0x615 JUMPI DUP3 SWAP1 SUB PUSH1 0x1F AND DUP3 ADD SWAP2 JUMPDEST POP POP POP POP POP SWAP1 POP SWAP1 JUMP JUMPDEST PUSH1 0x0 PUSH2 0x647 DUP3 PUSH2 0x15B8 JUMP JUMPDEST POP PUSH1 0x0 DUP3 DUP2 MSTORE PUSH1 0x4 PUSH1 0x20 MSTORE PUSH1 0x40 SWAP1 KECCAK256 SLOAD PUSH1 0x1 PUSH1 0x1 PUSH1 0xA0 SHL SUB AND PUSH2 0x5A4 JUMP JUMPDEST PUSH2 0x670 DUP3 DUP3 CALLER PUSH2 0x15F1 JUMP JUMPDEST POP POP JUMP JUMPDEST PUSH1 0x9 SLOAD PUSH1 0xFF AND ISZERO PUSH2 0x6A0 JUMPI PUSH1 0x40 MLOAD PUSH3 0x461BCD PUSH1 0xE5 SHL DUP2 MSTORE PUSH1 0x4 ADD PUSH2 0x697 SWAP1 PUSH2 0x23AF JUMP JUMPDEST PUSH1 0x40 MLOAD DUP1 SWAP2 SUB SWAP1 REVERT JUMPDEST PUSH1 0x9 DUP1 SLOAD PUSH1 0xFF NOT AND PUSH1 0x1 OR SWAP1 SSTORE DUP2 CALLER PUSH2 0x6B8 DUP3 PUSH2 0xBD5 JUMP JUMPDEST PUSH1 0x1 PUSH1 0x1 PUSH1 0xA0 SHL SUB AND EQ PUSH2 0x6DE JUMPI PUSH1 0x40 MLOAD PUSH3 0x461BCD PUSH1 0xE5 SHL DUP2 MSTORE PUSH1 0x4 ADD PUSH2 0x697 SWAP1 PUSH2 0x23D7 JUMP JUMPDEST PUSH1 0x0 DUP4 DUP2 MSTORE PUSH1 0xA PUSH1 0x20 SWAP1 DUP2 MSTORE PUSH1 0x40 SWAP2 DUP3 SWAP1 KECCAK256 PUSH1 0x4 DUP2 ADD DUP6 SWAP1 SSTORE PUSH1 0x3 ADD DUP1 SLOAD PUSH1 0xFF PUSH1 0xA0 SHL NOT AND SWAP1 SSTORE SWAP1 MLOAD DUP5 DUP2 MSTORE PUSH32 0x198E4900853B3136832E016119981FAABF00D41DF3F94EE11C89E0A476DF6DBC SWAP2 ADD JUMPDEST PUSH1 0x40 MLOAD DUP1 SWAP2 SUB SWAP1 LOG1 POP POP PUSH1 0x9 DUP1 SLOAD PUSH1 0xFF NOT AND SWAP1 SSTORE POP JUMP JUMPDEST PUSH1 0x1 PUSH1 0x1 PUSH1 0xA0 SHL SUB DUP3 AND PUSH2 0x76F JUMPI PUSH1 0x40 MLOAD PUSH4 0x32505749 PUSH1 0xE1 SHL DUP2 MSTORE PUSH1 0x0 PUSH1 0x4 DUP3 ADD MSTORE PUSH1 0x24 ADD PUSH2 0x697 JUMP JUMPDEST PUSH1 0x0 PUSH2 0x77C DUP4 DUP4 CALLER PUSH2 0x15FE JUMP JUMPDEST SWAP1 POP DUP4 PUSH1 0x1 PUSH1 0x1 PUSH1 0xA0 SHL SUB AND DUP2 PUSH1 0x1 PUSH1 0x1 PUSH1 0xA0 SHL SUB AND EQ PUSH2 0x7CA JUMPI PUSH1 0x40 MLOAD PUSH4 0x64283D7B PUSH1 0xE0 SHL DUP2 MSTORE PUSH1 0x1 PUSH1 0x1 PUSH1 0xA0 SHL SUB DUP1 DUP7 AND PUSH1 0x4 DUP4 ADD MSTORE PUSH1 0x24 DUP3 ADD DUP5 SWAP1 MSTORE DUP3 AND PUSH1 0x44 DUP3 ADD MSTORE PUSH1 0x64 ADD PUSH2 0x697 JUMP JUMPDEST POP POP POP POP JUMP JUMPDEST PUSH1 0x9 SLOAD PUSH1 0xFF AND ISZERO PUSH2 0x7F3 JUMPI PUSH1 0x40 MLOAD PUSH3 0x461BCD PUSH1 0xE5 SHL DUP2 MSTORE PUSH1 0x4 ADD PUSH2 0x697 SWAP1 PUSH2 0x23AF JUMP JUMPDEST PUSH1 0x9 DUP1 SLOAD PUSH1 0xFF NOT AND PUSH1 0x1 OR SWAP1 SSTORE DUP1 CALLER PUSH2 0x80B DUP3 PUSH2 0xBD5 JUMP JUMPDEST PUSH1 0x1 PUSH1 0x1 PUSH1 0xA0 SHL SUB AND EQ PUSH2 0x831 JUMPI PUSH1 0x40 MLOAD PUSH3 0x461BCD PUSH1 0xE5 SHL DUP2 MSTORE PUSH1 0x4 ADD PUSH2 0x697 SWAP1 PUSH2 0x23D7 JUMP JUMPDEST PUSH2 0x83C CALLER DUP5 DUP5 PUSH2 0x16F7 JUMP JUMPDEST PUSH1 0x40 MLOAD DUP3 DUP2 MSTORE PUSH32 0xC3FF61E701DCB234C097BC55310AA4C22EBA93EABCF10D07007F5673E58A5A67 SWAP1 PUSH1 0x20 ADD PUSH2 0x72E JUMP JUMPDEST PUSH2 0x887 DUP4 DUP4 DUP4 PUSH1 0x40 MLOAD DUP1 PUSH1 0x20 ADD PUSH1 0x40 MSTORE DUP1 PUSH1 0x0 DUP2 MSTORE POP PUSH2 0x1104 JUMP JUMPDEST POP POP POP JUMP JUMPDEST DUP1 CALLER PUSH2 0x897 DUP3 PUSH2 0xBD5 JUMP JUMPDEST PUSH1 0x1 PUSH1 0x1 PUSH1 0xA0 SHL SUB AND EQ PUSH2 0x8BD JUMPI PUSH1 0x40 MLOAD PUSH3 0x461BCD PUSH1 0xE5 SHL DUP2 MSTORE PUSH1 0x4 ADD PUSH2 0x697 SWAP1 PUSH2 0x23D7 JUMP JUMPDEST PUSH2 0x8C6 DUP3 PUSH2 0x17A7 JUMP JUMPDEST PUSH1 0x0 DUP3 DUP2 MSTORE PUSH1 0xA PUSH1 0x20 MSTORE PUSH1 0x40 DUP2 KECCAK256 SWAP1 PUSH2 0x8DF DUP3 DUP3 PUSH2 0x1DC9 JUMP JUMPDEST PUSH2 0x8ED PUSH1 0x1 DUP4 ADD PUSH1 0x0 PUSH2 0x1DC9 JUMP JUMPDEST POP PUSH1 0x0 PUSH1 0x2 DUP3 ADD DUP2 SWAP1 SSTORE PUSH1 0x3 DUP3 ADD DUP1 SLOAD PUSH1 0x1 PUSH1 0x1 PUSH1 0xA8 SHL SUB NOT AND SWAP1 SSTORE PUSH1 0x4 SWAP1 SWAP2 ADD SSTORE PUSH1 0x40 MLOAD DUP3 DUP2 MSTORE PUSH32 0xD83C63197E8E676D80AB0122BEBA9A9D20F3828839E9A1D6FE81D242E9CD7E6E SWAP1 PUSH1 0x20 ADD PUSH1 0x40 MLOAD DUP1 SWAP2 SUB SWAP1 LOG1 POP POP JUMP JUMPDEST PUSH1 0xA PUSH1 0x20 MSTORE PUSH1 0x0 SWAP1 DUP2 MSTORE PUSH1 0x40 SWAP1 KECCAK256 DUP1 SLOAD DUP2 SWAP1 PUSH2 0x961 SWAP1 PUSH2 0x2375 JUMP JUMPDEST DUP1 PUSH1 0x1F ADD PUSH1 0x20 DUP1 SWAP2 DIV MUL PUSH1 0x20 ADD PUSH1 0x40 MLOAD SWAP1 DUP2 ADD PUSH1 0x40 MSTORE DUP1 SWAP3 SWAP2 SWAP1 DUP2 DUP2 MSTORE PUSH1 0x20 ADD DUP3 DUP1 SLOAD PUSH2 0x98D SWAP1 PUSH2 0x2375 JUMP JUMPDEST DUP1 ISZERO PUSH2 0x9DA JUMPI DUP1 PUSH1 0x1F LT PUSH2 0x9AF JUMPI PUSH2 0x100 DUP1 DUP4 SLOAD DIV MUL DUP4 MSTORE SWAP2 PUSH1 0x20 ADD SWAP2 PUSH2 0x9DA JUMP JUMPDEST DUP3 ADD SWAP2 SWAP1 PUSH1 0x0 MSTORE PUSH1 0x20 PUSH1 0x0 KECCAK256 SWAP1 JUMPDEST DUP2 SLOAD DUP2 MSTORE SWAP1 PUSH1 0x1 ADD SWAP1 PUSH1 0x20 ADD DUP1 DUP4 GT PUSH2 0x9BD JUMPI DUP3 SWAP1 SUB PUSH1 0x1F AND DUP3 ADD SWAP2 JUMPDEST POP POP POP POP POP SWAP1 DUP1 PUSH1 0x1 ADD DUP1 SLOAD PUSH2 0x9EF SWAP1 PUSH2 0x2375 JUMP JUMPDEST DUP1 PUSH1 0x1F ADD PUSH1 0x20 DUP1 SWAP2 DIV MUL PUSH1 0x20 ADD PUSH1 0x40 MLOAD SWAP1 DUP2 ADD PUSH1 0x40 MSTORE DUP1 SWAP3 SWAP2 SWAP1 DUP2 DUP2 MSTORE PUSH1 0x20 ADD DUP3 DUP1 SLOAD PUSH2 0xA1B SWAP1 PUSH2 0x2375 JUMP JUMPDEST DUP1 ISZERO PUSH2 0xA68 JUMPI DUP1 PUSH1 0x1F LT PUSH2 0xA3D JUMPI PUSH2 0x100 DUP1 DUP4 SLOAD DIV MUL DUP4 MSTORE SWAP2 PUSH1 0x20 ADD SWAP2 PUSH2 0xA68 JUMP JUMPDEST DUP3 ADD SWAP2 SWAP1 PUSH1 0x0 MSTORE PUSH1 0x20 PUSH1 0x0 KECCAK256 SWAP1 JUMPDEST DUP2 SLOAD DUP2 MSTORE SWAP1 PUSH1 0x1 ADD SWAP1 PUSH1 0x20 ADD DUP1 DUP4 GT PUSH2 0xA4B JUMPI DUP3 SWAP1 SUB PUSH1 0x1F AND DUP3 ADD SWAP2 JUMPDEST POP POP POP POP PUSH1 0x2 DUP4 ADD SLOAD PUSH1 0x3 DUP5 ADD SLOAD PUSH1 0x4 SWAP1 SWAP5 ADD SLOAD SWAP3 SWAP4 SWAP1 SWAP3 PUSH1 0x1 PUSH1 0x1 PUSH1 0xA0 SHL SUB DUP3 AND SWAP3 POP PUSH1 0x1 PUSH1 0xA0 SHL SWAP1 SWAP2 DIV PUSH1 0xFF AND SWAP1 DUP7 JUMP JUMPDEST PUSH1 0x9 SLOAD PUSH1 0xFF AND ISZERO PUSH2 0xABE JUMPI PUSH1 0x40 MLOAD PUSH3 0x461BCD PUSH1 0xE5 SHL DUP2 MSTORE PUSH1 0x4 ADD PUSH2 0x697 SWAP1 PUSH2 0x23AF JUMP JUMPDEST PUSH1 0x9 DUP1 SLOAD PUSH1 0xFF NOT AND PUSH1 0x1 OR SWAP1 SSTORE PUSH2 0xAD4 DUP3 PUSH2 0xBD5 JUMP JUMPDEST PUSH2 0xADD DUP3 PUSH2 0xBD5 JUMP JUMPDEST CALLER PUSH1 0x1 PUSH1 0x1 PUSH1 0xA0 SHL SUB DUP4 AND EQ DUP1 PUSH2 0xAFC JUMPI POP CALLER PUSH1 0x1 PUSH1 0x1 PUSH1 0xA0 SHL SUB DUP3 AND EQ JUMPDEST PUSH2 0xB59 JUMPI PUSH1 0x40 MLOAD PUSH3 0x461BCD PUSH1 0xE5 SHL DUP2 MSTORE PUSH1 0x20 PUSH1 0x4 DUP3 ADD MSTORE PUSH1 0x28 PUSH1 0x24 DUP3 ADD MSTORE PUSH32 0x53656E646572206973206E6F7420746865206F776E6572206F66206569746865 PUSH1 0x44 DUP3 ADD MSTORE PUSH8 0x1C881C1B185B995D PUSH1 0xC2 SHL PUSH1 0x64 DUP3 ADD MSTORE PUSH1 0x84 ADD PUSH2 0x697 JUMP JUMPDEST PUSH1 0x0 PUSH2 0xB64 DUP6 PUSH2 0xBD5 JUMP JUMPDEST SWAP1 POP PUSH1 0x0 PUSH2 0xB71 DUP6 PUSH2 0xBD5 JUMP JUMPDEST SWAP1 POP PUSH2 0xB7E DUP3 DUP3 DUP9 PUSH2 0x16F7 JUMP JUMPDEST PUSH2 0xB89 DUP2 DUP4 DUP8 PUSH2 0x16F7 JUMP JUMPDEST PUSH1 0x40 DUP1 MLOAD DUP8 DUP2 MSTORE PUSH1 0x20 DUP2 ADD DUP8 SWAP1 MSTORE PUSH32 0xC1ED4CFA438D7A1029245050DD6FAFD7955A34DBBE4DD540098B9A69CCDEB455 SWAP2 ADD JUMPDEST PUSH1 0x40 MLOAD DUP1 SWAP2 SUB SWAP1 LOG1 POP POP PUSH1 0x9 DUP1 SLOAD PUSH1 0xFF NOT AND SWAP1 SSTORE POP POP POP POP JUMP JUMPDEST PUSH1 0x0 PUSH2 0x5A4 DUP3 PUSH2 0x15B8 JUMP JUMPDEST PUSH1 0xB SLOAD PUSH1 0x60 SWAP1 PUSH1 0x0 DUP2 PUSH8 0xFFFFFFFFFFFFFFFF DUP2 GT ISZERO PUSH2 0xC01 JUMPI PUSH2 0xC01 PUSH2 0x21A6 JUMP JUMPDEST PUSH1 0x40 MLOAD SWAP1 DUP1 DUP3 MSTORE DUP1 PUSH1 0x20 MUL PUSH1 0x20 ADD DUP3 ADD PUSH1 0x40 MSTORE DUP1 ISZERO PUSH2 0xC3A JUMPI DUP2 PUSH1 0x20 ADD JUMPDEST PUSH2 0xC27 PUSH2 0x1E03 JUMP JUMPDEST DUP2 MSTORE PUSH1 0x20 ADD SWAP1 PUSH1 0x1 SWAP1 SUB SWAP1 DUP2 PUSH2 0xC1F JUMPI SWAP1 POP JUMPDEST POP SWAP1 POP PUSH1 0x0 JUMPDEST DUP3 DUP2 LT ISZERO PUSH2 0xE3A JUMPI PUSH1 0x0 PUSH1 0xB DUP3 DUP2 SLOAD DUP2 LT PUSH2 0xC5D JUMPI PUSH2 0xC5D PUSH2 0x241C JUMP JUMPDEST SWAP1 PUSH1 0x0 MSTORE PUSH1 0x20 PUSH1 0x0 KECCAK256 ADD SLOAD SWAP1 POP PUSH1 0xA PUSH1 0x0 DUP3 DUP2 MSTORE PUSH1 0x20 ADD SWAP1 DUP2 MSTORE PUSH1 0x20 ADD PUSH1 0x0 KECCAK256 PUSH1 0x40 MLOAD DUP1 PUSH1 0xC0 ADD PUSH1 0x40 MSTORE SWAP1 DUP2 PUSH1 0x0 DUP3 ADD DUP1 SLOAD PUSH2 0xC98 SWAP1 PUSH2 0x2375 JUMP JUMPDEST DUP1 PUSH1 0x1F ADD PUSH1 0x20 DUP1 SWAP2 DIV MUL PUSH1 0x20 ADD PUSH1 0x40 MLOAD SWAP1 DUP2 ADD PUSH1 0x40 MSTORE DUP1 SWAP3 SWAP2 SWAP1 DUP2 DUP2 MSTORE PUSH1 0x20 ADD DUP3 DUP1 SLOAD PUSH2 0xCC4 SWAP1 PUSH2 0x2375 JUMP JUMPDEST DUP1 ISZERO PUSH2 0xD11 JUMPI DUP1 PUSH1 0x1F LT PUSH2 0xCE6 JUMPI PUSH2 0x100 DUP1 DUP4 SLOAD DIV MUL DUP4 MSTORE SWAP2 PUSH1 0x20 ADD SWAP2 PUSH2 0xD11 JUMP JUMPDEST DUP3 ADD SWAP2 SWAP1 PUSH1 0x0 MSTORE PUSH1 0x20 PUSH1 0x0 KECCAK256 SWAP1 JUMPDEST DUP2 SLOAD DUP2 MSTORE SWAP1 PUSH1 0x1 ADD SWAP1 PUSH1 0x20 ADD DUP1 DUP4 GT PUSH2 0xCF4 JUMPI DUP3 SWAP1 SUB PUSH1 0x1F AND DUP3 ADD SWAP2 JUMPDEST POP POP POP POP POP DUP2 MSTORE PUSH1 0x20 ADD PUSH1 0x1 DUP3 ADD DUP1 SLOAD PUSH2 0xD2A SWAP1 PUSH2 0x2375 JUMP JUMPDEST DUP1 PUSH1 0x1F ADD PUSH1 0x20 DUP1 SWAP2 DIV MUL PUSH1 0x20 ADD PUSH1 0x40 MLOAD SWAP1 DUP2 ADD PUSH1 0x40 MSTORE DUP1 SWAP3 SWAP2 SWAP1 DUP2 DUP2 MSTORE PUSH1 0x20 ADD DUP3 DUP1 SLOAD PUSH2 0xD56 SWAP1 PUSH2 0x2375 JUMP JUMPDEST DUP1 ISZERO PUSH2 0xDA3 JUMPI DUP1 PUSH1 0x1F LT PUSH2 0xD78 JUMPI PUSH2 0x100 DUP1 DUP4 SLOAD DIV MUL DUP4 MSTORE SWAP2 PUSH1 0x20 ADD SWAP2 PUSH2 0xDA3 JUMP JUMPDEST DUP3 ADD SWAP2 SWAP1 PUSH1 0x0 MSTORE PUSH1 0x20 PUSH1 0x0 KECCAK256 SWAP1 JUMPDEST DUP2 SLOAD DUP2 MSTORE SWAP1 PUSH1 0x1 ADD SWAP1 PUSH1 0x20 ADD DUP1 DUP4 GT PUSH2 0xD86 JUMPI DUP3 SWAP1 SUB PUSH1 0x1F AND DUP3 ADD SWAP2 JUMPDEST POP POP POP SWAP2 DUP4 MSTORE POP POP PUSH1 0x2 DUP3 ADD SLOAD PUSH1 0x20 DUP3 ADD MSTORE PUSH1 0x3 DUP3 ADD SLOAD PUSH1 0x1 PUSH1 0x1 PUSH1 0xA0 SHL SUB DUP2 AND PUSH1 0x40 DUP4 ADD MSTORE PUSH1 0x60 SWAP1 SWAP2 ADD SWAP1 PUSH1 0x1 PUSH1 0xA0 SHL SWAP1 DIV PUSH1 0xFF AND PUSH1 0x1 DUP2 GT ISZERO PUSH2 0xDEA JUMPI PUSH2 0xDEA PUSH2 0x1FBF JUMP JUMPDEST PUSH1 0x1 DUP2 GT ISZERO PUSH2 0xDFB JUMPI PUSH2 0xDFB PUSH2 0x1FBF JUMP JUMPDEST DUP2 MSTORE PUSH1 0x20 ADD PUSH1 0x4 DUP3 ADD SLOAD DUP2 MSTORE POP POP DUP4 DUP4 DUP2 MLOAD DUP2 LT PUSH2 0xE1B JUMPI PUSH2 0xE1B PUSH2 0x241C JUMP JUMPDEST PUSH1 0x20 MUL PUSH1 0x20 ADD ADD DUP2 SWAP1 MSTORE POP POP DUP1 DUP1 PUSH2 0xE32 SWAP1 PUSH2 0x2448 JUMP JUMPDEST SWAP2 POP POP PUSH2 0xC40 JUMP JUMPDEST POP SWAP3 SWAP2 POP POP JUMP JUMPDEST PUSH1 0x0 PUSH1 0x1 PUSH1 0x1 PUSH1 0xA0 SHL SUB DUP3 AND PUSH2 0xE6D JUMPI PUSH1 0x40 MLOAD PUSH4 0x22718AD9 PUSH1 0xE2 SHL DUP2 MSTORE PUSH1 0x0 PUSH1 0x4 DUP3 ADD MSTORE PUSH1 0x24 ADD PUSH2 0x697 JUMP JUMPDEST POP PUSH1 0x1 PUSH1 0x1 PUSH1 0xA0 SHL SUB AND PUSH1 0x0 SWAP1 DUP2 MSTORE PUSH1 0x3 PUSH1 0x20 MSTORE PUSH1 0x40 SWAP1 KECCAK256 SLOAD SWAP1 JUMP JUMPDEST PUSH2 0xE91 PUSH2 0x17E2 JUMP JUMPDEST PUSH2 0xE9B PUSH1 0x0 PUSH2 0x180F JUMP JUMPDEST JUMP JUMPDEST PUSH1 0x60 PUSH1 0x1 DUP1 SLOAD PUSH2 0x5B9 SWAP1 PUSH2 0x2375 JUMP JUMPDEST PUSH1 0x60 DUP1 PUSH1 0x0 DUP1 PUSH1 0xA PUSH1 0x0 DUP7 DUP2 MSTORE PUSH1 0x20 ADD SWAP1 DUP2 MSTORE PUSH1 0x20 ADD PUSH1 0x0 KECCAK256 PUSH1 0x40 MLOAD DUP1 PUSH1 0xC0 ADD PUSH1 0x40 MSTORE SWAP1 DUP2 PUSH1 0x0 DUP3 ADD DUP1 SLOAD PUSH2 0xEE0 SWAP1 PUSH2 0x2375 JUMP JUMPDEST DUP1 PUSH1 0x1F ADD PUSH1 0x20 DUP1 SWAP2 DIV MUL PUSH1 0x20 ADD PUSH1 0x40 MLOAD SWAP1 DUP2 ADD PUSH1 0x40 MSTORE DUP1 SWAP3 SWAP2 SWAP1 DUP2 DUP2 MSTORE PUSH1 0x20 ADD DUP3 DUP1 SLOAD PUSH2 0xF0C SWAP1 PUSH2 0x2375 JUMP JUMPDEST DUP1 ISZERO PUSH2 0xF59 JUMPI DUP1 PUSH1 0x1F LT PUSH2 0xF2E JUMPI PUSH2 0x100 DUP1 DUP4 SLOAD DIV MUL DUP4 MSTORE SWAP2 PUSH1 0x20 ADD SWAP2 PUSH2 0xF59 JUMP JUMPDEST DUP3 ADD SWAP2 SWAP1 PUSH1 0x0 MSTORE PUSH1 0x20 PUSH1 0x0 KECCAK256 SWAP1 JUMPDEST DUP2 SLOAD DUP2 MSTORE SWAP1 PUSH1 0x1 ADD SWAP1 PUSH1 0x20 ADD DUP1 DUP4 GT PUSH2 0xF3C JUMPI DUP3 SWAP1 SUB PUSH1 0x1F AND DUP3 ADD SWAP2 JUMPDEST POP POP POP POP POP DUP2 MSTORE PUSH1 0x20 ADD PUSH1 0x1 DUP3 ADD DUP1 SLOAD PUSH2 0xF72 SWAP1 PUSH2 0x2375 JUMP JUMPDEST DUP1 PUSH1 0x1F ADD PUSH1 0x20 DUP1 SWAP2 DIV MUL PUSH1 0x20 ADD PUSH1 0x40 MLOAD SWAP1 DUP2 ADD PUSH1 0x40 MSTORE DUP1 SWAP3 SWAP2 SWAP1 DUP2 DUP2 MSTORE PUSH1 0x20 ADD DUP3 DUP1 SLOAD PUSH2 0xF9E SWAP1 PUSH2 0x2375 JUMP JUMPDEST DUP1 ISZERO PUSH2 0xFEB JUMPI DUP1 PUSH1 0x1F LT PUSH2 0xFC0 JUMPI PUSH2 0x100 DUP1 DUP4 SLOAD DIV MUL DUP4 MSTORE SWAP2 PUSH1 0x20 ADD SWAP2 PUSH2 0xFEB JUMP JUMPDEST DUP3 ADD SWAP2 SWAP1 PUSH1 0x0 MSTORE PUSH1 0x20 PUSH1 0x0 KECCAK256 SWAP1 JUMPDEST DUP2 SLOAD DUP2 MSTORE SWAP1 PUSH1 0x1 ADD SWAP1 PUSH1 0x20 ADD DUP1 DUP4 GT PUSH2 0xFCE JUMPI DUP3 SWAP1 SUB PUSH1 0x1F AND DUP3 ADD SWAP2 JUMPDEST POP POP POP SWAP2 DUP4 MSTORE POP POP PUSH1 0x2 DUP3 ADD SLOAD PUSH1 0x20 DUP3 ADD MSTORE PUSH1 0x3 DUP3 ADD SLOAD PUSH1 0x1 PUSH1 0x1 PUSH1 0xA0 SHL SUB DUP2 AND PUSH1 0x40 DUP4 ADD MSTORE PUSH1 0x60 SWAP1 SWAP2 ADD SWAP1 PUSH1 0x1 PUSH1 0xA0 SHL SWAP1 DIV PUSH1 0xFF AND PUSH1 0x1 DUP2 GT ISZERO PUSH2 0x1032 JUMPI PUSH2 0x1032 PUSH2 0x1FBF JUMP JUMPDEST PUSH1 0x1 DUP2 GT ISZERO PUSH2 0x1043 JUMPI PUSH2 0x1043 PUSH2 0x1FBF JUMP JUMPDEST DUP2 MSTORE PUSH1 0x4 SWAP2 SWAP1 SWAP2 ADD SLOAD PUSH1 0x20 SWAP2 DUP3 ADD MSTORE DUP2 MLOAD SWAP1 DUP3 ADD MLOAD PUSH1 0x40 SWAP1 SWAP3 ADD MLOAD SWAP1 SWAP8 SWAP2 SWAP7 POP SWAP5 POP SWAP3 POP POP POP JUMP JUMPDEST PUSH2 0x670 CALLER DUP4 DUP4 PUSH2 0x1861 JUMP JUMPDEST PUSH1 0x8 DUP1 SLOAD PUSH2 0x1083 SWAP1 PUSH2 0x2375 JUMP JUMPDEST DUP1 PUSH1 0x1F ADD PUSH1 0x20 DUP1 SWAP2 DIV MUL PUSH1 0x20 ADD PUSH1 0x40 MLOAD SWAP1 DUP2 ADD PUSH1 0x40 MSTORE DUP1 SWAP3 SWAP2 SWAP1 DUP2 DUP2 MSTORE PUSH1 0x20 ADD DUP3 DUP1 SLOAD PUSH2 0x10AF SWAP1 PUSH2 0x2375 JUMP JUMPDEST DUP1 ISZERO PUSH2 0x10FC JUMPI DUP1 PUSH1 0x1F LT PUSH2 0x10D1 JUMPI PUSH2 0x100 DUP1 DUP4 SLOAD DIV MUL DUP4 MSTORE SWAP2 PUSH1 0x20 ADD SWAP2 PUSH2 0x10FC JUMP JUMPDEST DUP3 ADD SWAP2 SWAP1 PUSH1 0x0 MSTORE PUSH1 0x20 PUSH1 0x0 KECCAK256 SWAP1 JUMPDEST DUP2 SLOAD DUP2 MSTORE SWAP1 PUSH1 0x1 ADD SWAP1 PUSH1 0x20 ADD DUP1 DUP4 GT PUSH2 0x10DF JUMPI DUP3 SWAP1 SUB PUSH1 0x1F AND DUP3 ADD SWAP2 JUMPDEST POP POP POP POP POP DUP2 JUMP JUMPDEST PUSH2 0x110F DUP5 DUP5 DUP5 PUSH2 0x745 JUMP JUMPDEST PUSH2 0x7CA DUP5 DUP5 DUP5 DUP5 PUSH2 0x1900 JUMP JUMPDEST PUSH2 0x1123 PUSH2 0x17E2 JUMP JUMPDEST PUSH1 0x6 SLOAD PUSH1 0x1 PUSH1 0x1 PUSH1 0xA0 SHL SUB AND SELFDESTRUCT JUMPDEST PUSH1 0x60 PUSH2 0x113C DUP3 PUSH2 0x15B8 JUMP JUMPDEST POP PUSH1 0x0 PUSH2 0x1154 PUSH1 0x40 DUP1 MLOAD PUSH1 0x20 DUP2 ADD SWAP1 SWAP2 MSTORE PUSH1 0x0 DUP2 MSTORE SWAP1 JUMP JUMPDEST SWAP1 POP PUSH1 0x0 DUP2 MLOAD GT PUSH2 0x1174 JUMPI PUSH1 0x40 MLOAD DUP1 PUSH1 0x20 ADD PUSH1 0x40 MSTORE DUP1 PUSH1 0x0 DUP2 MSTORE POP PUSH2 0x119F JUMP JUMPDEST DUP1 PUSH2 0x117E DUP5 PUSH2 0x1A29 JUMP JUMPDEST PUSH1 0x40 MLOAD PUSH1 0x20 ADD PUSH2 0x118F SWAP3 SWAP2 SWAP1 PUSH2 0x2461 JUMP JUMPDEST PUSH1 0x40 MLOAD PUSH1 0x20 DUP2 DUP4 SUB SUB DUP2 MSTORE SWAP1 PUSH1 0x40 MSTORE JUMPDEST SWAP4 SWAP3 POP POP POP JUMP JUMPDEST PUSH1 0x9 SLOAD PUSH1 0xFF AND ISZERO PUSH2 0x11C9 JUMPI PUSH1 0x40 MLOAD PUSH3 0x461BCD PUSH1 0xE5 SHL DUP2 MSTORE PUSH1 0x4 ADD PUSH2 0x697 SWAP1 PUSH2 0x23AF JUMP JUMPDEST PUSH1 0x9 DUP1 SLOAD PUSH1 0xFF NOT AND PUSH1 0x1 SWAP1 DUP2 OR SWAP1 SWAP2 SSTORE PUSH1 0x40 DUP1 MLOAD PUSH1 0xC0 DUP2 ADD DUP3 MSTORE DUP7 DUP2 MSTORE PUSH1 0x20 DUP1 DUP3 ADD DUP8 SWAP1 MSTORE DUP2 DUP4 ADD DUP7 SWAP1 MSTORE CALLER PUSH1 0x60 DUP4 ADD MSTORE PUSH1 0x80 DUP3 ADD SWAP4 SWAP1 SWAP4 MSTORE PUSH1 0x0 PUSH1 0xA0 DUP3 ADD DUP2 SWAP1 MSTORE DUP5 DUP2 MSTORE PUSH1 0xA SWAP1 SWAP4 MSTORE SWAP2 KECCAK256 DUP2 MLOAD DUP3 SWAP2 SWAP1 DUP2 SWAP1 PUSH2 0x1226 SWAP1 DUP3 PUSH2 0x24DE JUMP JUMPDEST POP PUSH1 0x20 DUP3 ADD MLOAD PUSH1 0x1 DUP3 ADD SWAP1 PUSH2 0x123B SWAP1 DUP3 PUSH2 0x24DE JUMP JUMPDEST POP PUSH1 0x40 DUP3 ADD MLOAD PUSH1 0x2 DUP3 ADD SSTORE PUSH1 0x60 DUP3 ADD MLOAD PUSH1 0x3 DUP3 ADD DUP1 SLOAD PUSH1 0x1 PUSH1 0x1 PUSH1 0xA0 SHL SUB SWAP1 SWAP3 AND PUSH1 0x1 PUSH1 0x1 PUSH1 0xA0 SHL SUB NOT DUP4 AND DUP2 OR DUP3 SSTORE PUSH1 0x80 DUP6 ADD MLOAD SWAP3 PUSH1 0x1 PUSH1 0x1 PUSH1 0xA8 SHL SUB NOT AND OR PUSH1 0x1 PUSH1 0xA0 SHL DUP4 PUSH1 0x1 DUP2 GT ISZERO PUSH2 0x1293 JUMPI PUSH2 0x1293 PUSH2 0x1FBF JUMP JUMPDEST MUL OR SWAP1 SSTORE POP PUSH1 0xA0 SWAP2 SWAP1 SWAP2 ADD MLOAD PUSH1 0x4 SWAP1 SWAP2 ADD SSTORE PUSH1 0xB DUP1 SLOAD PUSH1 0x1 DUP2 ADD DUP3 SSTORE PUSH1 0x0 SWAP2 SWAP1 SWAP2 MSTORE PUSH32 0x175B7A638427703F0DBE7BB9BBF987A2551717B34E79F33B5B1008D1FA01DB9 ADD DUP3 SWAP1 SSTORE PUSH2 0x12E4 CALLER DUP4 PUSH2 0x1ABC JUMP JUMPDEST PUSH1 0x40 MLOAD DUP3 DUP2 MSTORE PUSH32 0x6ACBFB32BCF8383F3B0A768B70AC9EC234EA0F2D3B9C77FA6A2DE69B919AAD1 SWAP1 PUSH1 0x20 ADD PUSH1 0x40 MLOAD DUP1 SWAP2 SUB SWAP1 LOG1 POP POP PUSH1 0x9 DUP1 SLOAD PUSH1 0xFF NOT AND SWAP1 SSTORE POP POP POP JUMP JUMPDEST PUSH1 0x7 DUP1 SLOAD PUSH2 0x1083 SWAP1 PUSH2 0x2375 JUMP JUMPDEST PUSH1 0x9 SLOAD PUSH1 0xFF AND ISZERO PUSH2 0x1358 JUMPI PUSH1 0x40 MLOAD PUSH3 0x461BCD PUSH1 0xE5 SHL DUP2 MSTORE PUSH1 0x4 ADD PUSH2 0x697 SWAP1 PUSH2 0x23AF JUMP JUMPDEST PUSH1 0x9 DUP1 SLOAD PUSH1 0xFF NOT AND PUSH1 0x1 OR SWAP1 SSTORE DUP1 PUSH1 0x0 DUP1 DUP3 DUP2 MSTORE PUSH1 0xA PUSH1 0x20 MSTORE PUSH1 0x40 SWAP1 KECCAK256 PUSH1 0x3 ADD SLOAD PUSH1 0x1 PUSH1 0xA0 SHL SWAP1 DIV PUSH1 0xFF AND PUSH1 0x1 DUP2 GT ISZERO PUSH2 0x1394 JUMPI PUSH2 0x1394 PUSH2 0x1FBF JUMP JUMPDEST EQ PUSH2 0x13E1 JUMPI PUSH1 0x40 MLOAD PUSH3 0x461BCD PUSH1 0xE5 SHL DUP2 MSTORE PUSH1 0x20 PUSH1 0x4 DUP3 ADD DUP2 SWAP1 MSTORE PUSH1 0x24 DUP3 ADD MSTORE PUSH32 0x54686520706C616E65742073686F756C6420626520757020666F722073616C65 PUSH1 0x44 DUP3 ADD MSTORE PUSH1 0x64 ADD PUSH2 0x697 JUMP JUMPDEST PUSH1 0x0 DUP3 DUP2 MSTORE PUSH1 0xA PUSH1 0x20 MSTORE PUSH1 0x40 SWAP1 KECCAK256 PUSH1 0x4 ADD SLOAD DUP3 SWAP1 CALLVALUE LT ISZERO PUSH2 0x1444 JUMPI PUSH1 0x40 MLOAD PUSH3 0x461BCD PUSH1 0xE5 SHL DUP2 MSTORE PUSH1 0x20 PUSH1 0x4 DUP3 ADD MSTORE PUSH1 0x1D PUSH1 0x24 DUP3 ADD MSTORE PUSH32 0x596F75206E65656420746F2073656E6420656E6F756768204574686572000000 PUSH1 0x44 DUP3 ADD MSTORE PUSH1 0x64 ADD PUSH2 0x697 JUMP JUMPDEST PUSH1 0x0 DUP4 DUP2 MSTORE PUSH1 0xA PUSH1 0x20 MSTORE PUSH1 0x40 DUP2 KECCAK256 PUSH1 0x4 ADD SLOAD SWAP1 PUSH2 0x1460 DUP6 PUSH2 0xBD5 JUMP JUMPDEST SWAP1 POP PUSH2 0x146D DUP2 CALLER DUP8 PUSH2 0x16F7 JUMP JUMPDEST PUSH1 0x40 MLOAD DUP2 SWAP1 PUSH1 0x1 PUSH1 0x1 PUSH1 0xA0 SHL SUB DUP3 AND SWAP1 DUP5 ISZERO PUSH2 0x8FC MUL SWAP1 DUP6 SWAP1 PUSH1 0x0 DUP2 DUP2 DUP2 DUP6 DUP9 DUP9 CALL SWAP4 POP POP POP POP ISZERO DUP1 ISZERO PUSH2 0x14A5 JUMPI RETURNDATASIZE PUSH1 0x0 DUP1 RETURNDATACOPY RETURNDATASIZE PUSH1 0x0 REVERT JUMPDEST POP DUP3 CALLVALUE GT ISZERO PUSH2 0x14E6 JUMPI CALLER PUSH2 0x8FC PUSH2 0x14BC DUP6 CALLVALUE PUSH2 0x259E JUMP JUMPDEST PUSH1 0x40 MLOAD DUP2 ISZERO SWAP1 SWAP3 MUL SWAP2 PUSH1 0x0 DUP2 DUP2 DUP2 DUP6 DUP9 DUP9 CALL SWAP4 POP POP POP POP ISZERO DUP1 ISZERO PUSH2 0x14E4 JUMPI RETURNDATASIZE PUSH1 0x0 DUP1 RETURNDATACOPY RETURNDATASIZE PUSH1 0x0 REVERT JUMPDEST POP JUMPDEST PUSH1 0x0 DUP7 DUP2 MSTORE PUSH1 0xA PUSH1 0x20 SWAP1 DUP2 MSTORE PUSH1 0x40 DUP1 DUP4 KECCAK256 PUSH1 0x3 DUP2 ADD DUP1 SLOAD PUSH1 0x1 PUSH1 0x1 PUSH1 0xA8 SHL SUB NOT AND CALLER PUSH1 0xFF PUSH1 0xA0 SHL NOT AND OR PUSH1 0x1 PUSH1 0xA0 SHL OR SWAP1 SSTORE PUSH1 0x4 ADD SWAP3 SWAP1 SWAP3 SSTORE SWAP1 MLOAD DUP8 DUP2 MSTORE PUSH32 0x92F64CA637D023F354075A4BE751B169C1A8A9CCB6D33CDD0CB3520543995727 SWAP2 ADD PUSH2 0xBBB JUMP JUMPDEST PUSH1 0x1 PUSH1 0x1 PUSH1 0xA0 SHL SUB SWAP2 DUP3 AND PUSH1 0x0 SWAP1 DUP2 MSTORE PUSH1 0x5 PUSH1 0x20 SWAP1 DUP2 MSTORE PUSH1 0x40 DUP1 DUP4 KECCAK256 SWAP4 SWAP1 SWAP5 AND DUP3 MSTORE SWAP2 SWAP1 SWAP2 MSTORE KECCAK256 SLOAD PUSH1 0xFF AND SWAP1 JUMP JUMPDEST PUSH2 0x1582 PUSH2 0x17E2 JUMP JUMPDEST PUSH1 0x1 PUSH1 0x1 PUSH1 0xA0 SHL SUB DUP2 AND PUSH2 0x15AC JUMPI PUSH1 0x40 MLOAD PUSH4 0x1E4FBDF7 PUSH1 0xE0 SHL DUP2 MSTORE PUSH1 0x0 PUSH1 0x4 DUP3 ADD MSTORE PUSH1 0x24 ADD PUSH2 0x697 JUMP JUMPDEST PUSH2 0x15B5 DUP2 PUSH2 0x180F JUMP JUMPDEST POP JUMP JUMPDEST PUSH1 0x0 DUP2 DUP2 MSTORE PUSH1 0x2 PUSH1 0x20 MSTORE PUSH1 0x40 DUP2 KECCAK256 SLOAD PUSH1 0x1 PUSH1 0x1 PUSH1 0xA0 SHL SUB AND DUP1 PUSH2 0x5A4 JUMPI PUSH1 0x40 MLOAD PUSH4 0x7E273289 PUSH1 0xE0 SHL DUP2 MSTORE PUSH1 0x4 DUP2 ADD DUP5 SWAP1 MSTORE PUSH1 0x24 ADD PUSH2 0x697 JUMP JUMPDEST PUSH2 0x887 DUP4 DUP4 DUP4 PUSH1 0x1 PUSH2 0x1B21 JUMP JUMPDEST PUSH1 0x0 DUP3 DUP2 MSTORE PUSH1 0x2 PUSH1 0x20 MSTORE PUSH1 0x40 DUP2 KECCAK256 SLOAD PUSH1 0x1 PUSH1 0x1 PUSH1 0xA0 SHL SUB SWAP1 DUP2 AND SWAP1 DUP4 AND ISZERO PUSH2 0x162B JUMPI PUSH2 0x162B DUP2 DUP5 DUP7 PUSH2 0x1C27 JUMP JUMPDEST PUSH1 0x1 PUSH1 0x1 PUSH1 0xA0 SHL SUB DUP2 AND ISZERO PUSH2 0x1669 JUMPI PUSH2 0x1648 PUSH1 0x0 DUP6 PUSH1 0x0 DUP1 PUSH2 0x1B21 JUMP JUMPDEST PUSH1 0x1 PUSH1 0x1 PUSH1 0xA0 SHL SUB DUP2 AND PUSH1 0x0 SWAP1 DUP2 MSTORE PUSH1 0x3 PUSH1 0x20 MSTORE PUSH1 0x40 SWAP1 KECCAK256 DUP1 SLOAD PUSH1 0x0 NOT ADD SWAP1 SSTORE JUMPDEST PUSH1 0x1 PUSH1 0x1 PUSH1 0xA0 SHL SUB DUP6 AND ISZERO PUSH2 0x1698 JUMPI PUSH1 0x1 PUSH1 0x1 PUSH1 0xA0 SHL SUB DUP6 AND PUSH1 0x0 SWAP1 DUP2 MSTORE PUSH1 0x3 PUSH1 0x20 MSTORE PUSH1 0x40 SWAP1 KECCAK256 DUP1 SLOAD PUSH1 0x1 ADD SWAP1 SSTORE JUMPDEST PUSH1 0x0 DUP5 DUP2 MSTORE PUSH1 0x2 PUSH1 0x20 MSTORE PUSH1 0x40 DUP1 DUP3 KECCAK256 DUP1 SLOAD PUSH1 0x1 PUSH1 0x1 PUSH1 0xA0 SHL SUB NOT AND PUSH1 0x1 PUSH1 0x1 PUSH1 0xA0 SHL SUB DUP10 DUP2 AND SWAP2 DUP3 OR SWAP1 SWAP3 SSTORE SWAP2 MLOAD DUP8 SWAP4 SWAP2 DUP6 AND SWAP2 PUSH32 0xDDF252AD1BE2C89B69C2B068FC378DAA952BA7F163C4A11628F55A4DF523B3EF SWAP2 LOG4 SWAP5 SWAP4 POP POP POP POP JUMP JUMPDEST PUSH1 0x1 PUSH1 0x1 PUSH1 0xA0 SHL SUB DUP3 AND PUSH2 0x1721 JUMPI PUSH1 0x40 MLOAD PUSH4 0x32505749 PUSH1 0xE1 SHL DUP2 MSTORE PUSH1 0x0 PUSH1 0x4 DUP3 ADD MSTORE PUSH1 0x24 ADD PUSH2 0x697 JUMP JUMPDEST PUSH1 0x0 PUSH2 0x172F DUP4 DUP4 PUSH1 0x0 PUSH2 0x15FE JUMP JUMPDEST SWAP1 POP PUSH1 0x1 PUSH1 0x1 PUSH1 0xA0 SHL SUB DUP2 AND PUSH2 0x175B JUMPI PUSH1 0x40 MLOAD PUSH4 0x7E273289 PUSH1 0xE0 SHL DUP2 MSTORE PUSH1 0x4 DUP2 ADD DUP4 SWAP1 MSTORE PUSH1 0x24 ADD PUSH2 0x697 JUMP JUMPDEST DUP4 PUSH1 0x1 PUSH1 0x1 PUSH1 0xA0 SHL SUB AND DUP2 PUSH1 0x1 PUSH1 0x1 PUSH1 0xA0 SHL SUB AND EQ PUSH2 0x7CA JUMPI PUSH1 0x40 MLOAD PUSH4 0x64283D7B PUSH1 0xE0 SHL DUP2 MSTORE PUSH1 0x1 PUSH1 0x1 PUSH1 0xA0 SHL SUB DUP1 DUP7 AND PUSH1 0x4 DUP4 ADD MSTORE PUSH1 0x24 DUP3 ADD DUP5 SWAP1 MSTORE DUP3 AND PUSH1 0x44 DUP3 ADD MSTORE PUSH1 0x64 ADD PUSH2 0x697 JUMP JUMPDEST PUSH1 0x0 PUSH2 0x17B6 PUSH1 0x0 DUP4 PUSH1 0x0 PUSH2 0x15FE JUMP JUMPDEST SWAP1 POP PUSH1 0x1 PUSH1 0x1 PUSH1 0xA0 SHL SUB DUP2 AND PUSH2 0x670 JUMPI PUSH1 0x40 MLOAD PUSH4 0x7E273289 PUSH1 0xE0 SHL DUP2 MSTORE PUSH1 0x4 DUP2 ADD DUP4 SWAP1 MSTORE PUSH1 0x24 ADD PUSH2 0x697 JUMP JUMPDEST PUSH1 0x6 SLOAD PUSH1 0x1 PUSH1 0x1 PUSH1 0xA0 SHL SUB AND CALLER EQ PUSH2 0xE9B JUMPI PUSH1 0x40 MLOAD PUSH4 0x118CDAA7 PUSH1 0xE0 SHL DUP2 MSTORE CALLER PUSH1 0x4 DUP3 ADD MSTORE PUSH1 0x24 ADD PUSH2 0x697 JUMP JUMPDEST PUSH1 0x6 DUP1 SLOAD PUSH1 0x1 PUSH1 0x1 PUSH1 0xA0 SHL SUB DUP4 DUP2 AND PUSH1 0x1 PUSH1 0x1 PUSH1 0xA0 SHL SUB NOT DUP4 AND DUP2 OR SWAP1 SWAP4 SSTORE PUSH1 0x40 MLOAD SWAP2 AND SWAP2 SWAP1 DUP3 SWAP1 PUSH32 0x8BE0079C531659141344CD1FD0A4F28419497F9722A3DAAFE3B4186F6B6457E0 SWAP1 PUSH1 0x0 SWAP1 LOG3 POP POP JUMP JUMPDEST PUSH1 0x1 PUSH1 0x1 PUSH1 0xA0 SHL SUB DUP3 AND PUSH2 0x1893 JUMPI PUSH1 0x40 MLOAD PUSH4 0xB611743 PUSH1 0xE3 SHL DUP2 MSTORE PUSH1 0x1 PUSH1 0x1 PUSH1 0xA0 SHL SUB DUP4 AND PUSH1 0x4 DUP3 ADD MSTORE PUSH1 0x24 ADD PUSH2 0x697 JUMP JUMPDEST PUSH1 0x1 PUSH1 0x1 PUSH1 0xA0 SHL SUB DUP4 DUP2 AND PUSH1 0x0 DUP2 DUP2 MSTORE PUSH1 0x5 PUSH1 0x20 SWAP1 DUP2 MSTORE PUSH1 0x40 DUP1 DUP4 KECCAK256 SWAP5 DUP8 AND DUP1 DUP5 MSTORE SWAP5 DUP3 MSTORE SWAP2 DUP3 SWAP1 KECCAK256 DUP1 SLOAD PUSH1 0xFF NOT AND DUP7 ISZERO ISZERO SWAP1 DUP2 OR SWAP1 SWAP2 SSTORE SWAP2 MLOAD SWAP2 DUP3 MSTORE PUSH32 0x17307EAB39AB6107E8899845AD3D59BD9653F200F220920489CA2B5937696C31 SWAP2 ADD PUSH1 0x40 MLOAD DUP1 SWAP2 SUB SWAP1 LOG3 POP POP POP JUMP JUMPDEST PUSH1 0x1 PUSH1 0x1 PUSH1 0xA0 SHL SUB DUP4 AND EXTCODESIZE ISZERO PUSH2 0x7CA JUMPI PUSH1 0x40 MLOAD PUSH4 0xA85BD01 PUSH1 0xE1 SHL DUP2 MSTORE PUSH1 0x1 PUSH1 0x1 PUSH1 0xA0 SHL SUB DUP5 AND SWAP1 PUSH4 0x150B7A02 SWAP1 PUSH2 0x1942 SWAP1 CALLER SWAP1 DUP9 SWAP1 DUP8 SWAP1 DUP8 SWAP1 PUSH1 0x4 ADD PUSH2 0x25B1 JUMP JUMPDEST PUSH1 0x20 PUSH1 0x40 MLOAD DUP1 DUP4 SUB DUP2 PUSH1 0x0 DUP8 GAS CALL SWAP3 POP POP POP DUP1 ISZERO PUSH2 0x197D JUMPI POP PUSH1 0x40 DUP1 MLOAD PUSH1 0x1F RETURNDATASIZE SWAP1 DUP2 ADD PUSH1 0x1F NOT AND DUP3 ADD SWAP1 SWAP3 MSTORE PUSH2 0x197A SWAP2 DUP2 ADD SWAP1 PUSH2 0x25EE JUMP JUMPDEST PUSH1 0x1 JUMPDEST PUSH2 0x19E6 JUMPI RETURNDATASIZE DUP1 DUP1 ISZERO PUSH2 0x19AB JUMPI PUSH1 0x40 MLOAD SWAP2 POP PUSH1 0x1F NOT PUSH1 0x3F RETURNDATASIZE ADD AND DUP3 ADD PUSH1 0x40 MSTORE RETURNDATASIZE DUP3 MSTORE RETURNDATASIZE PUSH1 0x0 PUSH1 0x20 DUP5 ADD RETURNDATACOPY PUSH2 0x19B0 JUMP JUMPDEST PUSH1 0x60 SWAP2 POP JUMPDEST POP DUP1 MLOAD PUSH1 0x0 SUB PUSH2 0x19DE JUMPI PUSH1 0x40 MLOAD PUSH4 0x32505749 PUSH1 0xE1 SHL DUP2 MSTORE PUSH1 0x1 PUSH1 0x1 PUSH1 0xA0 SHL SUB DUP6 AND PUSH1 0x4 DUP3 ADD MSTORE PUSH1 0x24 ADD PUSH2 0x697 JUMP JUMPDEST DUP1 MLOAD DUP2 PUSH1 0x20 ADD REVERT JUMPDEST PUSH1 0x1 PUSH1 0x1 PUSH1 0xE0 SHL SUB NOT DUP2 AND PUSH4 0xA85BD01 PUSH1 0xE1 SHL EQ PUSH2 0x1A22 JUMPI PUSH1 0x40 MLOAD PUSH4 0x32505749 PUSH1 0xE1 SHL DUP2 MSTORE PUSH1 0x1 PUSH1 0x1 PUSH1 0xA0 SHL SUB DUP6 AND PUSH1 0x4 DUP3 ADD MSTORE PUSH1 0x24 ADD PUSH2 0x697 JUMP JUMPDEST POP POP POP POP POP JUMP JUMPDEST PUSH1 0x60 PUSH1 0x0 PUSH2 0x1A36 DUP4 PUSH2 0x1C8B JUMP JUMPDEST PUSH1 0x1 ADD SWAP1 POP PUSH1 0x0 DUP2 PUSH8 0xFFFFFFFFFFFFFFFF DUP2 GT ISZERO PUSH2 0x1A56 JUMPI PUSH2 0x1A56 PUSH2 0x21A6 JUMP JUMPDEST PUSH1 0x40 MLOAD SWAP1 DUP1 DUP3 MSTORE DUP1 PUSH1 0x1F ADD PUSH1 0x1F NOT AND PUSH1 0x20 ADD DUP3 ADD PUSH1 0x40 MSTORE DUP1 ISZERO PUSH2 0x1A80 JUMPI PUSH1 0x20 DUP3 ADD DUP2 DUP1 CALLDATASIZE DUP4 CALLDATACOPY ADD SWAP1 POP JUMPDEST POP SWAP1 POP DUP2 DUP2 ADD PUSH1 0x20 ADD JUMPDEST PUSH1 0x0 NOT ADD PUSH16 0x181899199A1A9B1B9C1CB0B131B232B3 PUSH1 0x81 SHL PUSH1 0xA DUP7 MOD BYTE DUP2 MSTORE8 PUSH1 0xA DUP6 DIV SWAP5 POP DUP5 PUSH2 0x1A8A JUMPI POP SWAP4 SWAP3 POP POP POP JUMP JUMPDEST PUSH1 0x1 PUSH1 0x1 PUSH1 0xA0 SHL SUB DUP3 AND PUSH2 0x1AE6 JUMPI PUSH1 0x40 MLOAD PUSH4 0x32505749 PUSH1 0xE1 SHL DUP2 MSTORE PUSH1 0x0 PUSH1 0x4 DUP3 ADD MSTORE PUSH1 0x24 ADD PUSH2 0x697 JUMP JUMPDEST PUSH1 0x0 PUSH2 0x1AF4 DUP4 DUP4 PUSH1 0x0 PUSH2 0x15FE JUMP JUMPDEST SWAP1 POP PUSH1 0x1 PUSH1 0x1 PUSH1 0xA0 SHL SUB DUP2 AND ISZERO PUSH2 0x887 JUMPI PUSH1 0x40 MLOAD PUSH4 0x39E35637 PUSH1 0xE1 SHL DUP2 MSTORE PUSH1 0x0 PUSH1 0x4 DUP3 ADD MSTORE PUSH1 0x24 ADD PUSH2 0x697 JUMP JUMPDEST DUP1 DUP1 PUSH2 0x1B35 JUMPI POP PUSH1 0x1 PUSH1 0x1 PUSH1 0xA0 SHL SUB DUP3 AND ISZERO ISZERO JUMPDEST ISZERO PUSH2 0x1BF7 JUMPI PUSH1 0x0 PUSH2 0x1B45 DUP5 PUSH2 0x15B8 JUMP JUMPDEST SWAP1 POP PUSH1 0x1 PUSH1 0x1 PUSH1 0xA0 SHL SUB DUP4 AND ISZERO DUP1 ISZERO SWAP1 PUSH2 0x1B71 JUMPI POP DUP3 PUSH1 0x1 PUSH1 0x1 PUSH1 0xA0 SHL SUB AND DUP2 PUSH1 0x1 PUSH1 0x1 PUSH1 0xA0 SHL SUB AND EQ ISZERO JUMPDEST DUP1 ISZERO PUSH2 0x1B84 JUMPI POP PUSH2 0x1B82 DUP2 DUP5 PUSH2 0x154C JUMP JUMPDEST ISZERO JUMPDEST ISZERO PUSH2 0x1BAD JUMPI PUSH1 0x40 MLOAD PUSH4 0xA9FBF51F PUSH1 0xE0 SHL DUP2 MSTORE PUSH1 0x1 PUSH1 0x1 PUSH1 0xA0 SHL SUB DUP5 AND PUSH1 0x4 DUP3 ADD MSTORE PUSH1 0x24 ADD PUSH2 0x697 JUMP JUMPDEST DUP2 ISZERO PUSH2 0x1BF5 JUMPI DUP4 DUP6 PUSH1 0x1 PUSH1 0x1 PUSH1 0xA0 SHL SUB AND DUP3 PUSH1 0x1 PUSH1 0x1 PUSH1 0xA0 SHL SUB AND PUSH32 0x8C5BE1E5EBEC7D5BD14F71427D1E84F3DD0314C0F7B2291E5B200AC8C7C3B925 PUSH1 0x40 MLOAD PUSH1 0x40 MLOAD DUP1 SWAP2 SUB SWAP1 LOG4 JUMPDEST POP JUMPDEST POP POP PUSH1 0x0 SWAP1 DUP2 MSTORE PUSH1 0x4 PUSH1 0x20 MSTORE PUSH1 0x40 SWAP1 KECCAK256 DUP1 SLOAD PUSH1 0x1 PUSH1 0x1 PUSH1 0xA0 SHL SUB NOT AND PUSH1 0x1 PUSH1 0x1 PUSH1 0xA0 SHL SUB SWAP3 SWAP1 SWAP3 AND SWAP2 SWAP1 SWAP2 OR SWAP1 SSTORE JUMP JUMPDEST PUSH2 0x1C32 DUP4 DUP4 DUP4 PUSH2 0x1D63 JUMP JUMPDEST PUSH2 0x887 JUMPI PUSH1 0x1 PUSH1 0x1 PUSH1 0xA0 SHL SUB DUP4 AND PUSH2 0x1C60 JUMPI PUSH1 0x40 MLOAD PUSH4 0x7E273289 PUSH1 0xE0 SHL DUP2 MSTORE PUSH1 0x4 DUP2 ADD DUP3 SWAP1 MSTORE PUSH1 0x24 ADD PUSH2 0x697 JUMP JUMPDEST PUSH1 0x40 MLOAD PUSH4 0x177E802F PUSH1 0xE0 SHL DUP2 MSTORE PUSH1 0x1 PUSH1 0x1 PUSH1 0xA0 SHL SUB DUP4 AND PUSH1 0x4 DUP3 ADD MSTORE PUSH1 0x24 DUP2 ADD DUP3 SWAP1 MSTORE PUSH1 0x44 ADD PUSH2 0x697 JUMP JUMPDEST PUSH1 0x0 DUP1 PUSH19 0x184F03E93FF9F4DAA797ED6E38ED64BF6A1F01 PUSH1 0x40 SHL DUP4 LT PUSH2 0x1CCA JUMPI PUSH19 0x184F03E93FF9F4DAA797ED6E38ED64BF6A1F01 PUSH1 0x40 SHL DUP4 DIV SWAP3 POP PUSH1 0x40 ADD JUMPDEST PUSH14 0x4EE2D6D415B85ACEF8100000000 DUP4 LT PUSH2 0x1CF6 JUMPI PUSH14 0x4EE2D6D415B85ACEF8100000000 DUP4 DIV SWAP3 POP PUSH1 0x20 ADD JUMPDEST PUSH7 0x2386F26FC10000 DUP4 LT PUSH2 0x1D14 JUMPI PUSH7 0x2386F26FC10000 DUP4 DIV SWAP3 POP PUSH1 0x10 ADD JUMPDEST PUSH4 0x5F5E100 DUP4 LT PUSH2 0x1D2C JUMPI PUSH4 0x5F5E100 DUP4 DIV SWAP3 POP PUSH1 0x8 ADD JUMPDEST PUSH2 0x2710 DUP4 LT PUSH2 0x1D40 JUMPI PUSH2 0x2710 DUP4 DIV SWAP3 POP PUSH1 0x4 ADD JUMPDEST PUSH1 0x64 DUP4 LT PUSH2 0x1D52 JUMPI PUSH1 0x64 DUP4 DIV SWAP3 POP PUSH1 0x2 ADD JUMPDEST PUSH1 0xA DUP4 LT PUSH2 0x5A4 JUMPI PUSH1 0x1 ADD SWAP3 SWAP2 POP POP JUMP JUMPDEST PUSH1 0x0 PUSH1 0x1 PUSH1 0x1 PUSH1 0xA0 SHL SUB DUP4 AND ISZERO DUP1 ISZERO SWAP1 PUSH2 0x1DC1 JUMPI POP DUP3 PUSH1 0x1 PUSH1 0x1 PUSH1 0xA0 SHL SUB AND DUP5 PUSH1 0x1 PUSH1 0x1 PUSH1 0xA0 SHL SUB AND EQ DUP1 PUSH2 0x1D9D JUMPI POP PUSH2 0x1D9D DUP5 DUP5 PUSH2 0x154C JUMP JUMPDEST DUP1 PUSH2 0x1DC1 JUMPI POP PUSH1 0x0 DUP3 DUP2 MSTORE PUSH1 0x4 PUSH1 0x20 MSTORE PUSH1 0x40 SWAP1 KECCAK256 SLOAD PUSH1 0x1 PUSH1 0x1 PUSH1 0xA0 SHL SUB DUP5 DUP2 AND SWAP2 AND EQ JUMPDEST SWAP5 SWAP4 POP POP POP POP JUMP JUMPDEST POP DUP1 SLOAD PUSH2 0x1DD5 SWAP1 PUSH2 0x2375 JUMP JUMPDEST PUSH1 0x0 DUP3 SSTORE DUP1 PUSH1 0x1F LT PUSH2 0x1DE5 JUMPI POP POP JUMP JUMPDEST PUSH1 0x1F ADD PUSH1 0x20 SWAP1 DIV SWAP1 PUSH1 0x0 MSTORE PUSH1 0x20 PUSH1 0x0 KECCAK256 SWAP1 DUP2 ADD SWAP1 PUSH2 0x15B5 SWAP2 SWAP1 PUSH2 0x1E53 JUMP JUMPDEST PUSH1 0x40 MLOAD DUP1 PUSH1 0xC0 ADD PUSH1 0x40 MSTORE DUP1 PUSH1 0x60 DUP2 MSTORE PUSH1 0x20 ADD PUSH1 0x60 DUP2 MSTORE PUSH1 0x20 ADD PUSH1 0x0 DUP2 MSTORE PUSH1 0x20 ADD PUSH1 0x0 PUSH1 0x1 PUSH1 0x1 PUSH1 0xA0 SHL SUB AND DUP2 MSTORE PUSH1 0x20 ADD PUSH1 0x0 PUSH1 0x1 DUP2 GT ISZERO PUSH2 0x1E46 JUMPI PUSH2 0x1E46 PUSH2 0x1FBF JUMP JUMPDEST DUP2 MSTORE PUSH1 0x20 ADD PUSH1 0x0 DUP2 MSTORE POP SWAP1 JUMP JUMPDEST JUMPDEST DUP1 DUP3 GT ISZERO PUSH2 0x1E68 JUMPI PUSH1 0x0 DUP2 SSTORE PUSH1 0x1 ADD PUSH2 0x1E54 JUMP JUMPDEST POP SWAP1 JUMP JUMPDEST PUSH1 0x1 PUSH1 0x1 PUSH1 0xE0 SHL SUB NOT DUP2 AND DUP2 EQ PUSH2 0x15B5 JUMPI PUSH1 0x0 DUP1 REVERT JUMPDEST PUSH1 0x0 PUSH1 0x20 DUP3 DUP5 SUB SLT ISZERO PUSH2 0x1E94 JUMPI PUSH1 0x0 DUP1 REVERT JUMPDEST DUP2 CALLDATALOAD PUSH2 0x119F DUP2 PUSH2 0x1E6C JUMP JUMPDEST PUSH1 0x0 JUMPDEST DUP4 DUP2 LT ISZERO PUSH2 0x1EBA JUMPI DUP2 DUP2 ADD MLOAD DUP4 DUP3 ADD MSTORE PUSH1 0x20 ADD PUSH2 0x1EA2 JUMP JUMPDEST POP POP PUSH1 0x0 SWAP2 ADD MSTORE JUMP JUMPDEST PUSH1 0x0 DUP2 MLOAD DUP1 DUP5 MSTORE PUSH2 0x1EDB DUP2 PUSH1 0x20 DUP7 ADD PUSH1 0x20 DUP7 ADD PUSH2 0x1E9F JUMP JUMPDEST PUSH1 0x1F ADD PUSH1 0x1F NOT AND SWAP3 SWAP1 SWAP3 ADD PUSH1 0x20 ADD SWAP3 SWAP2 POP POP JUMP JUMPDEST PUSH1 0x20 DUP2 MSTORE PUSH1 0x0 PUSH2 0x119F PUSH1 0x20 DUP4 ADD DUP5 PUSH2 0x1EC3 JUMP JUMPDEST PUSH1 0x0 PUSH1 0x20 DUP3 DUP5 SUB SLT ISZERO PUSH2 0x1F14 JUMPI PUSH1 0x0 DUP1 REVERT JUMPDEST POP CALLDATALOAD SWAP2 SWAP1 POP JUMP JUMPDEST DUP1 CALLDATALOAD PUSH1 0x1 PUSH1 0x1 PUSH1 0xA0 SHL SUB DUP2 AND DUP2 EQ PUSH2 0x1F32 JUMPI PUSH1 0x0 DUP1 REVERT JUMPDEST SWAP2 SWAP1 POP JUMP JUMPDEST PUSH1 0x0 DUP1 PUSH1 0x40 DUP4 DUP6 SUB SLT ISZERO PUSH2 0x1F4A JUMPI PUSH1 0x0 DUP1 REVERT JUMPDEST PUSH2 0x1F53 DUP4 PUSH2 0x1F1B JUMP JUMPDEST SWAP5 PUSH1 0x20 SWAP4 SWAP1 SWAP4 ADD CALLDATALOAD SWAP4 POP POP POP JUMP JUMPDEST PUSH1 0x0 DUP1 PUSH1 0x40 DUP4 DUP6 SUB SLT ISZERO PUSH2 0x1F74 JUMPI PUSH1 0x0 DUP1 REVERT JUMPDEST POP POP DUP1 CALLDATALOAD SWAP3 PUSH1 0x20 SWAP1 SWAP2 ADD CALLDATALOAD SWAP2 POP JUMP JUMPDEST PUSH1 0x0 DUP1 PUSH1 0x0 PUSH1 0x60 DUP5 DUP7 SUB SLT ISZERO PUSH2 0x1F98 JUMPI PUSH1 0x0 DUP1 REVERT JUMPDEST PUSH2 0x1FA1 DUP5 PUSH2 0x1F1B JUMP JUMPDEST SWAP3 POP PUSH2 0x1FAF PUSH1 0x20 DUP6 ADD PUSH2 0x1F1B JUMP JUMPDEST SWAP2 POP PUSH1 0x40 DUP5 ADD CALLDATALOAD SWAP1 POP SWAP3 POP SWAP3 POP SWAP3 JUMP JUMPDEST PUSH4 0x4E487B71 PUSH1 0xE0 SHL PUSH1 0x0 MSTORE PUSH1 0x21 PUSH1 0x4 MSTORE PUSH1 0x24 PUSH1 0x0 REVERT JUMPDEST PUSH1 0x2 DUP2 LT PUSH2 0x1FF3 JUMPI PUSH4 0x4E487B71 PUSH1 0xE0 SHL PUSH1 0x0 MSTORE PUSH1 0x21 PUSH1 0x4 MSTORE PUSH1 0x24 PUSH1 0x0 REVERT JUMPDEST SWAP1 MSTORE JUMP JUMPDEST PUSH1 0xC0 DUP2 MSTORE PUSH1 0x0 PUSH2 0x200A PUSH1 0xC0 DUP4 ADD DUP10 PUSH2 0x1EC3 JUMP JUMPDEST DUP3 DUP2 SUB PUSH1 0x20 DUP5 ADD MSTORE PUSH2 0x201C DUP2 DUP10 PUSH2 0x1EC3 JUMP JUMPDEST PUSH1 0x40 DUP5 ADD DUP9 SWAP1 MSTORE PUSH1 0x1 PUSH1 0x1 PUSH1 0xA0 SHL SUB DUP8 AND PUSH1 0x60 DUP6 ADD MSTORE SWAP2 POP PUSH2 0x2043 SWAP1 POP PUSH1 0x80 DUP4 ADD DUP6 PUSH2 0x1FD5 JUMP JUMPDEST DUP3 PUSH1 0xA0 DUP4 ADD MSTORE SWAP8 SWAP7 POP POP POP POP POP POP POP JUMP JUMPDEST PUSH1 0x0 PUSH1 0x20 DUP1 DUP4 ADD DUP2 DUP5 MSTORE DUP1 DUP6 MLOAD DUP1 DUP4 MSTORE PUSH1 0x40 SWAP3 POP DUP3 DUP7 ADD SWAP2 POP DUP3 DUP2 PUSH1 0x5 SHL DUP8 ADD ADD DUP5 DUP9 ADD PUSH1 0x0 JUMPDEST DUP4 DUP2 LT ISZERO PUSH2 0x210B JUMPI PUSH1 0x3F NOT DUP10 DUP5 SUB ADD DUP6 MSTORE DUP2 MLOAD PUSH1 0xC0 DUP2 MLOAD DUP2 DUP7 MSTORE PUSH2 0x20A1 DUP3 DUP8 ADD DUP3 PUSH2 0x1EC3 JUMP JUMPDEST SWAP2 POP POP DUP9 DUP3 ADD MLOAD DUP6 DUP3 SUB DUP11 DUP8 ADD MSTORE PUSH2 0x20B9 DUP3 DUP3 PUSH2 0x1EC3 JUMP JUMPDEST DUP4 DUP11 ADD MLOAD DUP8 DUP12 ADD MSTORE PUSH1 0x60 DUP1 DUP6 ADD MLOAD PUSH1 0x1 PUSH1 0x1 PUSH1 0xA0 SHL SUB AND SWAP1 DUP9 ADD MSTORE PUSH1 0x80 DUP1 DUP6 ADD MLOAD SWAP2 SWAP4 POP SWAP2 POP PUSH2 0x20EB DUP3 DUP9 ADD DUP3 PUSH2 0x1FD5 JUMP JUMPDEST POP POP PUSH1 0xA0 SWAP2 DUP3 ADD MLOAD SWAP5 SWAP1 SWAP2 ADD SWAP4 SWAP1 SWAP4 MSTORE SWAP4 DUP7 ADD SWAP4 SWAP1 DUP7 ADD SWAP1 PUSH1 0x1 ADD PUSH2 0x207B JUMP JUMPDEST POP SWAP1 SWAP9 SWAP8 POP POP POP POP POP POP POP POP JUMP JUMPDEST PUSH1 0x0 PUSH1 0x20 DUP3 DUP5 SUB SLT ISZERO PUSH2 0x212B JUMPI PUSH1 0x0 DUP1 REVERT JUMPDEST PUSH2 0x119F DUP3 PUSH2 0x1F1B JUMP JUMPDEST PUSH1 0x60 DUP2 MSTORE PUSH1 0x0 PUSH2 0x2147 PUSH1 0x60 DUP4 ADD DUP7 PUSH2 0x1EC3 JUMP JUMPDEST DUP3 DUP2 SUB PUSH1 0x20 DUP5 ADD MSTORE PUSH2 0x2159 DUP2 DUP7 PUSH2 0x1EC3 JUMP JUMPDEST SWAP2 POP POP DUP3 PUSH1 0x40 DUP4 ADD MSTORE SWAP5 SWAP4 POP POP POP POP JUMP JUMPDEST PUSH1 0x0 DUP1 PUSH1 0x40 DUP4 DUP6 SUB SLT ISZERO PUSH2 0x217D JUMPI PUSH1 0x0 DUP1 REVERT JUMPDEST PUSH2 0x2186 DUP4 PUSH2 0x1F1B JUMP JUMPDEST SWAP2 POP PUSH1 0x20 DUP4 ADD CALLDATALOAD DUP1 ISZERO ISZERO DUP2 EQ PUSH2 0x219B JUMPI PUSH1 0x0 DUP1 REVERT JUMPDEST DUP1 SWAP2 POP POP SWAP3 POP SWAP3 SWAP1 POP JUMP JUMPDEST PUSH4 0x4E487B71 PUSH1 0xE0 SHL PUSH1 0x0 MSTORE PUSH1 0x41 PUSH1 0x4 MSTORE PUSH1 0x24 PUSH1 0x0 REVERT JUMPDEST PUSH1 0x0 PUSH8 0xFFFFFFFFFFFFFFFF DUP1 DUP5 GT ISZERO PUSH2 0x21D7 JUMPI PUSH2 0x21D7 PUSH2 0x21A6 JUMP JUMPDEST PUSH1 0x40 MLOAD PUSH1 0x1F DUP6 ADD PUSH1 0x1F NOT SWAP1 DUP2 AND PUSH1 0x3F ADD AND DUP2 ADD SWAP1 DUP3 DUP3 GT DUP2 DUP4 LT OR ISZERO PUSH2 0x21FF JUMPI PUSH2 0x21FF PUSH2 0x21A6 JUMP JUMPDEST DUP2 PUSH1 0x40 MSTORE DUP1 SWAP4 POP DUP6 DUP2 MSTORE DUP7 DUP7 DUP7 ADD GT ISZERO PUSH2 0x2218 JUMPI PUSH1 0x0 DUP1 REVERT JUMPDEST DUP6 DUP6 PUSH1 0x20 DUP4 ADD CALLDATACOPY PUSH1 0x0 PUSH1 0x20 DUP8 DUP4 ADD ADD MSTORE POP POP POP SWAP4 SWAP3 POP POP POP JUMP JUMPDEST PUSH1 0x0 DUP1 PUSH1 0x0 DUP1 PUSH1 0x80 DUP6 DUP8 SUB SLT ISZERO PUSH2 0x2248 JUMPI PUSH1 0x0 DUP1 REVERT JUMPDEST PUSH2 0x2251 DUP6 PUSH2 0x1F1B JUMP JUMPDEST SWAP4 POP PUSH2 0x225F PUSH1 0x20 DUP7 ADD PUSH2 0x1F1B JUMP JUMPDEST SWAP3 POP PUSH1 0x40 DUP6 ADD CALLDATALOAD SWAP2 POP PUSH1 0x60 DUP6 ADD CALLDATALOAD PUSH8 0xFFFFFFFFFFFFFFFF DUP2 GT ISZERO PUSH2 0x2282 JUMPI PUSH1 0x0 DUP1 REVERT JUMPDEST DUP6 ADD PUSH1 0x1F DUP2 ADD DUP8 SGT PUSH2 0x2293 JUMPI PUSH1 0x0 DUP1 REVERT JUMPDEST PUSH2 0x22A2 DUP8 DUP3 CALLDATALOAD PUSH1 0x20 DUP5 ADD PUSH2 0x21BC JUMP JUMPDEST SWAP2 POP POP SWAP3 SWAP6 SWAP2 SWAP5 POP SWAP3 POP JUMP JUMPDEST PUSH1 0x0 DUP3 PUSH1 0x1F DUP4 ADD SLT PUSH2 0x22BF JUMPI PUSH1 0x0 DUP1 REVERT JUMPDEST PUSH2 0x119F DUP4 DUP4 CALLDATALOAD PUSH1 0x20 DUP6 ADD PUSH2 0x21BC JUMP JUMPDEST PUSH1 0x0 DUP1 PUSH1 0x0 DUP1 PUSH1 0x80 DUP6 DUP8 SUB SLT ISZERO PUSH2 0x22E4 JUMPI PUSH1 0x0 DUP1 REVERT JUMPDEST DUP5 CALLDATALOAD PUSH8 0xFFFFFFFFFFFFFFFF DUP1 DUP3 GT ISZERO PUSH2 0x22FC JUMPI PUSH1 0x0 DUP1 REVERT JUMPDEST PUSH2 0x2308 DUP9 DUP4 DUP10 ADD PUSH2 0x22AE JUMP JUMPDEST SWAP6 POP PUSH1 0x20 DUP8 ADD CALLDATALOAD SWAP2 POP DUP1 DUP3 GT ISZERO PUSH2 0x231E JUMPI PUSH1 0x0 DUP1 REVERT JUMPDEST POP PUSH2 0x232B DUP8 DUP3 DUP9 ADD PUSH2 0x22AE JUMP JUMPDEST SWAP5 SWAP8 SWAP5 SWAP7 POP POP POP POP PUSH1 0x40 DUP4 ADD CALLDATALOAD SWAP3 PUSH1 0x60 ADD CALLDATALOAD SWAP2 SWAP1 POP JUMP JUMPDEST PUSH1 0x0 DUP1 PUSH1 0x40 DUP4 DUP6 SUB SLT ISZERO PUSH2 0x2355 JUMPI PUSH1 0x0 DUP1 REVERT JUMPDEST PUSH2 0x235E DUP4 PUSH2 0x1F1B JUMP JUMPDEST SWAP2 POP PUSH2 0x236C PUSH1 0x20 DUP5 ADD PUSH2 0x1F1B JUMP JUMPDEST SWAP1 POP SWAP3 POP SWAP3 SWAP1 POP JUMP JUMPDEST PUSH1 0x1 DUP2 DUP2 SHR SWAP1 DUP3 AND DUP1 PUSH2 0x2389 JUMPI PUSH1 0x7F DUP3 AND SWAP2 POP JUMPDEST PUSH1 0x20 DUP3 LT DUP2 SUB PUSH2 0x23A9 JUMPI PUSH4 0x4E487B71 PUSH1 0xE0 SHL PUSH1 0x0 MSTORE PUSH1 0x22 PUSH1 0x4 MSTORE PUSH1 0x24 PUSH1 0x0 REVERT JUMPDEST POP SWAP2 SWAP1 POP JUMP JUMPDEST PUSH1 0x20 DUP1 DUP3 MSTORE PUSH1 0xE SWAP1 DUP3 ADD MSTORE PUSH14 0x1499595B9D1C985B9D0818D85B1B PUSH1 0x92 SHL PUSH1 0x40 DUP3 ADD MSTORE PUSH1 0x60 ADD SWAP1 JUMP JUMPDEST PUSH1 0x20 DUP1 DUP3 MSTORE PUSH1 0x25 SWAP1 DUP3 ADD MSTORE PUSH32 0x596F752063616E27742073656C6C206120706C616E657420796F7520646F6E27 PUSH1 0x40 DUP3 ADD MSTORE PUSH5 0x3A1037BBB7 PUSH1 0xD9 SHL PUSH1 0x60 DUP3 ADD MSTORE PUSH1 0x80 ADD SWAP1 JUMP JUMPDEST PUSH4 0x4E487B71 PUSH1 0xE0 SHL PUSH1 0x0 MSTORE PUSH1 0x32 PUSH1 0x4 MSTORE PUSH1 0x24 PUSH1 0x0 REVERT JUMPDEST PUSH4 0x4E487B71 PUSH1 0xE0 SHL PUSH1 0x0 MSTORE PUSH1 0x11 PUSH1 0x4 MSTORE PUSH1 0x24 PUSH1 0x0 REVERT JUMPDEST PUSH1 0x0 PUSH1 0x1 DUP3 ADD PUSH2 0x245A JUMPI PUSH2 0x245A PUSH2 0x2432 JUMP JUMPDEST POP PUSH1 0x1 ADD SWAP1 JUMP JUMPDEST PUSH1 0x0 DUP4 MLOAD PUSH2 0x2473 DUP2 DUP5 PUSH1 0x20 DUP9 ADD PUSH2 0x1E9F JUMP JUMPDEST DUP4 MLOAD SWAP1 DUP4 ADD SWAP1 PUSH2 0x2487 DUP2 DUP4 PUSH1 0x20 DUP9 ADD PUSH2 0x1E9F JUMP JUMPDEST ADD SWAP5 SWAP4 POP POP POP POP JUMP JUMPDEST PUSH1 0x1F DUP3 GT ISZERO PUSH2 0x887 JUMPI PUSH1 0x0 DUP2 DUP2 MSTORE PUSH1 0x20 DUP2 KECCAK256 PUSH1 0x1F DUP6 ADD PUSH1 0x5 SHR DUP2 ADD PUSH1 0x20 DUP7 LT ISZERO PUSH2 0x24B7 JUMPI POP DUP1 JUMPDEST PUSH1 0x1F DUP6 ADD PUSH1 0x5 SHR DUP3 ADD SWAP2 POP JUMPDEST DUP2 DUP2 LT ISZERO PUSH2 0x24D6 JUMPI DUP3 DUP2 SSTORE PUSH1 0x1 ADD PUSH2 0x24C3 JUMP JUMPDEST POP POP POP POP POP POP JUMP JUMPDEST DUP2 MLOAD PUSH8 0xFFFFFFFFFFFFFFFF DUP2 GT ISZERO PUSH2 0x24F8 JUMPI PUSH2 0x24F8 PUSH2 0x21A6 JUMP JUMPDEST PUSH2 0x250C DUP2 PUSH2 0x2506 DUP5 SLOAD PUSH2 0x2375 JUMP JUMPDEST DUP5 PUSH2 0x2490 JUMP JUMPDEST PUSH1 0x20 DUP1 PUSH1 0x1F DUP4 GT PUSH1 0x1 DUP2 EQ PUSH2 0x2541 JUMPI PUSH1 0x0 DUP5 ISZERO PUSH2 0x2529 JUMPI POP DUP6 DUP4 ADD MLOAD JUMPDEST PUSH1 0x0 NOT PUSH1 0x3 DUP7 SWAP1 SHL SHR NOT AND PUSH1 0x1 DUP6 SWAP1 SHL OR DUP6 SSTORE PUSH2 0x24D6 JUMP JUMPDEST PUSH1 0x0 DUP6 DUP2 MSTORE PUSH1 0x20 DUP2 KECCAK256 PUSH1 0x1F NOT DUP7 AND SWAP2 JUMPDEST DUP3 DUP2 LT ISZERO PUSH2 0x2570 JUMPI DUP9 DUP7 ADD MLOAD DUP3 SSTORE SWAP5 DUP5 ADD SWAP5 PUSH1 0x1 SWAP1 SWAP2 ADD SWAP1 DUP5 ADD PUSH2 0x2551 JUMP JUMPDEST POP DUP6 DUP3 LT ISZERO PUSH2 0x258E JUMPI DUP8 DUP6 ADD MLOAD PUSH1 0x0 NOT PUSH1 0x3 DUP9 SWAP1 SHL PUSH1 0xF8 AND SHR NOT AND DUP2 SSTORE JUMPDEST POP POP POP POP POP PUSH1 0x1 SWAP1 DUP2 SHL ADD SWAP1 SSTORE POP JUMP JUMPDEST DUP2 DUP2 SUB DUP2 DUP2 GT ISZERO PUSH2 0x5A4 JUMPI PUSH2 0x5A4 PUSH2 0x2432 JUMP JUMPDEST PUSH1 0x1 PUSH1 0x1 PUSH1 0xA0 SHL SUB DUP6 DUP2 AND DUP3 MSTORE DUP5 AND PUSH1 0x20 DUP3 ADD MSTORE PUSH1 0x40 DUP2 ADD DUP4 SWAP1 MSTORE PUSH1 0x80 PUSH1 0x60 DUP3 ADD DUP2 SWAP1 MSTORE PUSH1 0x0 SWAP1 PUSH2 0x25E4 SWAP1 DUP4 ADD DUP5 PUSH2 0x1EC3 JUMP JUMPDEST SWAP7 SWAP6 POP POP POP POP POP POP JUMP JUMPDEST PUSH1 0x0 PUSH1 0x20 DUP3 DUP5 SUB SLT ISZERO PUSH2 0x2600 JUMPI PUSH1 0x0 DUP1 REVERT JUMPDEST DUP2 MLOAD PUSH2 0x119F DUP2 PUSH2 0x1E6C JUMP INVALID LOG2 PUSH5 0x6970667358 0x22 SLT KECCAK256 PUSH25 0xC15EE740CE7577D84BC805DC10102901C42746387826D056F MSTORE8 JUMPDEST 0xC7 PUSH9 0xB8B464736F6C634300 ADDMOD EQ STOP CALLER "},"methodIdentifiers":{"_name()":"d28d8852","_symbol()":"b09f1266","approve(address,uint256)":"095ea7b3","balanceOf(address)":"70a08231","burn(uint256)":"42966c68","buyPlanet(uint256)":"db45a30f","createPlanet(string,string,uint256,uint256)":"cefa13a0","exchangePlanets(uint256,uint256)":"58d46770","getAllPlanets()":"6a23befb","getApproved(uint256)":"081812fc","isApprovedForAll(address,address)":"e985e9c5","lookUpTokenIdToPlanetInfo(uint256)":"9a7936df","name()":"06fdde03","owner()":"8da5cb5b","ownerOf(uint256)":"6352211e","putPlanetUpForSale(uint256,uint256)":"0febfc8d","renounceOwnership()":"715018a6","safeTransferFrom(address,address,uint256)":"42842e0e","safeTransferFrom(address,address,uint256,bytes)":"b88d4fde","selfDestroy()":"b9750acf","setApprovalForAll(address,bool)":"a22cb465","supportsInterface(bytes4)":"01ffc9a7","symbol()":"95d89b41","tokenIdToPlanetInfo(uint256)":"5426a771","tokenURI(uint256)":"c87b56dd","transferFrom(address,address,uint256)":"23b872dd","transferOwnership(address)":"f2fde38b","transferPlanet(address,uint256)":"311125f7"}}}}}