{
  "_format": "hh-sol-artifact-1",
  "contractName": "BaseContract",
  "sourceName": "contracts/BaseContract.sol",
  "abi": [
    {
      "inputs": [],
      "stateMutability": "nonpayable",
      "type": "constructor"
    },
    {
      "inputs": [
        {
          "internalType": "address",
          "name": "sender",
          "type": "address"
        },
        {
          "internalType": "uint256",
          "name": "tokenId",
          "type": "uint256"
        },
        {
          "internalType": "address",
          "name": "owner",
          "type": "address"
        }
      ],
      "name": "ERC721IncorrectOwner",
      "type": "error"
    },
    {
      "inputs": [
        {
          "internalType": "address",
          "name": "operator",
          "type": "address"
        },
        {
          "internalType": "uint256",
          "name": "tokenId",
          "type": "uint256"
        }
      ],
      "name": "ERC721InsufficientApproval",
      "type": "error"
    },
    {
      "inputs": [
        {
          "internalType": "address",
          "name": "approver",
          "type": "address"
        }
      ],
      "name": "ERC721InvalidApprover",
      "type": "error"
    },
    {
      "inputs": [
        {
          "internalType": "address",
          "name": "operator",
          "type": "address"
        }
      ],
      "name": "ERC721InvalidOperator",
      "type": "error"
    },
    {
      "inputs": [
        {
          "internalType": "address",
          "name": "owner",
          "type": "address"
        }
      ],
      "name": "ERC721InvalidOwner",
      "type": "error"
    },
    {
      "inputs": [
        {
          "internalType": "address",
          "name": "receiver",
          "type": "address"
        }
      ],
      "name": "ERC721InvalidReceiver",
      "type": "error"
    },
    {
      "inputs": [
        {
          "internalType": "address",
          "name": "sender",
          "type": "address"
        }
      ],
      "name": "ERC721InvalidSender",
      "type": "error"
    },
    {
      "inputs": [
        {
          "internalType": "uint256",
          "name": "tokenId",
          "type": "uint256"
        }
      ],
      "name": "ERC721NonexistentToken",
      "type": "error"
    },
    {
      "inputs": [
        {
          "internalType": "address",
          "name": "owner",
          "type": "address"
        }
      ],
      "name": "OwnableInvalidOwner",
      "type": "error"
    },
    {
      "inputs": [
        {
          "internalType": "address",
          "name": "account",
          "type": "address"
        }
      ],
      "name": "OwnableUnauthorizedAccount",
      "type": "error"
    },
    {
      "anonymous": false,
      "inputs": [
        {
          "indexed": true,
          "internalType": "address",
          "name": "owner",
          "type": "address"
        },
        {
          "indexed": true,
          "internalType": "address",
          "name": "approved",
          "type": "address"
        },
        {
          "indexed": true,
          "internalType": "uint256",
          "name": "tokenId",
          "type": "uint256"
        }
      ],
      "name": "Approval",
      "type": "event"
    },
    {
      "anonymous": false,
      "inputs": [
        {
          "indexed": true,
          "internalType": "address",
          "name": "owner",
          "type": "address"
        },
        {
          "indexed": true,
          "internalType": "address",
          "name": "operator",
          "type": "address"
        },
        {
          "indexed": false,
          "internalType": "bool",
          "name": "approved",
          "type": "bool"
        }
      ],
      "name": "ApprovalForAll",
      "type": "event"
    },
    {
      "anonymous": false,
      "inputs": [
        {
          "indexed": false,
          "internalType": "uint256",
          "name": "_tokenId",
          "type": "uint256"
        }
      ],
      "name": "Burned",
      "type": "event"
    },
    {
      "anonymous": false,
      "inputs": [
        {
          "indexed": false,
          "internalType": "uint256",
          "name": "_tokenId",
          "type": "uint256"
        }
      ],
      "name": "Created",
      "type": "event"
    },
    {
      "anonymous": false,
      "inputs": [
        {
          "indexed": false,
          "internalType": "uint256",
          "name": "_tokenId1",
          "type": "uint256"
        },
        {
          "indexed": false,
          "internalType": "uint256",
          "name": "_tokenId2",
          "type": "uint256"
        }
      ],
      "name": "Exchanged",
      "type": "event"
    },
    {
      "anonymous": false,
      "inputs": [
        {
          "indexed": true,
          "internalType": "address",
          "name": "previousOwner",
          "type": "address"
        },
        {
          "indexed": true,
          "internalType": "address",
          "name": "newOwner",
          "type": "address"
        }
      ],
      "name": "OwnershipTransferred",
      "type": "event"
    },
    {
      "anonymous": false,
      "inputs": [
        {
          "indexed": false,
          "internalType": "uint256",
          "name": "_tokenId",
          "type": "uint256"
        }
      ],
      "name": "Sold",
      "type": "event"
    },
    {
      "anonymous": false,
      "inputs": [
        {
          "indexed": true,
          "internalType": "address",
          "name": "from",
          "type": "address"
        },
        {
          "indexed": true,
          "internalType": "address",
          "name": "to",
          "type": "address"
        },
        {
          "indexed": true,
          "internalType": "uint256",
          "name": "tokenId",
          "type": "uint256"
        }
      ],
      "name": "Transfer",
      "type": "event"
    },
    {
      "anonymous": false,
      "inputs": [
        {
          "indexed": false,
          "internalType": "uint256",
          "name": "_tokenId",
          "type": "uint256"
        }
      ],
      "name": "Transfered",
      "type": "event"
    },
    {
      "anonymous": false,
      "inputs": [
        {
          "indexed": false,
          "internalType": "uint256",
          "name": "_tokenId",
          "type": "uint256"
        }
      ],
      "name": "UpforSale",
      "type": "event"
    },
    {
      "inputs": [],
      "name": "_name",
      "outputs": [
        {
          "internalType": "string",
          "name": "",
          "type": "string"
        }
      ],
      "stateMutability": "view",
      "type": "function"
    },
    {
      "inputs": [],
      "name": "_symbol",
      "outputs": [
        {
          "internalType": "string",
          "name": "",
          "type": "string"
        }
      ],
      "stateMutability": "view",
      "type": "function"
    },
    {
      "inputs": [
        {
          "internalType": "address",
          "name": "to",
          "type": "address"
        },
        {
          "internalType": "uint256",
          "name": "tokenId",
          "type": "uint256"
        }
      ],
      "name": "approve",
      "outputs": [],
      "stateMutability": "nonpayable",
      "type": "function"
    },
    {
      "inputs": [
        {
          "internalType": "address",
          "name": "owner",
          "type": "address"
        }
      ],
      "name": "balanceOf",
      "outputs": [
        {
          "internalType": "uint256",
          "name": "",
          "type": "uint256"
        }
      ],
      "stateMutability": "view",
      "type": "function"
    },
    {
      "inputs": [
        {
          "internalType": "uint256",
          "name": "_tokenId",
          "type": "uint256"
        }
      ],
      "name": "burn",
      "outputs": [],
      "stateMutability": "nonpayable",
      "type": "function"
    },
    {
      "inputs": [
        {
          "internalType": "uint256",
          "name": "tokenId",
          "type": "uint256"
        }
      ],
      "name": "getApproved",
      "outputs": [
        {
          "internalType": "address",
          "name": "",
          "type": "address"
        }
      ],
      "stateMutability": "view",
      "type": "function"
    },
    {
      "inputs": [
        {
          "internalType": "address",
          "name": "owner",
          "type": "address"
        },
        {
          "internalType": "address",
          "name": "operator",
          "type": "address"
        }
      ],
      "name": "isApprovedForAll",
      "outputs": [
        {
          "internalType": "bool",
          "name": "",
          "type": "bool"
        }
      ],
      "stateMutability": "view",
      "type": "function"
    },
    {
      "inputs": [],
      "name": "name",
      "outputs": [
        {
          "internalType": "string",
          "name": "",
          "type": "string"
        }
      ],
      "stateMutability": "view",
      "type": "function"
    },
    {
      "inputs": [],
      "name": "owner",
      "outputs": [
        {
          "internalType": "address",
          "name": "",
          "type": "address"
        }
      ],
      "stateMutability": "view",
      "type": "function"
    },
    {
      "inputs": [
        {
          "internalType": "uint256",
          "name": "tokenId",
          "type": "uint256"
        }
      ],
      "name": "ownerOf",
      "outputs": [
        {
          "internalType": "address",
          "name": "",
          "type": "address"
        }
      ],
      "stateMutability": "view",
      "type": "function"
    },
    {
      "inputs": [],
      "name": "renounceOwnership",
      "outputs": [],
      "stateMutability": "nonpayable",
      "type": "function"
    },
    {
      "inputs": [
        {
          "internalType": "address",
          "name": "from",
          "type": "address"
        },
        {
          "internalType": "address",
          "name": "to",
          "type": "address"
        },
        {
          "internalType": "uint256",
          "name": "tokenId",
          "type": "uint256"
        }
      ],
      "name": "safeTransferFrom",
      "outputs": [],
      "stateMutability": "nonpayable",
      "type": "function"
    },
    {
      "inputs": [
        {
          "internalType": "address",
          "name": "from",
          "type": "address"
        },
        {
          "internalType": "address",
          "name": "to",
          "type": "address"
        },
        {
          "internalType": "uint256",
          "name": "tokenId",
          "type": "uint256"
        },
        {
          "internalType": "bytes",
          "name": "data",
          "type": "bytes"
        }
      ],
      "name": "safeTransferFrom",
      "outputs": [],
      "stateMutability": "nonpayable",
      "type": "function"
    },
    {
      "inputs": [],
      "name": "selfDestroy",
      "outputs": [],
      "stateMutability": "nonpayable",
      "type": "function"
    },
    {
      "inputs": [
        {
          "internalType": "address",
          "name": "operator",
          "type": "address"
        },
        {
          "internalType": "bool",
          "name": "approved",
          "type": "bool"
        }
      ],
      "name": "setApprovalForAll",
      "outputs": [],
      "stateMutability": "nonpayable",
      "type": "function"
    },
    {
      "inputs": [
        {
          "internalType": "bytes4",
          "name": "interfaceId",
          "type": "bytes4"
        }
      ],
      "name": "supportsInterface",
      "outputs": [
        {
          "internalType": "bool",
          "name": "",
          "type": "bool"
        }
      ],
      "stateMutability": "view",
      "type": "function"
    },
    {
      "inputs": [],
      "name": "symbol",
      "outputs": [
        {
          "internalType": "string",
          "name": "",
          "type": "string"
        }
      ],
      "stateMutability": "view",
      "type": "function"
    },
    {
      "inputs": [
        {
          "internalType": "uint256",
          "name": "",
          "type": "uint256"
        }
      ],
      "name": "tokenIdToPlanetInfo",
      "outputs": [
        {
          "internalType": "string",
          "name": "name",
          "type": "string"
        },
        {
          "internalType": "string",
          "name": "terrain",
          "type": "string"
        },
        {
          "internalType": "uint256",
          "name": "rarityLevel",
          "type": "uint256"
        },
        {
          "internalType": "address",
          "name": "owner",
          "type": "address"
        },
        {
          "internalType": "enum BaseContract.Status",
          "name": "status",
          "type": "uint8"
        },
        {
          "internalType": "uint256",
          "name": "price",
          "type": "uint256"
        }
      ],
      "stateMutability": "view",
      "type": "function"
    },
    {
      "inputs": [
        {
          "internalType": "uint256",
          "name": "tokenId",
          "type": "uint256"
        }
      ],
      "name": "tokenURI",
      "outputs": [
        {
          "internalType": "string",
          "name": "",
          "type": "string"
        }
      ],
      "stateMutability": "view",
      "type": "function"
    },
    {
      "inputs": [
        {
          "internalType": "address",
          "name": "from",
          "type": "address"
        },
        {
          "internalType": "address",
          "name": "to",
          "type": "address"
        },
        {
          "internalType": "uint256",
          "name": "tokenId",
          "type": "uint256"
        }
      ],
      "name": "transferFrom",
      "outputs": [],
      "stateMutability": "nonpayable",
      "type": "function"
    },
    {
      "inputs": [
        {
          "internalType": "address",
          "name": "newOwner",
          "type": "address"
        }
      ],
      "name": "transferOwnership",
      "outputs": [],
      "stateMutability": "nonpayable",
      "type": "function"
    }
  ],
  "bytecode": "0x60c0604052601460809081527f47616c6163746963436f6c6c65637469626c657300000000000000000000000060a0526007906200003e9082620002f9565b5060408051808201909152600381526211d05360ea1b6020820152600890620000689082620002f9565b503480156200007657600080fd5b50336007805462000087906200026a565b80601f0160208091040260200160405190810160405280929190818152602001828054620000b5906200026a565b8015620001065780601f10620000da5761010080835404028352916020019162000106565b820191906000526020600020905b815481529060010190602001808311620000e857829003601f168201915b5050505050600880546200011a906200026a565b80601f016020809104026020016040519081016040528092919081815260200182805462000148906200026a565b8015620001995780601f106200016d5761010080835404028352916020019162000199565b820191906000526020600020905b8154815290600101906020018083116200017b57829003601f168201915b50505050508160009081620001af9190620002f9565b506001620001be8282620002f9565b5050506001600160a01b038116620001f057604051631e4fbdf760e01b81526000600482015260240160405180910390fd5b620001fb8162000202565b50620003c5565b600680546001600160a01b038381166001600160a01b0319831681179093556040519116919082907f8be0079c531659141344cd1fd0a4f28419497f9722a3daafe3b4186f6b6457e090600090a35050565b634e487b7160e01b600052604160045260246000fd5b600181811c908216806200027f57607f821691505b602082108103620002a057634e487b7160e01b600052602260045260246000fd5b50919050565b601f821115620002f457600081815260208120601f850160051c81016020861015620002cf5750805b601f850160051c820191505b81811015620002f057828155600101620002db565b5050505b505050565b81516001600160401b0381111562000315576200031562000254565b6200032d816200032684546200026a565b84620002a6565b602080601f8311600181146200036557600084156200034c5750858301515b600019600386901b1c1916600185901b178555620002f0565b600085815260208120601f198616915b82811015620003965788860151825594840194600190910190840162000375565b5085821015620003b55787850151600019600388901b60f8161c191681555b5050505050600190811b01905550565b61148680620003d56000396000f3fe608060405234801561001057600080fd5b50600436106101375760003560e01c8063715018a6116100b8578063b88d4fde1161007c578063b88d4fde14610287578063b9750acf1461029a578063c87b56dd146102a2578063d28d8852146102b5578063e985e9c5146102bd578063f2fde38b146102d057600080fd5b8063715018a61461024b5780638da5cb5b1461025357806395d89b4114610264578063a22cb4651461026c578063b09f12661461027f57600080fd5b806342842e0e116100ff57806342842e0e146101cc57806342966c68146101df5780635426a771146101f25780636352211e1461021757806370a082311461022a57600080fd5b806301ffc9a71461013c57806306fdde0314610164578063081812fc14610179578063095ea7b3146101a457806323b872dd146101b9575b600080fd5b61014f61014a366004611086565b6102e3565b60405190151581526020015b60405180910390f35b61016c610335565b60405161015b91906110f3565b61018c610187366004611106565b6103c7565b6040516001600160a01b03909116815260200161015b565b6101b76101b236600461113b565b6103f0565b005b6101b76101c7366004611165565b6103ff565b6101b76101da366004611165565b61048f565b6101b76101ed366004611106565b6104af565b610205610200366004611106565b6105a7565b60405161015b969594939291906111a1565b61018c610225366004611106565b6106fc565b61023d610238366004611211565b610707565b60405190815260200161015b565b6101b761074f565b6006546001600160a01b031661018c565b61016c610763565b6101b761027a36600461122c565b610772565b61016c61077d565b6101b761029536600461127e565b61080b565b6101b7610822565b61016c6102b0366004611106565b610838565b61016c6108ad565b61014f6102cb36600461135a565b6108ba565b6101b76102de366004611211565b6108e8565b60006001600160e01b031982166380ac58cd60e01b148061031457506001600160e01b03198216635b5e139f60e01b145b8061032f57506301ffc9a760e01b6001600160e01b03198316145b92915050565b6060600080546103449061138d565b80601f01602080910402602001604051908101604052809291908181526020018280546103709061138d565b80156103bd5780601f10610392576101008083540402835291602001916103bd565b820191906000526020600020905b8154815290600101906020018083116103a057829003601f168201915b5050505050905090565b60006103d282610926565b506000828152600460205260409020546001600160a01b031661032f565b6103fb82823361095f565b5050565b6001600160a01b03821661042e57604051633250574960e11b8152600060048201526024015b60405180910390fd5b600061043b83833361096c565b9050836001600160a01b0316816001600160a01b031614610489576040516364283d7b60e01b81526001600160a01b0380861660048301526024820184905282166044820152606401610425565b50505050565b6104aa8383836040518060200160405280600081525061080b565b505050565b80336104ba826106fc565b6001600160a01b03161461051e5760405162461bcd60e51b815260206004820152602560248201527f596f752063616e27742073656c6c206120706c616e657420796f7520646f6e276044820152643a1037bbb760d91b6064820152608401610425565b61052782610a65565b6000828152600a60205260408120906105408282611022565b61054e600183016000611022565b506000600282018190556003820180546001600160a81b03191690556004909101556040518281527fd83c63197e8e676d80ab0122beba9a9d20f3828839e9a1d6fe81d242e9cd7e6e9060200160405180910390a15050565b600a602052600090815260409020805481906105c29061138d565b80601f01602080910402602001604051908101604052809291908181526020018280546105ee9061138d565b801561063b5780601f106106105761010080835404028352916020019161063b565b820191906000526020600020905b81548152906001019060200180831161061e57829003601f168201915b5050505050908060010180546106509061138d565b80601f016020809104026020016040519081016040528092919081815260200182805461067c9061138d565b80156106c95780601f1061069e576101008083540402835291602001916106c9565b820191906000526020600020905b8154815290600101906020018083116106ac57829003601f168201915b5050505060028301546003840154600490940154929390926001600160a01b0382169250600160a01b90910460ff169086565b600061032f82610926565b60006001600160a01b038216610733576040516322718ad960e21b815260006004820152602401610425565b506001600160a01b031660009081526003602052604090205490565b610757610aa0565b6107616000610acd565b565b6060600180546103449061138d565b6103fb338383610b1f565b6008805461078a9061138d565b80601f01602080910402602001604051908101604052809291908181526020018280546107b69061138d565b80156108035780601f106107d857610100808354040283529160200191610803565b820191906000526020600020905b8154815290600101906020018083116107e657829003601f168201915b505050505081565b6108168484846103ff565b61048984848484610bbe565b61082a610aa0565b6006546001600160a01b0316ff5b606061084382610926565b50600061085b60408051602081019091526000815290565b9050600081511161087b57604051806020016040528060008152506108a6565b8061088584610ce7565b6040516020016108969291906113c7565b6040516020818303038152906040525b9392505050565b6007805461078a9061138d565b6001600160a01b03918216600090815260056020908152604080832093909416825291909152205460ff1690565b6108f0610aa0565b6001600160a01b03811661091a57604051631e4fbdf760e01b815260006004820152602401610425565b61092381610acd565b50565b6000818152600260205260408120546001600160a01b03168061032f57604051637e27328960e01b815260048101849052602401610425565b6104aa8383836001610d7a565b6000828152600260205260408120546001600160a01b039081169083161561099957610999818486610e80565b6001600160a01b038116156109d7576109b6600085600080610d7a565b6001600160a01b038116600090815260036020526040902080546000190190555b6001600160a01b03851615610a06576001600160a01b0385166000908152600360205260409020805460010190555b60008481526002602052604080822080546001600160a01b0319166001600160a01b0389811691821790925591518793918516917fddf252ad1be2c89b69c2b068fc378daa952ba7f163c4a11628f55a4df523b3ef91a4949350505050565b6000610a74600083600061096c565b90506001600160a01b0381166103fb57604051637e27328960e01b815260048101839052602401610425565b6006546001600160a01b031633146107615760405163118cdaa760e01b8152336004820152602401610425565b600680546001600160a01b038381166001600160a01b0319831681179093556040519116919082907f8be0079c531659141344cd1fd0a4f28419497f9722a3daafe3b4186f6b6457e090600090a35050565b6001600160a01b038216610b5157604051630b61174360e31b81526001600160a01b0383166004820152602401610425565b6001600160a01b03838116600081815260056020908152604080832094871680845294825291829020805460ff191686151590811790915591519182527f17307eab39ab6107e8899845ad3d59bd9653f200f220920489ca2b5937696c31910160405180910390a3505050565b6001600160a01b0383163b1561048957604051630a85bd0160e11b81526001600160a01b0384169063150b7a0290610c009033908890879087906004016113f6565b6020604051808303816000875af1925050508015610c3b575060408051601f3d908101601f19168201909252610c3891810190611433565b60015b610ca4573d808015610c69576040519150601f19603f3d011682016040523d82523d6000602084013e610c6e565b606091505b508051600003610c9c57604051633250574960e11b81526001600160a01b0385166004820152602401610425565b805181602001fd5b6001600160e01b03198116630a85bd0160e11b14610ce057604051633250574960e11b81526001600160a01b0385166004820152602401610425565b5050505050565b60606000610cf483610ee4565b600101905060008167ffffffffffffffff811115610d1457610d14611268565b6040519080825280601f01601f191660200182016040528015610d3e576020820181803683370190505b5090508181016020015b600019016f181899199a1a9b1b9c1cb0b131b232b360811b600a86061a8153600a8504945084610d4857509392505050565b8080610d8e57506001600160a01b03821615155b15610e50576000610d9e84610926565b90506001600160a01b03831615801590610dca5750826001600160a01b0316816001600160a01b031614155b8015610ddd5750610ddb81846108ba565b155b15610e065760405163a9fbf51f60e01b81526001600160a01b0384166004820152602401610425565b8115610e4e5783856001600160a01b0316826001600160a01b03167f8c5be1e5ebec7d5bd14f71427d1e84f3dd0314c0f7b2291e5b200ac8c7c3b92560405160405180910390a45b505b5050600090815260046020526040902080546001600160a01b0319166001600160a01b0392909216919091179055565b610e8b838383610fbc565b6104aa576001600160a01b038316610eb957604051637e27328960e01b815260048101829052602401610425565b60405163177e802f60e01b81526001600160a01b038316600482015260248101829052604401610425565b60008072184f03e93ff9f4daa797ed6e38ed64bf6a1f0160401b8310610f235772184f03e93ff9f4daa797ed6e38ed64bf6a1f0160401b830492506040015b6d04ee2d6d415b85acef81000000008310610f4f576d04ee2d6d415b85acef8100000000830492506020015b662386f26fc100008310610f6d57662386f26fc10000830492506010015b6305f5e1008310610f85576305f5e100830492506008015b6127108310610f9957612710830492506004015b60648310610fab576064830492506002015b600a831061032f5760010192915050565b60006001600160a01b0383161580159061101a5750826001600160a01b0316846001600160a01b03161480610ff65750610ff684846108ba565b8061101a57506000828152600460205260409020546001600160a01b038481169116145b949350505050565b50805461102e9061138d565b6000825580601f1061103e575050565b601f01602090049060005260206000209081019061092391905b8082111561106c5760008155600101611058565b5090565b6001600160e01b03198116811461092357600080fd5b60006020828403121561109857600080fd5b81356108a681611070565b60005b838110156110be5781810151838201526020016110a6565b50506000910152565b600081518084526110df8160208601602086016110a3565b601f01601f19169290920160200192915050565b6020815260006108a660208301846110c7565b60006020828403121561111857600080fd5b5035919050565b80356001600160a01b038116811461113657600080fd5b919050565b6000806040838503121561114e57600080fd5b6111578361111f565b946020939093013593505050565b60008060006060848603121561117a57600080fd5b6111838461111f565b92506111916020850161111f565b9150604084013590509250925092565b60c0815260006111b460c08301896110c7565b82810360208401526111c681896110c7565b604084018890526001600160a01b0387166060850152915050600284106111fd57634e487b7160e01b600052602160045260246000fd5b608082019390935260a00152949350505050565b60006020828403121561122357600080fd5b6108a68261111f565b6000806040838503121561123f57600080fd5b6112488361111f565b91506020830135801515811461125d57600080fd5b809150509250929050565b634e487b7160e01b600052604160045260246000fd5b6000806000806080858703121561129457600080fd5b61129d8561111f565b93506112ab6020860161111f565b925060408501359150606085013567ffffffffffffffff808211156112cf57600080fd5b818701915087601f8301126112e357600080fd5b8135818111156112f5576112f5611268565b604051601f8201601f19908116603f0116810190838211818310171561131d5761131d611268565b816040528281528a602084870101111561133657600080fd5b82602086016020830137600060208483010152809550505050505092959194509250565b6000806040838503121561136d57600080fd5b6113768361111f565b91506113846020840161111f565b90509250929050565b600181811c908216806113a157607f821691505b6020821081036113c157634e487b7160e01b600052602260045260246000fd5b50919050565b600083516113d98184602088016110a3565b8351908301906113ed8183602088016110a3565b01949350505050565b6001600160a01b0385811682528416602082015260408101839052608060608201819052600090611429908301846110c7565b9695505050505050565b60006020828403121561144557600080fd5b81516108a68161107056fea264697066735822122025213e48ecbf8d1b576113a911fe44d6f9ca52311ee8af60aaa484c8ad6d347464736f6c63430008140033",
  "linkReferences": {},
  "deployedLinkReferences": {}
}