{
  "_format": "hh-sol-artifact-1",
  "contractName": "GalacticCollectibles",
  "sourceName": "contracts/GalacticCollectibles.sol",
  "abi": [
    {
      "inputs": [
        {
          "internalType": "address",
          "name": "sender",
          "type": "address"
        },
        {
          "internalType": "uint256",
          "name": "tokenId",
          "type": "uint256"
        },
        {
          "internalType": "address",
          "name": "owner",
          "type": "address"
        }
      ],
      "name": "ERC721IncorrectOwner",
      "type": "error"
    },
    {
      "inputs": [
        {
          "internalType": "address",
          "name": "operator",
          "type": "address"
        },
        {
          "internalType": "uint256",
          "name": "tokenId",
          "type": "uint256"
        }
      ],
      "name": "ERC721InsufficientApproval",
      "type": "error"
    },
    {
      "inputs": [
        {
          "internalType": "address",
          "name": "approver",
          "type": "address"
        }
      ],
      "name": "ERC721InvalidApprover",
      "type": "error"
    },
    {
      "inputs": [
        {
          "internalType": "address",
          "name": "operator",
          "type": "address"
        }
      ],
      "name": "ERC721InvalidOperator",
      "type": "error"
    },
    {
      "inputs": [
        {
          "internalType": "address",
          "name": "owner",
          "type": "address"
        }
      ],
      "name": "ERC721InvalidOwner",
      "type": "error"
    },
    {
      "inputs": [
        {
          "internalType": "address",
          "name": "receiver",
          "type": "address"
        }
      ],
      "name": "ERC721InvalidReceiver",
      "type": "error"
    },
    {
      "inputs": [
        {
          "internalType": "address",
          "name": "sender",
          "type": "address"
        }
      ],
      "name": "ERC721InvalidSender",
      "type": "error"
    },
    {
      "inputs": [
        {
          "internalType": "uint256",
          "name": "tokenId",
          "type": "uint256"
        }
      ],
      "name": "ERC721NonexistentToken",
      "type": "error"
    },
    {
      "inputs": [
        {
          "internalType": "address",
          "name": "owner",
          "type": "address"
        }
      ],
      "name": "OwnableInvalidOwner",
      "type": "error"
    },
    {
      "inputs": [
        {
          "internalType": "address",
          "name": "account",
          "type": "address"
        }
      ],
      "name": "OwnableUnauthorizedAccount",
      "type": "error"
    },
    {
      "anonymous": false,
      "inputs": [
        {
          "indexed": true,
          "internalType": "address",
          "name": "owner",
          "type": "address"
        },
        {
          "indexed": true,
          "internalType": "address",
          "name": "approved",
          "type": "address"
        },
        {
          "indexed": true,
          "internalType": "uint256",
          "name": "tokenId",
          "type": "uint256"
        }
      ],
      "name": "Approval",
      "type": "event"
    },
    {
      "anonymous": false,
      "inputs": [
        {
          "indexed": true,
          "internalType": "address",
          "name": "owner",
          "type": "address"
        },
        {
          "indexed": true,
          "internalType": "address",
          "name": "operator",
          "type": "address"
        },
        {
          "indexed": false,
          "internalType": "bool",
          "name": "approved",
          "type": "bool"
        }
      ],
      "name": "ApprovalForAll",
      "type": "event"
    },
    {
      "anonymous": false,
      "inputs": [
        {
          "indexed": false,
          "internalType": "uint256",
          "name": "_tokenId",
          "type": "uint256"
        }
      ],
      "name": "Burned",
      "type": "event"
    },
    {
      "anonymous": false,
      "inputs": [
        {
          "indexed": false,
          "internalType": "uint256",
          "name": "_tokenId",
          "type": "uint256"
        }
      ],
      "name": "Created",
      "type": "event"
    },
    {
      "anonymous": false,
      "inputs": [
        {
          "indexed": false,
          "internalType": "uint256",
          "name": "_tokenId1",
          "type": "uint256"
        },
        {
          "indexed": false,
          "internalType": "uint256",
          "name": "_tokenId2",
          "type": "uint256"
        }
      ],
      "name": "Exchanged",
      "type": "event"
    },
    {
      "anonymous": false,
      "inputs": [
        {
          "indexed": true,
          "internalType": "address",
          "name": "previousOwner",
          "type": "address"
        },
        {
          "indexed": true,
          "internalType": "address",
          "name": "newOwner",
          "type": "address"
        }
      ],
      "name": "OwnershipTransferred",
      "type": "event"
    },
    {
      "anonymous": false,
      "inputs": [
        {
          "indexed": false,
          "internalType": "uint256",
          "name": "_tokenId",
          "type": "uint256"
        }
      ],
      "name": "Sold",
      "type": "event"
    },
    {
      "anonymous": false,
      "inputs": [
        {
          "indexed": true,
          "internalType": "address",
          "name": "from",
          "type": "address"
        },
        {
          "indexed": true,
          "internalType": "address",
          "name": "to",
          "type": "address"
        },
        {
          "indexed": true,
          "internalType": "uint256",
          "name": "tokenId",
          "type": "uint256"
        }
      ],
      "name": "Transfer",
      "type": "event"
    },
    {
      "anonymous": false,
      "inputs": [
        {
          "indexed": false,
          "internalType": "uint256",
          "name": "_tokenId",
          "type": "uint256"
        }
      ],
      "name": "Transfered",
      "type": "event"
    },
    {
      "anonymous": false,
      "inputs": [
        {
          "indexed": false,
          "internalType": "uint256",
          "name": "_tokenId",
          "type": "uint256"
        }
      ],
      "name": "UpforSale",
      "type": "event"
    },
    {
      "inputs": [],
      "name": "_name",
      "outputs": [
        {
          "internalType": "string",
          "name": "",
          "type": "string"
        }
      ],
      "stateMutability": "view",
      "type": "function"
    },
    {
      "inputs": [],
      "name": "_symbol",
      "outputs": [
        {
          "internalType": "string",
          "name": "",
          "type": "string"
        }
      ],
      "stateMutability": "view",
      "type": "function"
    },
    {
      "inputs": [
        {
          "internalType": "address",
          "name": "to",
          "type": "address"
        },
        {
          "internalType": "uint256",
          "name": "tokenId",
          "type": "uint256"
        }
      ],
      "name": "approve",
      "outputs": [],
      "stateMutability": "nonpayable",
      "type": "function"
    },
    {
      "inputs": [
        {
          "internalType": "address",
          "name": "owner",
          "type": "address"
        }
      ],
      "name": "balanceOf",
      "outputs": [
        {
          "internalType": "uint256",
          "name": "",
          "type": "uint256"
        }
      ],
      "stateMutability": "view",
      "type": "function"
    },
    {
      "inputs": [
        {
          "internalType": "uint256",
          "name": "_tokenId",
          "type": "uint256"
        }
      ],
      "name": "burn",
      "outputs": [],
      "stateMutability": "nonpayable",
      "type": "function"
    },
    {
      "inputs": [
        {
          "internalType": "uint256",
          "name": "_tokenId",
          "type": "uint256"
        }
      ],
      "name": "buyPlanet",
      "outputs": [],
      "stateMutability": "payable",
      "type": "function"
    },
    {
      "inputs": [
        {
          "internalType": "string",
          "name": "_planetName",
          "type": "string"
        },
        {
          "internalType": "string",
          "name": "_terrain",
          "type": "string"
        },
        {
          "internalType": "uint256",
          "name": "_rarityLevel",
          "type": "uint256"
        },
        {
          "internalType": "uint256",
          "name": "_tokenId",
          "type": "uint256"
        }
      ],
      "name": "createPlanet",
      "outputs": [],
      "stateMutability": "nonpayable",
      "type": "function"
    },
    {
      "inputs": [
        {
          "internalType": "uint256",
          "name": "_tokenId1",
          "type": "uint256"
        },
        {
          "internalType": "uint256",
          "name": "_tokenId2",
          "type": "uint256"
        }
      ],
      "name": "exchangePlanets",
      "outputs": [],
      "stateMutability": "nonpayable",
      "type": "function"
    },
    {
      "inputs": [],
      "name": "getAllPlanets",
      "outputs": [
        {
          "components": [
            {
              "internalType": "string",
              "name": "name",
              "type": "string"
            },
            {
              "internalType": "string",
              "name": "terrain",
              "type": "string"
            },
            {
              "internalType": "uint256",
              "name": "rarityLevel",
              "type": "uint256"
            },
            {
              "internalType": "address",
              "name": "owner",
              "type": "address"
            },
            {
              "internalType": "enum BaseContract.Status",
              "name": "status",
              "type": "uint8"
            },
            {
              "internalType": "uint256",
              "name": "price",
              "type": "uint256"
            }
          ],
          "internalType": "struct BaseContract.Planet[]",
          "name": "",
          "type": "tuple[]"
        }
      ],
      "stateMutability": "view",
      "type": "function"
    },
    {
      "inputs": [
        {
          "internalType": "uint256",
          "name": "tokenId",
          "type": "uint256"
        }
      ],
      "name": "getApproved",
      "outputs": [
        {
          "internalType": "address",
          "name": "",
          "type": "address"
        }
      ],
      "stateMutability": "view",
      "type": "function"
    },
    {
      "inputs": [
        {
          "internalType": "address",
          "name": "owner",
          "type": "address"
        },
        {
          "internalType": "address",
          "name": "operator",
          "type": "address"
        }
      ],
      "name": "isApprovedForAll",
      "outputs": [
        {
          "internalType": "bool",
          "name": "",
          "type": "bool"
        }
      ],
      "stateMutability": "view",
      "type": "function"
    },
    {
      "inputs": [
        {
          "internalType": "uint256",
          "name": "_tokenId",
          "type": "uint256"
        }
      ],
      "name": "lookUpTokenIdToPlanetInfo",
      "outputs": [
        {
          "internalType": "string",
          "name": "",
          "type": "string"
        },
        {
          "internalType": "string",
          "name": "",
          "type": "string"
        },
        {
          "internalType": "uint256",
          "name": "",
          "type": "uint256"
        }
      ],
      "stateMutability": "view",
      "type": "function"
    },
    {
      "inputs": [],
      "name": "name",
      "outputs": [
        {
          "internalType": "string",
          "name": "",
          "type": "string"
        }
      ],
      "stateMutability": "view",
      "type": "function"
    },
    {
      "inputs": [],
      "name": "owner",
      "outputs": [
        {
          "internalType": "address",
          "name": "",
          "type": "address"
        }
      ],
      "stateMutability": "view",
      "type": "function"
    },
    {
      "inputs": [
        {
          "internalType": "uint256",
          "name": "tokenId",
          "type": "uint256"
        }
      ],
      "name": "ownerOf",
      "outputs": [
        {
          "internalType": "address",
          "name": "",
          "type": "address"
        }
      ],
      "stateMutability": "view",
      "type": "function"
    },
    {
      "inputs": [
        {
          "internalType": "uint256",
          "name": "_tokenId",
          "type": "uint256"
        },
        {
          "internalType": "uint256",
          "name": "_price",
          "type": "uint256"
        }
      ],
      "name": "putPlanetUpForSale",
      "outputs": [],
      "stateMutability": "nonpayable",
      "type": "function"
    },
    {
      "inputs": [],
      "name": "renounceOwnership",
      "outputs": [],
      "stateMutability": "nonpayable",
      "type": "function"
    },
    {
      "inputs": [
        {
          "internalType": "address",
          "name": "from",
          "type": "address"
        },
        {
          "internalType": "address",
          "name": "to",
          "type": "address"
        },
        {
          "internalType": "uint256",
          "name": "tokenId",
          "type": "uint256"
        }
      ],
      "name": "safeTransferFrom",
      "outputs": [],
      "stateMutability": "nonpayable",
      "type": "function"
    },
    {
      "inputs": [
        {
          "internalType": "address",
          "name": "from",
          "type": "address"
        },
        {
          "internalType": "address",
          "name": "to",
          "type": "address"
        },
        {
          "internalType": "uint256",
          "name": "tokenId",
          "type": "uint256"
        },
        {
          "internalType": "bytes",
          "name": "data",
          "type": "bytes"
        }
      ],
      "name": "safeTransferFrom",
      "outputs": [],
      "stateMutability": "nonpayable",
      "type": "function"
    },
    {
      "inputs": [],
      "name": "selfDestroy",
      "outputs": [],
      "stateMutability": "nonpayable",
      "type": "function"
    },
    {
      "inputs": [
        {
          "internalType": "address",
          "name": "operator",
          "type": "address"
        },
        {
          "internalType": "bool",
          "name": "approved",
          "type": "bool"
        }
      ],
      "name": "setApprovalForAll",
      "outputs": [],
      "stateMutability": "nonpayable",
      "type": "function"
    },
    {
      "inputs": [
        {
          "internalType": "bytes4",
          "name": "interfaceId",
          "type": "bytes4"
        }
      ],
      "name": "supportsInterface",
      "outputs": [
        {
          "internalType": "bool",
          "name": "",
          "type": "bool"
        }
      ],
      "stateMutability": "view",
      "type": "function"
    },
    {
      "inputs": [],
      "name": "symbol",
      "outputs": [
        {
          "internalType": "string",
          "name": "",
          "type": "string"
        }
      ],
      "stateMutability": "view",
      "type": "function"
    },
    {
      "inputs": [
        {
          "internalType": "uint256",
          "name": "",
          "type": "uint256"
        }
      ],
      "name": "tokenIdToPlanetInfo",
      "outputs": [
        {
          "internalType": "string",
          "name": "name",
          "type": "string"
        },
        {
          "internalType": "string",
          "name": "terrain",
          "type": "string"
        },
        {
          "internalType": "uint256",
          "name": "rarityLevel",
          "type": "uint256"
        },
        {
          "internalType": "address",
          "name": "owner",
          "type": "address"
        },
        {
          "internalType": "enum BaseContract.Status",
          "name": "status",
          "type": "uint8"
        },
        {
          "internalType": "uint256",
          "name": "price",
          "type": "uint256"
        }
      ],
      "stateMutability": "view",
      "type": "function"
    },
    {
      "inputs": [
        {
          "internalType": "uint256",
          "name": "tokenId",
          "type": "uint256"
        }
      ],
      "name": "tokenURI",
      "outputs": [
        {
          "internalType": "string",
          "name": "",
          "type": "string"
        }
      ],
      "stateMutability": "view",
      "type": "function"
    },
    {
      "inputs": [
        {
          "internalType": "address",
          "name": "from",
          "type": "address"
        },
        {
          "internalType": "address",
          "name": "to",
          "type": "address"
        },
        {
          "internalType": "uint256",
          "name": "tokenId",
          "type": "uint256"
        }
      ],
      "name": "transferFrom",
      "outputs": [],
      "stateMutability": "nonpayable",
      "type": "function"
    },
    {
      "inputs": [
        {
          "internalType": "address",
          "name": "newOwner",
          "type": "address"
        }
      ],
      "name": "transferOwnership",
      "outputs": [],
      "stateMutability": "nonpayable",
      "type": "function"
    },
    {
      "inputs": [
        {
          "internalType": "address",
          "name": "_to",
          "type": "address"
        },
        {
          "internalType": "uint256",
          "name": "_tokenId",
          "type": "uint256"
        }
      ],
      "name": "transferPlanet",
      "outputs": [],
      "stateMutability": "nonpayable",
      "type": "function"
    }
  ],
  "bytecode": "0x60806040526040518060400160405280601481526020017f47616c6163746963436f6c6c65637469626c6573000000000000000000000000815250600790816200004a9190620005ba565b506040518060400160405280600381526020017f47414c000000000000000000000000000000000000000000000000000000000081525060089081620000919190620005ba565b503480156200009f57600080fd5b503360078054620000b090620003a9565b80601f0160208091040260200160405190810160405280929190818152602001828054620000de90620003a9565b80156200012f5780601f1062000103576101008083540402835291602001916200012f565b820191906000526020600020905b8154815290600101906020018083116200011157829003601f168201915b5050505050600880546200014390620003a9565b80601f01602080910402602001604051908101604052809291908181526020018280546200017190620003a9565b8015620001c25780601f106200019657610100808354040283529160200191620001c2565b820191906000526020600020905b815481529060010190602001808311620001a457829003601f168201915b50505050508160009081620001d89190620005ba565b508060019081620001ea9190620005ba565b505050600073ffffffffffffffffffffffffffffffffffffffff168173ffffffffffffffffffffffffffffffffffffffff1603620002625760006040517f1e4fbdf7000000000000000000000000000000000000000000000000000000008152600401620002599190620006e6565b60405180910390fd5b62000273816200027a60201b60201c565b5062000703565b6000600660009054906101000a900473ffffffffffffffffffffffffffffffffffffffff16905081600660006101000a81548173ffffffffffffffffffffffffffffffffffffffff021916908373ffffffffffffffffffffffffffffffffffffffff1602179055508173ffffffffffffffffffffffffffffffffffffffff168173ffffffffffffffffffffffffffffffffffffffff167f8be0079c531659141344cd1fd0a4f28419497f9722a3daafe3b4186f6b6457e060405160405180910390a35050565b600081519050919050565b7f4e487b7100000000000000000000000000000000000000000000000000000000600052604160045260246000fd5b7f4e487b7100000000000000000000000000000000000000000000000000000000600052602260045260246000fd5b60006002820490506001821680620003c257607f821691505b602082108103620003d857620003d76200037a565b5b50919050565b60008190508160005260206000209050919050565b60006020601f8301049050919050565b600082821b905092915050565b600060088302620004427fffffffffffffffffffffffffffffffffffffffffffffffffffffffffffffffff8262000403565b6200044e868362000403565b95508019841693508086168417925050509392505050565b6000819050919050565b6000819050919050565b60006200049b620004956200048f8462000466565b62000470565b62000466565b9050919050565b6000819050919050565b620004b7836200047a565b620004cf620004c682620004a2565b84845462000410565b825550505050565b600090565b620004e6620004d7565b620004f3818484620004ac565b505050565b5b818110156200051b576200050f600082620004dc565b600181019050620004f9565b5050565b601f8211156200056a576200053481620003de565b6200053f84620003f3565b810160208510156200054f578190505b620005676200055e85620003f3565b830182620004f8565b50505b505050565b600082821c905092915050565b60006200058f600019846008026200056f565b1980831691505092915050565b6000620005aa83836200057c565b9150826002028217905092915050565b620005c58262000340565b67ffffffffffffffff811115620005e157620005e06200034b565b5b620005ed8254620003a9565b620005fa8282856200051f565b600060209050601f8311600181146200063257600084156200061d578287015190505b6200062985826200059c565b86555062000699565b601f1984166200064286620003de565b60005b828110156200066c5784890151825560018201915060208501945060208101905062000645565b868310156200068c578489015162000688601f8916826200057c565b8355505b6001600288020188555050505b505050505050565b600073ffffffffffffffffffffffffffffffffffffffff82169050919050565b6000620006ce82620006a1565b9050919050565b620006e081620006c1565b82525050565b6000602082019050620006fd6000830184620006d5565b92915050565b61434180620007136000396000f3fe6080604052600436106101b75760003560e01c8063715018a6116100ec578063b9750acf1161008a578063d28d885211610064578063d28d88521461060d578063db45a30f14610638578063e985e9c514610654578063f2fde38b14610691576101b7565b8063b9750acf14610590578063c87b56dd146105a7578063cefa13a0146105e4576101b7565b80639a7936df116100c65780639a7936df146104d4578063a22cb46514610513578063b09f12661461053c578063b88d4fde14610567576101b7565b8063715018a6146104675780638da5cb5b1461047e57806395d89b41146104a9576101b7565b806342842e0e1161015957806358d467701161013357806358d46770146103995780636352211e146103c25780636a23befb146103ff57806370a082311461042a576101b7565b806342842e0e1461030557806342966c681461032e5780635426a77114610357576101b7565b8063095ea7b311610195578063095ea7b3146102615780630febfc8d1461028a57806323b872dd146102b3578063311125f7146102dc576101b7565b806301ffc9a7146101bc57806306fdde03146101f9578063081812fc14610224575b600080fd5b3480156101c857600080fd5b506101e360048036038101906101de919061310c565b6106ba565b6040516101f09190613154565b60405180910390f35b34801561020557600080fd5b5061020e61079c565b60405161021b91906131ff565b60405180910390f35b34801561023057600080fd5b5061024b60048036038101906102469190613257565b61082e565b60405161025891906132c5565b60405180910390f35b34801561026d57600080fd5b506102886004803603810190610283919061330c565b61084a565b005b34801561029657600080fd5b506102b160048036038101906102ac919061334c565b610860565b005b3480156102bf57600080fd5b506102da60048036038101906102d5919061338c565b6109f3565b005b3480156102e857600080fd5b5061030360048036038101906102fe919061330c565b610af5565b005b34801561031157600080fd5b5061032c6004803603810190610327919061338c565b610c39565b005b34801561033a57600080fd5b5061035560048036038101906103509190613257565b610c59565b005b34801561036357600080fd5b5061037e60048036038101906103799190613257565b610d95565b60405161039096959493929190613465565b60405180910390f35b3480156103a557600080fd5b506103c060048036038101906103bb919061334c565b610f0e565b005b3480156103ce57600080fd5b506103e960048036038101906103e49190613257565b6110bb565b6040516103f691906132c5565b60405180910390f35b34801561040b57600080fd5b506104146110cd565b604051610421919061369d565b60405180910390f35b34801561043657600080fd5b50610451600480360381019061044c91906136bf565b611381565b60405161045e91906136ec565b60405180910390f35b34801561047357600080fd5b5061047c61143b565b005b34801561048a57600080fd5b5061049361144f565b6040516104a091906132c5565b60405180910390f35b3480156104b557600080fd5b506104be611479565b6040516104cb91906131ff565b60405180910390f35b3480156104e057600080fd5b506104fb60048036038101906104f69190613257565b61150b565b60405161050a93929190613707565b60405180910390f35b34801561051f57600080fd5b5061053a60048036038101906105359190613778565b611717565b005b34801561054857600080fd5b5061055161172d565b60405161055e91906131ff565b60405180910390f35b34801561057357600080fd5b5061058e600480360381019061058991906138ed565b6117bb565b005b34801561059c57600080fd5b506105a56117d8565b005b3480156105b357600080fd5b506105ce60048036038101906105c99190613257565b611800565b6040516105db91906131ff565b60405180910390f35b3480156105f057600080fd5b5061060b60048036038101906106069190613a11565b611869565b005b34801561061957600080fd5b50610622611a88565b60405161062f91906131ff565b60405180910390f35b610652600480360381019061064d9190613257565b611b16565b005b34801561066057600080fd5b5061067b60048036038101906106769190613ab0565b611e4a565b6040516106889190613154565b60405180910390f35b34801561069d57600080fd5b506106b860048036038101906106b391906136bf565b611ede565b005b60007f80ac58cd000000000000000000000000000000000000000000000000000000007bffffffffffffffffffffffffffffffffffffffffffffffffffffffff1916827bffffffffffffffffffffffffffffffffffffffffffffffffffffffff1916148061078557507f5b5e139f000000000000000000000000000000000000000000000000000000007bffffffffffffffffffffffffffffffffffffffffffffffffffffffff1916827bffffffffffffffffffffffffffffffffffffffffffffffffffffffff1916145b80610795575061079482611f64565b5b9050919050565b6060600080546107ab90613b1f565b80601f01602080910402602001604051908101604052809291908181526020018280546107d790613b1f565b80156108245780601f106107f957610100808354040283529160200191610824565b820191906000526020600020905b81548152906001019060200180831161080757829003601f168201915b5050505050905090565b600061083982611fce565b5061084382612056565b9050919050565b61085c8282610857612093565b61209b565b5050565b600960009054906101000a900460ff16156108b0576040517f08c379a00000000000000000000000000000000000000000000000000000000081526004016108a790613b9c565b60405180910390fd5b6001600960006101000a81548160ff021916908315150217905550813373ffffffffffffffffffffffffffffffffffffffff166108ec826110bb565b73ffffffffffffffffffffffffffffffffffffffff1614610942576040517f08c379a000000000000000000000000000000000000000000000000000000000815260040161093990613c2e565b60405180910390fd5b81600a6000858152602001908152602001600020600401819055506000600a600085815260200190815260200160002060030160146101000a81548160ff02191690836001811115610997576109966133ee565b5b02179055507f198e4900853b3136832e016119981faabf00d41df3f94ee11c89e0a476df6dbc836040516109cb91906136ec565b60405180910390a1506000600960006101000a81548160ff0219169083151502179055505050565b600073ffffffffffffffffffffffffffffffffffffffff168273ffffffffffffffffffffffffffffffffffffffff1603610a655760006040517f64a0ae92000000000000000000000000000000000000000000000000000000008152600401610a5c91906132c5565b60405180910390fd5b6000610a798383610a74612093565b6120ad565b90508373ffffffffffffffffffffffffffffffffffffffff168173ffffffffffffffffffffffffffffffffffffffff1614610aef578382826040517f64283d7b000000000000000000000000000000000000000000000000000000008152600401610ae693929190613c4e565b60405180910390fd5b50505050565b600960009054906101000a900460ff1615610b45576040517f08c379a0000000000000000000000000000000000000000000000000000000008152600401610b3c90613b9c565b60405180910390fd5b6001600960006101000a81548160ff021916908315150217905550803373ffffffffffffffffffffffffffffffffffffffff16610b81826110bb565b73ffffffffffffffffffffffffffffffffffffffff1614610bd7576040517f08c379a0000000000000000000000000000000000000000000000000000000008152600401610bce90613c2e565b60405180910390fd5b610be23384846122c7565b7fc3ff61e701dcb234c097bc55310aa4c22eba93eabcf10d07007f5673e58a5a6782604051610c1191906136ec565b60405180910390a1506000600960006101000a81548160ff0219169083151502179055505050565b610c54838383604051806020016040528060008152506117bb565b505050565b803373ffffffffffffffffffffffffffffffffffffffff16610c7a826110bb565b73ffffffffffffffffffffffffffffffffffffffff1614610cd0576040517f08c379a0000000000000000000000000000000000000000000000000000000008152600401610cc790613c2e565b60405180910390fd5b610cd982612434565b600a600083815260200190815260200160002060008082016000610cfd9190612fe5565b600182016000610d0d9190612fe5565b60028201600090556003820160006101000a81549073ffffffffffffffffffffffffffffffffffffffff02191690556003820160146101000a81549060ff0219169055600482016000905550507fd83c63197e8e676d80ab0122beba9a9d20f3828839e9a1d6fe81d242e9cd7e6e82604051610d8991906136ec565b60405180910390a15050565b600a602052806000526040600020600091509050806000018054610db890613b1f565b80601f0160208091040260200160405190810160405280929190818152602001828054610de490613b1f565b8015610e315780601f10610e0657610100808354040283529160200191610e31565b820191906000526020600020905b815481529060010190602001808311610e1457829003601f168201915b505050505090806001018054610e4690613b1f565b80601f0160208091040260200160405190810160405280929190818152602001828054610e7290613b1f565b8015610ebf5780601f10610e9457610100808354040283529160200191610ebf565b820191906000526020600020905b815481529060010190602001808311610ea257829003601f168201915b5050505050908060020154908060030160009054906101000a900473ffffffffffffffffffffffffffffffffffffffff16908060030160149054906101000a900460ff16908060040154905086565b600960009054906101000a900460ff1615610f5e576040517f08c379a0000000000000000000000000000000000000000000000000000000008152600401610f5590613b9c565b60405180910390fd5b6001600960006101000a81548160ff021916908315150217905550610f82826110bb565b610f8b826110bb565b8173ffffffffffffffffffffffffffffffffffffffff163373ffffffffffffffffffffffffffffffffffffffff161480610ff057508073ffffffffffffffffffffffffffffffffffffffff163373ffffffffffffffffffffffffffffffffffffffff16145b61102f576040517f08c379a000000000000000000000000000000000000000000000000000000000815260040161102690613cf7565b60405180910390fd5b600061103a856110bb565b90506000611047856110bb565b90506110548282886122c7565b61105f8183876122c7565b7fc1ed4cfa438d7a1029245050dd6fafd7955a34dbbe4dd540098b9a69ccdeb4558686604051611090929190613d17565b60405180910390a1505050506000600960006101000a81548160ff0219169083151502179055505050565b60006110c682611fce565b9050919050565b60606000600b80549050905060008167ffffffffffffffff8111156110f5576110f46137c2565b5b60405190808252806020026020018201604052801561112e57816020015b61111b613025565b8152602001906001900390816111135790505b50905060005b82811015611378576000600b828154811061115257611151613d40565b5b90600052602060002001549050600a60008281526020019081526020016000206040518060c001604052908160008201805461118d90613b1f565b80601f01602080910402602001604051908101604052809291908181526020018280546111b990613b1f565b80156112065780601f106111db57610100808354040283529160200191611206565b820191906000526020600020905b8154815290600101906020018083116111e957829003601f168201915b5050505050815260200160018201805461121f90613b1f565b80601f016020809104026020016040519081016040528092919081815260200182805461124b90613b1f565b80156112985780601f1061126d57610100808354040283529160200191611298565b820191906000526020600020905b81548152906001019060200180831161127b57829003601f168201915b50505050508152602001600282015481526020016003820160009054906101000a900473ffffffffffffffffffffffffffffffffffffffff1673ffffffffffffffffffffffffffffffffffffffff1673ffffffffffffffffffffffffffffffffffffffff1681526020016003820160149054906101000a900460ff166001811115611326576113256133ee565b5b6001811115611338576113376133ee565b5b815260200160048201548152505083838151811061135957611358613d40565b5b602002602001018190525050808061137090613d9e565b915050611134565b50809250505090565b60008073ffffffffffffffffffffffffffffffffffffffff168273ffffffffffffffffffffffffffffffffffffffff16036113f45760006040517f89c62b640000000000000000000000000000000000000000000000000000000081526004016113eb91906132c5565b60405180910390fd5b600360008373ffffffffffffffffffffffffffffffffffffffff1673ffffffffffffffffffffffffffffffffffffffff168152602001908152602001600020549050919050565b6114436124ba565b61144d6000612541565b565b6000600660009054906101000a900473ffffffffffffffffffffffffffffffffffffffff16905090565b60606001805461148890613b1f565b80601f01602080910402602001604051908101604052809291908181526020018280546114b490613b1f565b80156115015780601f106114d657610100808354040283529160200191611501565b820191906000526020600020905b8154815290600101906020018083116114e457829003601f168201915b5050505050905090565b606080600080600a60008681526020019081526020016000206040518060c001604052908160008201805461153f90613b1f565b80601f016020809104026020016040519081016040528092919081815260200182805461156b90613b1f565b80156115b85780601f1061158d576101008083540402835291602001916115b8565b820191906000526020600020905b81548152906001019060200180831161159b57829003601f168201915b505050505081526020016001820180546115d190613b1f565b80601f01602080910402602001604051908101604052809291908181526020018280546115fd90613b1f565b801561164a5780601f1061161f5761010080835404028352916020019161164a565b820191906000526020600020905b81548152906001019060200180831161162d57829003601f168201915b50505050508152602001600282015481526020016003820160009054906101000a900473ffffffffffffffffffffffffffffffffffffffff1673ffffffffffffffffffffffffffffffffffffffff1673ffffffffffffffffffffffffffffffffffffffff1681526020016003820160149054906101000a900460ff1660018111156116d8576116d76133ee565b5b60018111156116ea576116e96133ee565b5b81526020016004820154815250509050806000015181602001518260400151935093509350509193909250565b611729611722612093565b8383612607565b5050565b6008805461173a90613b1f565b80601f016020809104026020016040519081016040528092919081815260200182805461176690613b1f565b80156117b35780601f10611788576101008083540402835291602001916117b3565b820191906000526020600020905b81548152906001019060200180831161179657829003601f168201915b505050505081565b6117c68484846109f3565b6117d284848484612776565b50505050565b6117e06124ba565b6117e861144f565b73ffffffffffffffffffffffffffffffffffffffff16ff5b606061180b82611fce565b50600061181661292d565b905060008151116118365760405180602001604052806000815250611861565b8061184084612944565b604051602001611851929190613e22565b6040516020818303038152906040525b915050919050565b600960009054906101000a900460ff16156118b9576040517f08c379a00000000000000000000000000000000000000000000000000000000081526004016118b090613b9c565b60405180910390fd5b6001600960006101000a81548160ff02191690831515021790555060006040518060c001604052808681526020018581526020018481526020013373ffffffffffffffffffffffffffffffffffffffff168152602001600180811115611922576119216133ee565b5b81526020016000815250905080600a600084815260200190815260200160002060008201518160000190816119579190613ff2565b50602082015181600101908161196d9190613ff2565b506040820151816002015560608201518160030160006101000a81548173ffffffffffffffffffffffffffffffffffffffff021916908373ffffffffffffffffffffffffffffffffffffffff16021790555060808201518160030160146101000a81548160ff021916908360018111156119ea576119e96133ee565b5b021790555060a08201518160040155905050600b829080600181540180825580915050600190039060005260206000200160009091909190915055611a2f3383612a12565b7f06acbfb32bcf8383f3b0a768b70ac9ec234ea0f2d3b9c77fa6a2de69b919aad182604051611a5e91906136ec565b60405180910390a1506000600960006101000a81548160ff02191690831515021790555050505050565b60078054611a9590613b1f565b80601f0160208091040260200160405190810160405280929190818152602001828054611ac190613b1f565b8015611b0e5780601f10611ae357610100808354040283529160200191611b0e565b820191906000526020600020905b815481529060010190602001808311611af157829003601f168201915b505050505081565b600960009054906101000a900460ff1615611b66576040517f08c379a0000000000000000000000000000000000000000000000000000000008152600401611b5d90613b9c565b60405180910390fd5b6001600960006101000a81548160ff0219169083151502179055508060006001811115611b9657611b956133ee565b5b600a600083815260200190815260200160002060030160149054906101000a900460ff166001811115611bcc57611bcb6133ee565b5b14611c0c576040517f08c379a0000000000000000000000000000000000000000000000000000000008152600401611c0390614110565b60405180910390fd5b81600a600082815260200190815260200160002060040154341015611c66576040517f08c379a0000000000000000000000000000000000000000000000000000000008152600401611c5d9061417c565b60405180910390fd5b6000600a60008581526020019081526020016000206004015490506000611c8c856110bb565b9050611c998133876122c7565b60008190508073ffffffffffffffffffffffffffffffffffffffff166108fc849081150290604051600060405180830381858888f19350505050158015611ce4573d6000803e3d6000fd5b5082341115611d40573373ffffffffffffffffffffffffffffffffffffffff166108fc8434611d13919061419c565b9081150290604051600060405180830381858888f19350505050158015611d3e573d6000803e3d6000fd5b505b33600a600088815260200190815260200160002060030160006101000a81548173ffffffffffffffffffffffffffffffffffffffff021916908373ffffffffffffffffffffffffffffffffffffffff1602179055506001600a600088815260200190815260200160002060030160146101000a81548160ff02191690836001811115611dcf57611dce6133ee565b5b02179055506000600a6000888152602001908152602001600020600401819055507f92f64ca637d023f354075a4be751b169c1a8a9ccb6d33cdd0cb352054399572786604051611e1f91906136ec565b60405180910390a150505050506000600960006101000a81548160ff02191690831515021790555050565b6000600560008473ffffffffffffffffffffffffffffffffffffffff1673ffffffffffffffffffffffffffffffffffffffff16815260200190815260200160002060008373ffffffffffffffffffffffffffffffffffffffff1673ffffffffffffffffffffffffffffffffffffffff16815260200190815260200160002060009054906101000a900460ff16905092915050565b611ee66124ba565b600073ffffffffffffffffffffffffffffffffffffffff168173ffffffffffffffffffffffffffffffffffffffff1603611f585760006040517f1e4fbdf7000000000000000000000000000000000000000000000000000000008152600401611f4f91906132c5565b60405180910390fd5b611f6181612541565b50565b60007f01ffc9a7000000000000000000000000000000000000000000000000000000007bffffffffffffffffffffffffffffffffffffffffffffffffffffffff1916827bffffffffffffffffffffffffffffffffffffffffffffffffffffffff1916149050919050565b600080611fda83612b0b565b9050600073ffffffffffffffffffffffffffffffffffffffff168173ffffffffffffffffffffffffffffffffffffffff160361204d57826040517f7e27328900000000000000000000000000000000000000000000000000000000815260040161204491906136ec565b60405180910390fd5b80915050919050565b60006004600083815260200190815260200160002060009054906101000a900473ffffffffffffffffffffffffffffffffffffffff169050919050565b600033905090565b6120a88383836001612b48565b505050565b6000806120b984612b0b565b9050600073ffffffffffffffffffffffffffffffffffffffff168373ffffffffffffffffffffffffffffffffffffffff16146120fb576120fa818486612d0d565b5b600073ffffffffffffffffffffffffffffffffffffffff168173ffffffffffffffffffffffffffffffffffffffff161461218c5761213d600085600080612b48565b6001600360008373ffffffffffffffffffffffffffffffffffffffff1673ffffffffffffffffffffffffffffffffffffffff168152602001908152602001600020600082825403925050819055505b600073ffffffffffffffffffffffffffffffffffffffff168573ffffffffffffffffffffffffffffffffffffffff161461220f576001600360008773ffffffffffffffffffffffffffffffffffffffff1673ffffffffffffffffffffffffffffffffffffffff168152602001908152602001600020600082825401925050819055505b846002600086815260200190815260200160002060006101000a81548173ffffffffffffffffffffffffffffffffffffffff021916908373ffffffffffffffffffffffffffffffffffffffff160217905550838573ffffffffffffffffffffffffffffffffffffffff168273ffffffffffffffffffffffffffffffffffffffff167fddf252ad1be2c89b69c2b068fc378daa952ba7f163c4a11628f55a4df523b3ef60405160405180910390a4809150509392505050565b600073ffffffffffffffffffffffffffffffffffffffff168273ffffffffffffffffffffffffffffffffffffffff16036123395760006040517f64a0ae9200000000000000000000000000000000000000000000000000000000815260040161233091906132c5565b60405180910390fd5b6000612347838360006120ad565b9050600073ffffffffffffffffffffffffffffffffffffffff168173ffffffffffffffffffffffffffffffffffffffff16036123ba57816040517f7e2732890000000000000000000000000000000000000000000000000000000081526004016123b191906136ec565b60405180910390fd5b8373ffffffffffffffffffffffffffffffffffffffff168173ffffffffffffffffffffffffffffffffffffffff161461242e578382826040517f64283d7b00000000000000000000000000000000000000000000000000000000815260040161242593929190613c4e565b60405180910390fd5b50505050565b600061244360008360006120ad565b9050600073ffffffffffffffffffffffffffffffffffffffff168173ffffffffffffffffffffffffffffffffffffffff16036124b657816040517f7e2732890000000000000000000000000000000000000000000000000000000081526004016124ad91906136ec565b60405180910390fd5b5050565b6124c2612093565b73ffffffffffffffffffffffffffffffffffffffff166124e061144f565b73ffffffffffffffffffffffffffffffffffffffff161461253f57612503612093565b6040517f118cdaa700000000000000000000000000000000000000000000000000000000815260040161253691906132c5565b60405180910390fd5b565b6000600660009054906101000a900473ffffffffffffffffffffffffffffffffffffffff16905081600660006101000a81548173ffffffffffffffffffffffffffffffffffffffff021916908373ffffffffffffffffffffffffffffffffffffffff1602179055508173ffffffffffffffffffffffffffffffffffffffff168173ffffffffffffffffffffffffffffffffffffffff167f8be0079c531659141344cd1fd0a4f28419497f9722a3daafe3b4186f6b6457e060405160405180910390a35050565b600073ffffffffffffffffffffffffffffffffffffffff168273ffffffffffffffffffffffffffffffffffffffff160361267857816040517f5b08ba1800000000000000000000000000000000000000000000000000000000815260040161266f91906132c5565b60405180910390fd5b80600560008573ffffffffffffffffffffffffffffffffffffffff1673ffffffffffffffffffffffffffffffffffffffff16815260200190815260200160002060008473ffffffffffffffffffffffffffffffffffffffff1673ffffffffffffffffffffffffffffffffffffffff16815260200190815260200160002060006101000a81548160ff0219169083151502179055508173ffffffffffffffffffffffffffffffffffffffff168373ffffffffffffffffffffffffffffffffffffffff167f17307eab39ab6107e8899845ad3d59bd9653f200f220920489ca2b5937696c31836040516127699190613154565b60405180910390a3505050565b60008373ffffffffffffffffffffffffffffffffffffffff163b1115612927578273ffffffffffffffffffffffffffffffffffffffff1663150b7a026127ba612093565b8685856040518563ffffffff1660e01b81526004016127dc9493929190614225565b6020604051808303816000875af192505050801561281857506040513d601f19601f820116820180604052508101906128159190614286565b60015b61289c573d8060008114612848576040519150601f19603f3d011682016040523d82523d6000602084013e61284d565b606091505b50600081510361289457836040517f64a0ae9200000000000000000000000000000000000000000000000000000000815260040161288b91906132c5565b60405180910390fd5b805181602001fd5b63150b7a0260e01b7bffffffffffffffffffffffffffffffffffffffffffffffffffffffff1916817bffffffffffffffffffffffffffffffffffffffffffffffffffffffff19161461292557836040517f64a0ae9200000000000000000000000000000000000000000000000000000000815260040161291c91906132c5565b60405180910390fd5b505b50505050565b606060405180602001604052806000815250905090565b60606000600161295384612dd1565b01905060008167ffffffffffffffff811115612972576129716137c2565b5b6040519080825280601f01601f1916602001820160405280156129a45781602001600182028036833780820191505090505b509050600082602001820190505b600115612a07578080600190039150507f3031323334353637383961626364656600000000000000000000000000000000600a86061a8153600a85816129fb576129fa6142b3565b5b049450600085036129b2575b819350505050919050565b600073ffffffffffffffffffffffffffffffffffffffff168273ffffffffffffffffffffffffffffffffffffffff1603612a845760006040517f64a0ae92000000000000000000000000000000000000000000000000000000008152600401612a7b91906132c5565b60405180910390fd5b6000612a92838360006120ad565b9050600073ffffffffffffffffffffffffffffffffffffffff168173ffffffffffffffffffffffffffffffffffffffff1614612b065760006040517f73c6ac6e000000000000000000000000000000000000000000000000000000008152600401612afd91906132c5565b60405180910390fd5b505050565b60006002600083815260200190815260200160002060009054906101000a900473ffffffffffffffffffffffffffffffffffffffff169050919050565b8080612b815750600073ffffffffffffffffffffffffffffffffffffffff168273ffffffffffffffffffffffffffffffffffffffff1614155b15612cb5576000612b9184611fce565b9050600073ffffffffffffffffffffffffffffffffffffffff168373ffffffffffffffffffffffffffffffffffffffff1614158015612bfc57508273ffffffffffffffffffffffffffffffffffffffff168173ffffffffffffffffffffffffffffffffffffffff1614155b8015612c0f5750612c0d8184611e4a565b155b15612c5157826040517fa9fbf51f000000000000000000000000000000000000000000000000000000008152600401612c4891906132c5565b60405180910390fd5b8115612cb357838573ffffffffffffffffffffffffffffffffffffffff168273ffffffffffffffffffffffffffffffffffffffff167f8c5be1e5ebec7d5bd14f71427d1e84f3dd0314c0f7b2291e5b200ac8c7c3b92560405160405180910390a45b505b836004600085815260200190815260200160002060006101000a81548173ffffffffffffffffffffffffffffffffffffffff021916908373ffffffffffffffffffffffffffffffffffffffff16021790555050505050565b612d18838383612f24565b612dcc57600073ffffffffffffffffffffffffffffffffffffffff168373ffffffffffffffffffffffffffffffffffffffff1603612d8d57806040517f7e273289000000000000000000000000000000000000000000000000000000008152600401612d8491906136ec565b60405180910390fd5b81816040517f177e802f000000000000000000000000000000000000000000000000000000008152600401612dc39291906142e2565b60405180910390fd5b505050565b600080600090507a184f03e93ff9f4daa797ed6e38ed64bf6a1f0100000000000000008310612e2f577a184f03e93ff9f4daa797ed6e38ed64bf6a1f0100000000000000008381612e2557612e246142b3565b5b0492506040810190505b6d04ee2d6d415b85acef81000000008310612e6c576d04ee2d6d415b85acef81000000008381612e6257612e616142b3565b5b0492506020810190505b662386f26fc100008310612e9b57662386f26fc100008381612e9157612e906142b3565b5b0492506010810190505b6305f5e1008310612ec4576305f5e1008381612eba57612eb96142b3565b5b0492506008810190505b6127108310612ee9576127108381612edf57612ede6142b3565b5b0492506004810190505b60648310612f0c5760648381612f0257612f016142b3565b5b0492506002810190505b600a8310612f1b576001810190505b80915050919050565b60008073ffffffffffffffffffffffffffffffffffffffff168373ffffffffffffffffffffffffffffffffffffffff1614158015612fdc57508273ffffffffffffffffffffffffffffffffffffffff168473ffffffffffffffffffffffffffffffffffffffff161480612f9d5750612f9c8484611e4a565b5b80612fdb57508273ffffffffffffffffffffffffffffffffffffffff16612fc383612056565b73ffffffffffffffffffffffffffffffffffffffff16145b5b90509392505050565b508054612ff190613b1f565b6000825580601f106130035750613022565b601f0160209004906000526020600020908101906130219190613083565b5b50565b6040518060c00160405280606081526020016060815260200160008152602001600073ffffffffffffffffffffffffffffffffffffffff16815260200160006001811115613076576130756133ee565b5b8152602001600081525090565b5b8082111561309c576000816000905550600101613084565b5090565b6000604051905090565b600080fd5b600080fd5b60007fffffffff0000000000000000000000000000000000000000000000000000000082169050919050565b6130e9816130b4565b81146130f457600080fd5b50565b600081359050613106816130e0565b92915050565b600060208284031215613122576131216130aa565b5b6000613130848285016130f7565b91505092915050565b60008115159050919050565b61314e81613139565b82525050565b60006020820190506131696000830184613145565b92915050565b600081519050919050565b600082825260208201905092915050565b60005b838110156131a957808201518184015260208101905061318e565b60008484015250505050565b6000601f19601f8301169050919050565b60006131d18261316f565b6131db818561317a565b93506131eb81856020860161318b565b6131f4816131b5565b840191505092915050565b6000602082019050818103600083015261321981846131c6565b905092915050565b6000819050919050565b61323481613221565b811461323f57600080fd5b50565b6000813590506132518161322b565b92915050565b60006020828403121561326d5761326c6130aa565b5b600061327b84828501613242565b91505092915050565b600073ffffffffffffffffffffffffffffffffffffffff82169050919050565b60006132af82613284565b9050919050565b6132bf816132a4565b82525050565b60006020820190506132da60008301846132b6565b92915050565b6132e9816132a4565b81146132f457600080fd5b50565b600081359050613306816132e0565b92915050565b60008060408385031215613323576133226130aa565b5b6000613331858286016132f7565b925050602061334285828601613242565b9150509250929050565b60008060408385031215613363576133626130aa565b5b600061337185828601613242565b925050602061338285828601613242565b9150509250929050565b6000806000606084860312156133a5576133a46130aa565b5b60006133b3868287016132f7565b93505060206133c4868287016132f7565b92505060406133d586828701613242565b9150509250925092565b6133e881613221565b82525050565b7f4e487b7100000000000000000000000000000000000000000000000000000000600052602160045260246000fd5b6002811061342e5761342d6133ee565b5b50565b600081905061343f8261341d565b919050565b600061344f82613431565b9050919050565b61345f81613444565b82525050565b600060c082019050818103600083015261347f81896131c6565b9050818103602083015261349381886131c6565b90506134a260408301876133df565b6134af60608301866132b6565b6134bc6080830185613456565b6134c960a08301846133df565b979650505050505050565b600081519050919050565b600082825260208201905092915050565b6000819050602082019050919050565b600082825260208201905092915050565b600061351c8261316f565b6135268185613500565b935061353681856020860161318b565b61353f816131b5565b840191505092915050565b61355381613221565b82525050565b613562816132a4565b82525050565b61357181613444565b82525050565b600060c08301600083015184820360008601526135948282613511565b915050602083015184820360208601526135ae8282613511565b91505060408301516135c3604086018261354a565b5060608301516135d66060860182613559565b5060808301516135e96080860182613568565b5060a08301516135fc60a086018261354a565b508091505092915050565b60006136138383613577565b905092915050565b6000602082019050919050565b6000613633826134d4565b61363d81856134df565b93508360208202850161364f856134f0565b8060005b8581101561368b578484038952815161366c8582613607565b94506136778361361b565b925060208a01995050600181019050613653565b50829750879550505050505092915050565b600060208201905081810360008301526136b78184613628565b905092915050565b6000602082840312156136d5576136d46130aa565b5b60006136e3848285016132f7565b91505092915050565b600060208201905061370160008301846133df565b92915050565b6000606082019050818103600083015261372181866131c6565b9050818103602083015261373581856131c6565b905061374460408301846133df565b949350505050565b61375581613139565b811461376057600080fd5b50565b6000813590506137728161374c565b92915050565b6000806040838503121561378f5761378e6130aa565b5b600061379d858286016132f7565b92505060206137ae85828601613763565b9150509250929050565b600080fd5b600080fd5b7f4e487b7100000000000000000000000000000000000000000000000000000000600052604160045260246000fd5b6137fa826131b5565b810181811067ffffffffffffffff82111715613819576138186137c2565b5b80604052505050565b600061382c6130a0565b905061383882826137f1565b919050565b600067ffffffffffffffff821115613858576138576137c2565b5b613861826131b5565b9050602081019050919050565b82818337600083830152505050565b600061389061388b8461383d565b613822565b9050828152602081018484840111156138ac576138ab6137bd565b5b6138b784828561386e565b509392505050565b600082601f8301126138d4576138d36137b8565b5b81356138e484826020860161387d565b91505092915050565b60008060008060808587031215613907576139066130aa565b5b6000613915878288016132f7565b9450506020613926878288016132f7565b935050604061393787828801613242565b925050606085013567ffffffffffffffff811115613958576139576130af565b5b613964878288016138bf565b91505092959194509250565b600067ffffffffffffffff82111561398b5761398a6137c2565b5b613994826131b5565b9050602081019050919050565b60006139b46139af84613970565b613822565b9050828152602081018484840111156139d0576139cf6137bd565b5b6139db84828561386e565b509392505050565b600082601f8301126139f8576139f76137b8565b5b8135613a088482602086016139a1565b91505092915050565b60008060008060808587031215613a2b57613a2a6130aa565b5b600085013567ffffffffffffffff811115613a4957613a486130af565b5b613a55878288016139e3565b945050602085013567ffffffffffffffff811115613a7657613a756130af565b5b613a82878288016139e3565b9350506040613a9387828801613242565b9250506060613aa487828801613242565b91505092959194509250565b60008060408385031215613ac757613ac66130aa565b5b6000613ad5858286016132f7565b9250506020613ae6858286016132f7565b9150509250929050565b7f4e487b7100000000000000000000000000000000000000000000000000000000600052602260045260246000fd5b60006002820490506001821680613b3757607f821691505b602082108103613b4a57613b49613af0565b5b50919050565b7f5265656e7472616e742063616c6c000000000000000000000000000000000000600082015250565b6000613b86600e8361317a565b9150613b9182613b50565b602082019050919050565b60006020820190508181036000830152613bb581613b79565b9050919050565b7f596f752063616e27742073656c6c206120706c616e657420796f7520646f6e2760008201527f74206f776e000000000000000000000000000000000000000000000000000000602082015250565b6000613c1860258361317a565b9150613c2382613bbc565b604082019050919050565b60006020820190508181036000830152613c4781613c0b565b9050919050565b6000606082019050613c6360008301866132b6565b613c7060208301856133df565b613c7d60408301846132b6565b949350505050565b7f53656e646572206973206e6f7420746865206f776e6572206f6620656974686560008201527f7220706c616e6574000000000000000000000000000000000000000000000000602082015250565b6000613ce160288361317a565b9150613cec82613c85565b604082019050919050565b60006020820190508181036000830152613d1081613cd4565b9050919050565b6000604082019050613d2c60008301856133df565b613d3960208301846133df565b9392505050565b7f4e487b7100000000000000000000000000000000000000000000000000000000600052603260045260246000fd5b7f4e487b7100000000000000000000000000000000000000000000000000000000600052601160045260246000fd5b6000613da982613221565b91507fffffffffffffffffffffffffffffffffffffffffffffffffffffffffffffffff8203613ddb57613dda613d6f565b5b600182019050919050565b600081905092915050565b6000613dfc8261316f565b613e068185613de6565b9350613e1681856020860161318b565b80840191505092915050565b6000613e2e8285613df1565b9150613e3a8284613df1565b91508190509392505050565b60008190508160005260206000209050919050565b60006020601f8301049050919050565b600082821b905092915050565b600060088302613ea87fffffffffffffffffffffffffffffffffffffffffffffffffffffffffffffffff82613e6b565b613eb28683613e6b565b95508019841693508086168417925050509392505050565b6000819050919050565b6000613eef613eea613ee584613221565b613eca565b613221565b9050919050565b6000819050919050565b613f0983613ed4565b613f1d613f1582613ef6565b848454613e78565b825550505050565b600090565b613f32613f25565b613f3d818484613f00565b505050565b5b81811015613f6157613f56600082613f2a565b600181019050613f43565b5050565b601f821115613fa657613f7781613e46565b613f8084613e5b565b81016020851015613f8f578190505b613fa3613f9b85613e5b565b830182613f42565b50505b505050565b600082821c905092915050565b6000613fc960001984600802613fab565b1980831691505092915050565b6000613fe28383613fb8565b9150826002028217905092915050565b613ffb8261316f565b67ffffffffffffffff811115614014576140136137c2565b5b61401e8254613b1f565b614029828285613f65565b600060209050601f83116001811461405c576000841561404a578287015190505b6140548582613fd6565b8655506140bc565b601f19841661406a86613e46565b60005b828110156140925784890151825560018201915060208501945060208101905061406d565b868310156140af57848901516140ab601f891682613fb8565b8355505b6001600288020188555050505b505050505050565b7f54686520706c616e65742073686f756c6420626520757020666f722073616c65600082015250565b60006140fa60208361317a565b9150614105826140c4565b602082019050919050565b60006020820190508181036000830152614129816140ed565b9050919050565b7f596f75206e65656420746f2073656e6420656e6f756768204574686572000000600082015250565b6000614166601d8361317a565b915061417182614130565b602082019050919050565b6000602082019050818103600083015261419581614159565b9050919050565b60006141a782613221565b91506141b283613221565b92508282039050818111156141ca576141c9613d6f565b5b92915050565b600081519050919050565b600082825260208201905092915050565b60006141f7826141d0565b61420181856141db565b935061421181856020860161318b565b61421a816131b5565b840191505092915050565b600060808201905061423a60008301876132b6565b61424760208301866132b6565b61425460408301856133df565b818103606083015261426681846141ec565b905095945050505050565b600081519050614280816130e0565b92915050565b60006020828403121561429c5761429b6130aa565b5b60006142aa84828501614271565b91505092915050565b7f4e487b7100000000000000000000000000000000000000000000000000000000600052601260045260246000fd5b60006040820190506142f760008301856132b6565b61430460208301846133df565b939250505056fea26469706673582212203a70b924d09f145093ea644c963b5b21231fa29133e2b1a863d6d1ba8019e91664736f6c63430008140033",
  "linkReferences": {},
  "deployedLinkReferences": {}
}