{
  "_format": "hh-sol-artifact-1",
  "contractName": "GalacticCollectibles",
  "sourceName": "contracts/GalacticCollectibles.sol",
  "abi": [
    {
      "inputs": [
        {
          "internalType": "address",
          "name": "sender",
          "type": "address"
        },
        {
          "internalType": "uint256",
          "name": "tokenId",
          "type": "uint256"
        },
        {
          "internalType": "address",
          "name": "owner",
          "type": "address"
        }
      ],
      "name": "ERC721IncorrectOwner",
      "type": "error"
    },
    {
      "inputs": [
        {
          "internalType": "address",
          "name": "operator",
          "type": "address"
        },
        {
          "internalType": "uint256",
          "name": "tokenId",
          "type": "uint256"
        }
      ],
      "name": "ERC721InsufficientApproval",
      "type": "error"
    },
    {
      "inputs": [
        {
          "internalType": "address",
          "name": "approver",
          "type": "address"
        }
      ],
      "name": "ERC721InvalidApprover",
      "type": "error"
    },
    {
      "inputs": [
        {
          "internalType": "address",
          "name": "operator",
          "type": "address"
        }
      ],
      "name": "ERC721InvalidOperator",
      "type": "error"
    },
    {
      "inputs": [
        {
          "internalType": "address",
          "name": "owner",
          "type": "address"
        }
      ],
      "name": "ERC721InvalidOwner",
      "type": "error"
    },
    {
      "inputs": [
        {
          "internalType": "address",
          "name": "receiver",
          "type": "address"
        }
      ],
      "name": "ERC721InvalidReceiver",
      "type": "error"
    },
    {
      "inputs": [
        {
          "internalType": "address",
          "name": "sender",
          "type": "address"
        }
      ],
      "name": "ERC721InvalidSender",
      "type": "error"
    },
    {
      "inputs": [
        {
          "internalType": "uint256",
          "name": "tokenId",
          "type": "uint256"
        }
      ],
      "name": "ERC721NonexistentToken",
      "type": "error"
    },
    {
      "inputs": [
        {
          "internalType": "address",
          "name": "owner",
          "type": "address"
        }
      ],
      "name": "OwnableInvalidOwner",
      "type": "error"
    },
    {
      "inputs": [
        {
          "internalType": "address",
          "name": "account",
          "type": "address"
        }
      ],
      "name": "OwnableUnauthorizedAccount",
      "type": "error"
    },
    {
      "anonymous": false,
      "inputs": [
        {
          "indexed": true,
          "internalType": "address",
          "name": "owner",
          "type": "address"
        },
        {
          "indexed": true,
          "internalType": "address",
          "name": "approved",
          "type": "address"
        },
        {
          "indexed": true,
          "internalType": "uint256",
          "name": "tokenId",
          "type": "uint256"
        }
      ],
      "name": "Approval",
      "type": "event"
    },
    {
      "anonymous": false,
      "inputs": [
        {
          "indexed": true,
          "internalType": "address",
          "name": "owner",
          "type": "address"
        },
        {
          "indexed": true,
          "internalType": "address",
          "name": "operator",
          "type": "address"
        },
        {
          "indexed": false,
          "internalType": "bool",
          "name": "approved",
          "type": "bool"
        }
      ],
      "name": "ApprovalForAll",
      "type": "event"
    },
    {
      "anonymous": false,
      "inputs": [
        {
          "indexed": false,
          "internalType": "uint256",
          "name": "_tokenId",
          "type": "uint256"
        }
      ],
      "name": "Burned",
      "type": "event"
    },
    {
      "anonymous": false,
      "inputs": [
        {
          "indexed": false,
          "internalType": "uint256",
          "name": "_tokenId",
          "type": "uint256"
        }
      ],
      "name": "Created",
      "type": "event"
    },
    {
      "anonymous": false,
      "inputs": [
        {
          "indexed": false,
          "internalType": "uint256",
          "name": "_tokenId1",
          "type": "uint256"
        },
        {
          "indexed": false,
          "internalType": "uint256",
          "name": "_tokenId2",
          "type": "uint256"
        }
      ],
      "name": "Exchanged",
      "type": "event"
    },
    {
      "anonymous": false,
      "inputs": [
        {
          "indexed": true,
          "internalType": "address",
          "name": "previousOwner",
          "type": "address"
        },
        {
          "indexed": true,
          "internalType": "address",
          "name": "newOwner",
          "type": "address"
        }
      ],
      "name": "OwnershipTransferred",
      "type": "event"
    },
    {
      "anonymous": false,
      "inputs": [
        {
          "indexed": false,
          "internalType": "uint256",
          "name": "_tokenId",
          "type": "uint256"
        }
      ],
      "name": "Sold",
      "type": "event"
    },
    {
      "anonymous": false,
      "inputs": [
        {
          "indexed": true,
          "internalType": "address",
          "name": "from",
          "type": "address"
        },
        {
          "indexed": true,
          "internalType": "address",
          "name": "to",
          "type": "address"
        },
        {
          "indexed": true,
          "internalType": "uint256",
          "name": "tokenId",
          "type": "uint256"
        }
      ],
      "name": "Transfer",
      "type": "event"
    },
    {
      "anonymous": false,
      "inputs": [
        {
          "indexed": false,
          "internalType": "uint256",
          "name": "_tokenId",
          "type": "uint256"
        }
      ],
      "name": "Transfered",
      "type": "event"
    },
    {
      "anonymous": false,
      "inputs": [
        {
          "indexed": false,
          "internalType": "uint256",
          "name": "_tokenId",
          "type": "uint256"
        }
      ],
      "name": "UpforSale",
      "type": "event"
    },
    {
      "inputs": [],
      "name": "_name",
      "outputs": [
        {
          "internalType": "string",
          "name": "",
          "type": "string"
        }
      ],
      "stateMutability": "view",
      "type": "function"
    },
    {
      "inputs": [],
      "name": "_symbol",
      "outputs": [
        {
          "internalType": "string",
          "name": "",
          "type": "string"
        }
      ],
      "stateMutability": "view",
      "type": "function"
    },
    {
      "inputs": [
        {
          "internalType": "address",
          "name": "to",
          "type": "address"
        },
        {
          "internalType": "uint256",
          "name": "tokenId",
          "type": "uint256"
        }
      ],
      "name": "approve",
      "outputs": [],
      "stateMutability": "nonpayable",
      "type": "function"
    },
    {
      "inputs": [
        {
          "internalType": "address",
          "name": "owner",
          "type": "address"
        }
      ],
      "name": "balanceOf",
      "outputs": [
        {
          "internalType": "uint256",
          "name": "",
          "type": "uint256"
        }
      ],
      "stateMutability": "view",
      "type": "function"
    },
    {
      "inputs": [
        {
          "internalType": "uint256",
          "name": "_tokenId",
          "type": "uint256"
        }
      ],
      "name": "burn",
      "outputs": [],
      "stateMutability": "nonpayable",
      "type": "function"
    },
    {
      "inputs": [
        {
          "internalType": "uint256",
          "name": "_tokenId",
          "type": "uint256"
        }
      ],
      "name": "buyPlanet",
      "outputs": [],
      "stateMutability": "payable",
      "type": "function"
    },
    {
      "inputs": [
        {
          "internalType": "string",
          "name": "_planetName",
          "type": "string"
        },
        {
          "internalType": "string",
          "name": "_terrain",
          "type": "string"
        },
        {
          "internalType": "uint256",
          "name": "_rarityLevel",
          "type": "uint256"
        },
        {
          "internalType": "uint256",
          "name": "_tokenId",
          "type": "uint256"
        }
      ],
      "name": "createPlanet",
      "outputs": [],
      "stateMutability": "nonpayable",
      "type": "function"
    },
    {
      "inputs": [
        {
          "internalType": "uint256",
          "name": "_tokenId1",
          "type": "uint256"
        },
        {
          "internalType": "uint256",
          "name": "_tokenId2",
          "type": "uint256"
        }
      ],
      "name": "exchangePlanets",
      "outputs": [],
      "stateMutability": "nonpayable",
      "type": "function"
    },
    {
      "inputs": [],
      "name": "getAllPlanets",
      "outputs": [
        {
          "components": [
            {
              "internalType": "string",
              "name": "name",
              "type": "string"
            },
            {
              "internalType": "string",
              "name": "terrain",
              "type": "string"
            },
            {
              "internalType": "uint256",
              "name": "rarityLevel",
              "type": "uint256"
            },
            {
              "internalType": "address",
              "name": "owner",
              "type": "address"
            },
            {
              "internalType": "enum BaseContract.Status",
              "name": "status",
              "type": "uint8"
            },
            {
              "internalType": "uint256",
              "name": "price",
              "type": "uint256"
            }
          ],
          "internalType": "struct BaseContract.Planet[]",
          "name": "",
          "type": "tuple[]"
        }
      ],
      "stateMutability": "view",
      "type": "function"
    },
    {
      "inputs": [
        {
          "internalType": "uint256",
          "name": "tokenId",
          "type": "uint256"
        }
      ],
      "name": "getApproved",
      "outputs": [
        {
          "internalType": "address",
          "name": "",
          "type": "address"
        }
      ],
      "stateMutability": "view",
      "type": "function"
    },
    {
      "inputs": [
        {
          "internalType": "address",
          "name": "owner",
          "type": "address"
        },
        {
          "internalType": "address",
          "name": "operator",
          "type": "address"
        }
      ],
      "name": "isApprovedForAll",
      "outputs": [
        {
          "internalType": "bool",
          "name": "",
          "type": "bool"
        }
      ],
      "stateMutability": "view",
      "type": "function"
    },
    {
      "inputs": [
        {
          "internalType": "uint256",
          "name": "_tokenId",
          "type": "uint256"
        }
      ],
      "name": "lookUpTokenIdToPlanetInfo",
      "outputs": [
        {
          "internalType": "string",
          "name": "",
          "type": "string"
        },
        {
          "internalType": "string",
          "name": "",
          "type": "string"
        },
        {
          "internalType": "uint256",
          "name": "",
          "type": "uint256"
        }
      ],
      "stateMutability": "view",
      "type": "function"
    },
    {
      "inputs": [],
      "name": "name",
      "outputs": [
        {
          "internalType": "string",
          "name": "",
          "type": "string"
        }
      ],
      "stateMutability": "view",
      "type": "function"
    },
    {
      "inputs": [],
      "name": "owner",
      "outputs": [
        {
          "internalType": "address",
          "name": "",
          "type": "address"
        }
      ],
      "stateMutability": "view",
      "type": "function"
    },
    {
      "inputs": [
        {
          "internalType": "uint256",
          "name": "tokenId",
          "type": "uint256"
        }
      ],
      "name": "ownerOf",
      "outputs": [
        {
          "internalType": "address",
          "name": "",
          "type": "address"
        }
      ],
      "stateMutability": "view",
      "type": "function"
    },
    {
      "inputs": [
        {
          "internalType": "uint256",
          "name": "_tokenId",
          "type": "uint256"
        },
        {
          "internalType": "uint256",
          "name": "_price",
          "type": "uint256"
        }
      ],
      "name": "putPlanetUpForSale",
      "outputs": [],
      "stateMutability": "nonpayable",
      "type": "function"
    },
    {
      "inputs": [],
      "name": "renounceOwnership",
      "outputs": [],
      "stateMutability": "nonpayable",
      "type": "function"
    },
    {
      "inputs": [
        {
          "internalType": "address",
          "name": "from",
          "type": "address"
        },
        {
          "internalType": "address",
          "name": "to",
          "type": "address"
        },
        {
          "internalType": "uint256",
          "name": "tokenId",
          "type": "uint256"
        }
      ],
      "name": "safeTransferFrom",
      "outputs": [],
      "stateMutability": "nonpayable",
      "type": "function"
    },
    {
      "inputs": [
        {
          "internalType": "address",
          "name": "from",
          "type": "address"
        },
        {
          "internalType": "address",
          "name": "to",
          "type": "address"
        },
        {
          "internalType": "uint256",
          "name": "tokenId",
          "type": "uint256"
        },
        {
          "internalType": "bytes",
          "name": "data",
          "type": "bytes"
        }
      ],
      "name": "safeTransferFrom",
      "outputs": [],
      "stateMutability": "nonpayable",
      "type": "function"
    },
    {
      "inputs": [],
      "name": "selfDestroy",
      "outputs": [],
      "stateMutability": "nonpayable",
      "type": "function"
    },
    {
      "inputs": [
        {
          "internalType": "address",
          "name": "operator",
          "type": "address"
        },
        {
          "internalType": "bool",
          "name": "approved",
          "type": "bool"
        }
      ],
      "name": "setApprovalForAll",
      "outputs": [],
      "stateMutability": "nonpayable",
      "type": "function"
    },
    {
      "inputs": [
        {
          "internalType": "bytes4",
          "name": "interfaceId",
          "type": "bytes4"
        }
      ],
      "name": "supportsInterface",
      "outputs": [
        {
          "internalType": "bool",
          "name": "",
          "type": "bool"
        }
      ],
      "stateMutability": "view",
      "type": "function"
    },
    {
      "inputs": [],
      "name": "symbol",
      "outputs": [
        {
          "internalType": "string",
          "name": "",
          "type": "string"
        }
      ],
      "stateMutability": "view",
      "type": "function"
    },
    {
      "inputs": [
        {
          "internalType": "uint256",
          "name": "",
          "type": "uint256"
        }
      ],
      "name": "tokenIdToPlanetInfo",
      "outputs": [
        {
          "internalType": "string",
          "name": "name",
          "type": "string"
        },
        {
          "internalType": "string",
          "name": "terrain",
          "type": "string"
        },
        {
          "internalType": "uint256",
          "name": "rarityLevel",
          "type": "uint256"
        },
        {
          "internalType": "address",
          "name": "owner",
          "type": "address"
        },
        {
          "internalType": "enum BaseContract.Status",
          "name": "status",
          "type": "uint8"
        },
        {
          "internalType": "uint256",
          "name": "price",
          "type": "uint256"
        }
      ],
      "stateMutability": "view",
      "type": "function"
    },
    {
      "inputs": [
        {
          "internalType": "uint256",
          "name": "tokenId",
          "type": "uint256"
        }
      ],
      "name": "tokenURI",
      "outputs": [
        {
          "internalType": "string",
          "name": "",
          "type": "string"
        }
      ],
      "stateMutability": "view",
      "type": "function"
    },
    {
      "inputs": [
        {
          "internalType": "address",
          "name": "from",
          "type": "address"
        },
        {
          "internalType": "address",
          "name": "to",
          "type": "address"
        },
        {
          "internalType": "uint256",
          "name": "tokenId",
          "type": "uint256"
        }
      ],
      "name": "transferFrom",
      "outputs": [],
      "stateMutability": "nonpayable",
      "type": "function"
    },
    {
      "inputs": [
        {
          "internalType": "address",
          "name": "newOwner",
          "type": "address"
        }
      ],
      "name": "transferOwnership",
      "outputs": [],
      "stateMutability": "nonpayable",
      "type": "function"
    },
    {
      "inputs": [
        {
          "internalType": "address",
          "name": "_to",
          "type": "address"
        },
        {
          "internalType": "uint256",
          "name": "_tokenId",
          "type": "uint256"
        }
      ],
      "name": "transferPlanet",
      "outputs": [],
      "stateMutability": "nonpayable",
      "type": "function"
    }
  ],
  "bytecode": "0x60c0604052601460809081527f47616c6163746963436f6c6c65637469626c657300000000000000000000000060a0526007906200003e9082620002f9565b5060408051808201909152600381526211d05360ea1b6020820152600890620000689082620002f9565b503480156200007657600080fd5b50336007805462000087906200026a565b80601f0160208091040260200160405190810160405280929190818152602001828054620000b5906200026a565b8015620001065780601f10620000da5761010080835404028352916020019162000106565b820191906000526020600020905b815481529060010190602001808311620000e857829003601f168201915b5050505050600880546200011a906200026a565b80601f016020809104026020016040519081016040528092919081815260200182805462000148906200026a565b8015620001995780601f106200016d5761010080835404028352916020019162000199565b820191906000526020600020905b8154815290600101906020018083116200017b57829003601f168201915b50505050508160009081620001af9190620002f9565b506001620001be8282620002f9565b5050506001600160a01b038116620001f057604051631e4fbdf760e01b81526000600482015260240160405180910390fd5b620001fb8162000202565b50620003c5565b600680546001600160a01b038381166001600160a01b0319831681179093556040519116919082907f8be0079c531659141344cd1fd0a4f28419497f9722a3daafe3b4186f6b6457e090600090a35050565b634e487b7160e01b600052604160045260246000fd5b600181811c908216806200027f57607f821691505b602082108103620002a057634e487b7160e01b600052602260045260246000fd5b50919050565b601f821115620002f457600081815260208120601f850160051c81016020861015620002cf5750805b601f850160051c820191505b81811015620002f057828155600101620002db565b5050505b505050565b81516001600160401b0381111562000315576200031562000254565b6200032d816200032684546200026a565b84620002a6565b602080601f8311600181146200036557600084156200034c5750858301515b600019600386901b1c1916600185901b178555620002f0565b600085815260208120601f198616915b82811015620003965788860151825594840194600190910190840162000375565b5085821015620003b55787850151600019600388901b60f8161c191681555b5050505050600190811b01905550565b61264180620003d56000396000f3fe6080604052600436106101b75760003560e01c8063715018a6116100ec578063b9750acf1161008a578063d28d885211610064578063d28d8852146104f0578063db45a30f14610505578063e985e9c514610518578063f2fde38b1461053857600080fd5b8063b9750acf1461049b578063c87b56dd146104b0578063cefa13a0146104d057600080fd5b80639a7936df116100c65780639a7936df14610417578063a22cb46514610446578063b09f126614610466578063b88d4fde1461047b57600080fd5b8063715018a6146103cf5780638da5cb5b146103e457806395d89b411461040257600080fd5b806342842e0e1161015957806358d467701161013357806358d467701461033f5780636352211e1461035f5780636a23befb1461037f57806370a08231146103a157600080fd5b806342842e0e146102cd57806342966c68146102ed5780635426a7711461030d57600080fd5b8063095ea7b311610195578063095ea7b31461024b5780630febfc8d1461026d57806323b872dd1461028d578063311125f7146102ad57600080fd5b806301ffc9a7146101bc57806306fdde03146101f1578063081812fc14610213575b600080fd5b3480156101c857600080fd5b506101dc6101d7366004611e82565b610558565b60405190151581526020015b60405180910390f35b3480156101fd57600080fd5b506102066105aa565b6040516101e89190611eef565b34801561021f57600080fd5b5061023361022e366004611f02565b61063c565b6040516001600160a01b0390911681526020016101e8565b34801561025757600080fd5b5061026b610266366004611f37565b610665565b005b34801561027957600080fd5b5061026b610288366004611f61565b610674565b34801561029957600080fd5b5061026b6102a8366004611f83565b610745565b3480156102b957600080fd5b5061026b6102c8366004611f37565b6107d0565b3480156102d957600080fd5b5061026b6102e8366004611f83565b61086c565b3480156102f957600080fd5b5061026b610308366004611f02565b61088c565b34801561031957600080fd5b5061032d610328366004611f02565b610946565b6040516101e896959493929190611ff7565b34801561034b57600080fd5b5061026b61035a366004611f61565b610a9b565b34801561036b57600080fd5b5061023361037a366004611f02565b610bd5565b34801561038b57600080fd5b50610394610be0565b6040516101e89190612054565b3480156103ad57600080fd5b506103c16103bc366004612119565b610e41565b6040519081526020016101e8565b3480156103db57600080fd5b5061026b610e89565b3480156103f057600080fd5b506006546001600160a01b0316610233565b34801561040e57600080fd5b50610206610e9d565b34801561042357600080fd5b50610437610432366004611f02565b610eac565b6040516101e893929190612134565b34801561045257600080fd5b5061026b61046136600461216a565b61106b565b34801561047257600080fd5b50610206611076565b34801561048757600080fd5b5061026b610496366004612232565b611104565b3480156104a757600080fd5b5061026b61111b565b3480156104bc57600080fd5b506102066104cb366004611f02565b611131565b3480156104dc57600080fd5b5061026b6104eb3660046122ce565b6111a6565b3480156104fc57600080fd5b50610206611328565b61026b610513366004611f02565b611335565b34801561052457600080fd5b506101dc610533366004612342565b61154c565b34801561054457600080fd5b5061026b610553366004612119565b61157a565b60006001600160e01b031982166380ac58cd60e01b148061058957506001600160e01b03198216635b5e139f60e01b145b806105a457506301ffc9a760e01b6001600160e01b03198316145b92915050565b6060600080546105b990612375565b80601f01602080910402602001604051908101604052809291908181526020018280546105e590612375565b80156106325780601f1061060757610100808354040283529160200191610632565b820191906000526020600020905b81548152906001019060200180831161061557829003601f168201915b5050505050905090565b6000610647826115b8565b506000828152600460205260409020546001600160a01b03166105a4565b6106708282336115f1565b5050565b60095460ff16156106a05760405162461bcd60e51b8152600401610697906123af565b60405180910390fd5b6009805460ff1916600117905581336106b882610bd5565b6001600160a01b0316146106de5760405162461bcd60e51b8152600401610697906123d7565b6000838152600a602090815260409182902060048101859055600301805460ff60a01b1916905590518481527f198e4900853b3136832e016119981faabf00d41df3f94ee11c89e0a476df6dbc91015b60405180910390a150506009805460ff1916905550565b6001600160a01b03821661076f57604051633250574960e11b815260006004820152602401610697565b600061077c8383336115fe565b9050836001600160a01b0316816001600160a01b0316146107ca576040516364283d7b60e01b81526001600160a01b0380861660048301526024820184905282166044820152606401610697565b50505050565b60095460ff16156107f35760405162461bcd60e51b8152600401610697906123af565b6009805460ff19166001179055803361080b82610bd5565b6001600160a01b0316146108315760405162461bcd60e51b8152600401610697906123d7565b61083c3384846116f7565b6040518281527fc3ff61e701dcb234c097bc55310aa4c22eba93eabcf10d07007f5673e58a5a679060200161072e565b61088783838360405180602001604052806000815250611104565b505050565b803361089782610bd5565b6001600160a01b0316146108bd5760405162461bcd60e51b8152600401610697906123d7565b6108c6826117a7565b6000828152600a60205260408120906108df8282611dc9565b6108ed600183016000611dc9565b506000600282018190556003820180546001600160a81b03191690556004909101556040518281527fd83c63197e8e676d80ab0122beba9a9d20f3828839e9a1d6fe81d242e9cd7e6e9060200160405180910390a15050565b600a6020526000908152604090208054819061096190612375565b80601f016020809104026020016040519081016040528092919081815260200182805461098d90612375565b80156109da5780601f106109af576101008083540402835291602001916109da565b820191906000526020600020905b8154815290600101906020018083116109bd57829003601f168201915b5050505050908060010180546109ef90612375565b80601f0160208091040260200160405190810160405280929190818152602001828054610a1b90612375565b8015610a685780601f10610a3d57610100808354040283529160200191610a68565b820191906000526020600020905b815481529060010190602001808311610a4b57829003601f168201915b5050505060028301546003840154600490940154929390926001600160a01b0382169250600160a01b90910460ff169086565b60095460ff1615610abe5760405162461bcd60e51b8152600401610697906123af565b6009805460ff19166001179055610ad482610bd5565b610add82610bd5565b336001600160a01b0383161480610afc5750336001600160a01b038216145b610b595760405162461bcd60e51b815260206004820152602860248201527f53656e646572206973206e6f7420746865206f776e6572206f662065697468656044820152671c881c1b185b995d60c21b6064820152608401610697565b6000610b6485610bd5565b90506000610b7185610bd5565b9050610b7e8282886116f7565b610b898183876116f7565b60408051878152602081018790527fc1ed4cfa438d7a1029245050dd6fafd7955a34dbbe4dd540098b9a69ccdeb45591015b60405180910390a150506009805460ff1916905550505050565b60006105a4826115b8565b600b5460609060008167ffffffffffffffff811115610c0157610c016121a6565b604051908082528060200260200182016040528015610c3a57816020015b610c27611e03565b815260200190600190039081610c1f5790505b50905060005b82811015610e3a576000600b8281548110610c5d57610c5d61241c565b90600052602060002001549050600a60008281526020019081526020016000206040518060c0016040529081600082018054610c9890612375565b80601f0160208091040260200160405190810160405280929190818152602001828054610cc490612375565b8015610d115780601f10610ce657610100808354040283529160200191610d11565b820191906000526020600020905b815481529060010190602001808311610cf457829003601f168201915b50505050508152602001600182018054610d2a90612375565b80601f0160208091040260200160405190810160405280929190818152602001828054610d5690612375565b8015610da35780601f10610d7857610100808354040283529160200191610da3565b820191906000526020600020905b815481529060010190602001808311610d8657829003601f168201915b50505091835250506002820154602082015260038201546001600160a01b0381166040830152606090910190600160a01b900460ff166001811115610dea57610dea611fbf565b6001811115610dfb57610dfb611fbf565b8152602001600482015481525050838381518110610e1b57610e1b61241c565b6020026020010181905250508080610e3290612448565b915050610c40565b5092915050565b60006001600160a01b038216610e6d576040516322718ad960e21b815260006004820152602401610697565b506001600160a01b031660009081526003602052604090205490565b610e916117e2565b610e9b600061180f565b565b6060600180546105b990612375565b606080600080600a60008681526020019081526020016000206040518060c0016040529081600082018054610ee090612375565b80601f0160208091040260200160405190810160405280929190818152602001828054610f0c90612375565b8015610f595780601f10610f2e57610100808354040283529160200191610f59565b820191906000526020600020905b815481529060010190602001808311610f3c57829003601f168201915b50505050508152602001600182018054610f7290612375565b80601f0160208091040260200160405190810160405280929190818152602001828054610f9e90612375565b8015610feb5780601f10610fc057610100808354040283529160200191610feb565b820191906000526020600020905b815481529060010190602001808311610fce57829003601f168201915b50505091835250506002820154602082015260038201546001600160a01b0381166040830152606090910190600160a01b900460ff16600181111561103257611032611fbf565b600181111561104357611043611fbf565b8152600491909101546020918201528151908201516040909201519097919650945092505050565b610670338383611861565b6008805461108390612375565b80601f01602080910402602001604051908101604052809291908181526020018280546110af90612375565b80156110fc5780601f106110d1576101008083540402835291602001916110fc565b820191906000526020600020905b8154815290600101906020018083116110df57829003601f168201915b505050505081565b61110f848484610745565b6107ca84848484611900565b6111236117e2565b6006546001600160a01b0316ff5b606061113c826115b8565b50600061115460408051602081019091526000815290565b90506000815111611174576040518060200160405280600081525061119f565b8061117e84611a29565b60405160200161118f929190612461565b6040516020818303038152906040525b9392505050565b60095460ff16156111c95760405162461bcd60e51b8152600401610697906123af565b6009805460ff191660019081179091556040805160c08101825286815260208082018790528183018690523360608301526080820193909352600060a08201819052848152600a90935291208151829190819061122690826124de565b506020820151600182019061123b90826124de565b506040820151600282015560608201516003820180546001600160a01b039092166001600160a01b03198316811782556080850151926001600160a81b03191617600160a01b83600181111561129357611293611fbf565b021790555060a09190910151600490910155600b80546001810182556000919091527f0175b7a638427703f0dbe7bb9bbf987a2551717b34e79f33b5b1008d1fa01db9018290556112e43383611abc565b6040518281527f06acbfb32bcf8383f3b0a768b70ac9ec234ea0f2d3b9c77fa6a2de69b919aad19060200160405180910390a150506009805460ff19169055505050565b6007805461108390612375565b60095460ff16156113585760405162461bcd60e51b8152600401610697906123af565b6009805460ff1916600117905580600080828152600a6020526040902060030154600160a01b900460ff16600181111561139457611394611fbf565b146113e15760405162461bcd60e51b815260206004820181905260248201527f54686520706c616e65742073686f756c6420626520757020666f722073616c656044820152606401610697565b6000828152600a602052604090206004015482903410156114445760405162461bcd60e51b815260206004820152601d60248201527f596f75206e65656420746f2073656e6420656e6f7567682045746865720000006044820152606401610697565b6000838152600a60205260408120600401549061146085610bd5565b905061146d8133876116f7565b60405181906001600160a01b0382169084156108fc029085906000818181858888f193505050501580156114a5573d6000803e3d6000fd5b50823411156114e657336108fc6114bc853461259e565b6040518115909202916000818181858888f193505050501580156114e4573d6000803e3d6000fd5b505b6000868152600a602090815260408083206003810180546001600160a81b0319163360ff60a01b191617600160a01b1790556004019290925590518781527f92f64ca637d023f354075a4be751b169c1a8a9ccb6d33cdd0cb35205439957279101610bbb565b6001600160a01b03918216600090815260056020908152604080832093909416825291909152205460ff1690565b6115826117e2565b6001600160a01b0381166115ac57604051631e4fbdf760e01b815260006004820152602401610697565b6115b58161180f565b50565b6000818152600260205260408120546001600160a01b0316806105a457604051637e27328960e01b815260048101849052602401610697565b6108878383836001611b21565b6000828152600260205260408120546001600160a01b039081169083161561162b5761162b818486611c27565b6001600160a01b0381161561166957611648600085600080611b21565b6001600160a01b038116600090815260036020526040902080546000190190555b6001600160a01b03851615611698576001600160a01b0385166000908152600360205260409020805460010190555b60008481526002602052604080822080546001600160a01b0319166001600160a01b0389811691821790925591518793918516917fddf252ad1be2c89b69c2b068fc378daa952ba7f163c4a11628f55a4df523b3ef91a4949350505050565b6001600160a01b03821661172157604051633250574960e11b815260006004820152602401610697565b600061172f838360006115fe565b90506001600160a01b03811661175b57604051637e27328960e01b815260048101839052602401610697565b836001600160a01b0316816001600160a01b0316146107ca576040516364283d7b60e01b81526001600160a01b0380861660048301526024820184905282166044820152606401610697565b60006117b660008360006115fe565b90506001600160a01b03811661067057604051637e27328960e01b815260048101839052602401610697565b6006546001600160a01b03163314610e9b5760405163118cdaa760e01b8152336004820152602401610697565b600680546001600160a01b038381166001600160a01b0319831681179093556040519116919082907f8be0079c531659141344cd1fd0a4f28419497f9722a3daafe3b4186f6b6457e090600090a35050565b6001600160a01b03821661189357604051630b61174360e31b81526001600160a01b0383166004820152602401610697565b6001600160a01b03838116600081815260056020908152604080832094871680845294825291829020805460ff191686151590811790915591519182527f17307eab39ab6107e8899845ad3d59bd9653f200f220920489ca2b5937696c31910160405180910390a3505050565b6001600160a01b0383163b156107ca57604051630a85bd0160e11b81526001600160a01b0384169063150b7a02906119429033908890879087906004016125b1565b6020604051808303816000875af192505050801561197d575060408051601f3d908101601f1916820190925261197a918101906125ee565b60015b6119e6573d8080156119ab576040519150601f19603f3d011682016040523d82523d6000602084013e6119b0565b606091505b5080516000036119de57604051633250574960e11b81526001600160a01b0385166004820152602401610697565b805181602001fd5b6001600160e01b03198116630a85bd0160e11b14611a2257604051633250574960e11b81526001600160a01b0385166004820152602401610697565b5050505050565b60606000611a3683611c8b565b600101905060008167ffffffffffffffff811115611a5657611a566121a6565b6040519080825280601f01601f191660200182016040528015611a80576020820181803683370190505b5090508181016020015b600019016f181899199a1a9b1b9c1cb0b131b232b360811b600a86061a8153600a8504945084611a8a57509392505050565b6001600160a01b038216611ae657604051633250574960e11b815260006004820152602401610697565b6000611af4838360006115fe565b90506001600160a01b03811615610887576040516339e3563760e11b815260006004820152602401610697565b8080611b3557506001600160a01b03821615155b15611bf7576000611b45846115b8565b90506001600160a01b03831615801590611b715750826001600160a01b0316816001600160a01b031614155b8015611b845750611b82818461154c565b155b15611bad5760405163a9fbf51f60e01b81526001600160a01b0384166004820152602401610697565b8115611bf55783856001600160a01b0316826001600160a01b03167f8c5be1e5ebec7d5bd14f71427d1e84f3dd0314c0f7b2291e5b200ac8c7c3b92560405160405180910390a45b505b5050600090815260046020526040902080546001600160a01b0319166001600160a01b0392909216919091179055565b611c32838383611d63565b610887576001600160a01b038316611c6057604051637e27328960e01b815260048101829052602401610697565b60405163177e802f60e01b81526001600160a01b038316600482015260248101829052604401610697565b60008072184f03e93ff9f4daa797ed6e38ed64bf6a1f0160401b8310611cca5772184f03e93ff9f4daa797ed6e38ed64bf6a1f0160401b830492506040015b6d04ee2d6d415b85acef81000000008310611cf6576d04ee2d6d415b85acef8100000000830492506020015b662386f26fc100008310611d1457662386f26fc10000830492506010015b6305f5e1008310611d2c576305f5e100830492506008015b6127108310611d4057612710830492506004015b60648310611d52576064830492506002015b600a83106105a45760010192915050565b60006001600160a01b03831615801590611dc15750826001600160a01b0316846001600160a01b03161480611d9d5750611d9d848461154c565b80611dc157506000828152600460205260409020546001600160a01b038481169116145b949350505050565b508054611dd590612375565b6000825580601f10611de5575050565b601f0160209004906000526020600020908101906115b59190611e53565b6040518060c0016040528060608152602001606081526020016000815260200160006001600160a01b0316815260200160006001811115611e4657611e46611fbf565b8152602001600081525090565b5b80821115611e685760008155600101611e54565b5090565b6001600160e01b0319811681146115b557600080fd5b600060208284031215611e9457600080fd5b813561119f81611e6c565b60005b83811015611eba578181015183820152602001611ea2565b50506000910152565b60008151808452611edb816020860160208601611e9f565b601f01601f19169290920160200192915050565b60208152600061119f6020830184611ec3565b600060208284031215611f1457600080fd5b5035919050565b80356001600160a01b0381168114611f3257600080fd5b919050565b60008060408385031215611f4a57600080fd5b611f5383611f1b565b946020939093013593505050565b60008060408385031215611f7457600080fd5b50508035926020909101359150565b600080600060608486031215611f9857600080fd5b611fa184611f1b565b9250611faf60208501611f1b565b9150604084013590509250925092565b634e487b7160e01b600052602160045260246000fd5b60028110611ff357634e487b7160e01b600052602160045260246000fd5b9052565b60c08152600061200a60c0830189611ec3565b828103602084015261201c8189611ec3565b604084018890526001600160a01b0387166060850152915061204390506080830185611fd5565b8260a0830152979650505050505050565b60006020808301818452808551808352604092508286019150828160051b87010184880160005b8381101561210b57603f19898403018552815160c081518186526120a182870182611ec3565b915050888201518582038a8701526120b98282611ec3565b838a0151878b01526060808501516001600160a01b03169088015260808085015191935091506120eb82880182611fd5565b505060a0918201519490910193909352938601939086019060010161207b565b509098975050505050505050565b60006020828403121561212b57600080fd5b61119f82611f1b565b6060815260006121476060830186611ec3565b82810360208401526121598186611ec3565b915050826040830152949350505050565b6000806040838503121561217d57600080fd5b61218683611f1b565b91506020830135801515811461219b57600080fd5b809150509250929050565b634e487b7160e01b600052604160045260246000fd5b600067ffffffffffffffff808411156121d7576121d76121a6565b604051601f8501601f19908116603f011681019082821181831017156121ff576121ff6121a6565b8160405280935085815286868601111561221857600080fd5b858560208301376000602087830101525050509392505050565b6000806000806080858703121561224857600080fd5b61225185611f1b565b935061225f60208601611f1b565b925060408501359150606085013567ffffffffffffffff81111561228257600080fd5b8501601f8101871361229357600080fd5b6122a2878235602084016121bc565b91505092959194509250565b600082601f8301126122bf57600080fd5b61119f838335602085016121bc565b600080600080608085870312156122e457600080fd5b843567ffffffffffffffff808211156122fc57600080fd5b612308888389016122ae565b9550602087013591508082111561231e57600080fd5b5061232b878288016122ae565b949794965050505060408301359260600135919050565b6000806040838503121561235557600080fd5b61235e83611f1b565b915061236c60208401611f1b565b90509250929050565b600181811c9082168061238957607f821691505b6020821081036123a957634e487b7160e01b600052602260045260246000fd5b50919050565b6020808252600e908201526d1499595b9d1c985b9d0818d85b1b60921b604082015260600190565b60208082526025908201527f596f752063616e27742073656c6c206120706c616e657420796f7520646f6e276040820152643a1037bbb760d91b606082015260800190565b634e487b7160e01b600052603260045260246000fd5b634e487b7160e01b600052601160045260246000fd5b60006001820161245a5761245a612432565b5060010190565b60008351612473818460208801611e9f565b835190830190612487818360208801611e9f565b01949350505050565b601f82111561088757600081815260208120601f850160051c810160208610156124b75750805b601f850160051c820191505b818110156124d6578281556001016124c3565b505050505050565b815167ffffffffffffffff8111156124f8576124f86121a6565b61250c816125068454612375565b84612490565b602080601f83116001811461254157600084156125295750858301515b600019600386901b1c1916600185901b1785556124d6565b600085815260208120601f198616915b8281101561257057888601518255948401946001909101908401612551565b508582101561258e5787850151600019600388901b60f8161c191681555b5050505050600190811b01905550565b818103818111156105a4576105a4612432565b6001600160a01b03858116825284166020820152604081018390526080606082018190526000906125e490830184611ec3565b9695505050505050565b60006020828403121561260057600080fd5b815161119f81611e6c56fea2646970667358221220780c15ee740ce7577d84bc805dc10102901c42746387826d056f535bc768b8b464736f6c63430008140033",
  "linkReferences": {},
  "deployedLinkReferences": {}
}